{
	"RoomShare.sol": {
		"RoomShare": {
			"abi": [
				{
					"anonymous": false,
					"inputs": [
						{
							"indexed": true,
							"internalType": "uint256",
							"name": "roomId",
							"type": "uint256"
						},
						{
							"indexed": true,
							"internalType": "uint256",
							"name": "rentId",
							"type": "uint256"
						}
					],
					"name": "NewRent",
					"type": "event"
				},
				{
					"anonymous": false,
					"inputs": [
						{
							"indexed": true,
							"internalType": "uint256",
							"name": "roomId",
							"type": "uint256"
						}
					],
					"name": "NewRoom",
					"type": "event"
				},
				{
					"anonymous": false,
					"inputs": [
						{
							"indexed": false,
							"internalType": "address",
							"name": "sender",
							"type": "address"
						},
						{
							"indexed": false,
							"internalType": "address",
							"name": "recipient",
							"type": "address"
						},
						{
							"indexed": false,
							"internalType": "uint256",
							"name": "amount",
							"type": "uint256"
						}
					],
					"name": "Transfer",
					"type": "event"
				},
				{
					"inputs": [
						{
							"internalType": "uint256",
							"name": "roomid",
							"type": "uint256"
						},
						{
							"internalType": "bool",
							"name": "state",
							"type": "bool"
						}
					],
					"name": "changeRoomState",
					"outputs": [],
					"stateMutability": "nonpayable",
					"type": "function"
				},
				{
					"inputs": [
						{
							"internalType": "uint256",
							"name": "rid",
							"type": "uint256"
						},
						{
							"internalType": "uint256",
							"name": "checkInDate",
							"type": "uint256"
						},
						{
							"internalType": "uint256",
							"name": "checkOutDate",
							"type": "uint256"
						}
					],
					"name": "checkRented",
					"outputs": [
						{
							"internalType": "uint256",
							"name": "",
							"type": "uint256"
						}
					],
					"stateMutability": "view",
					"type": "function"
				},
				{
					"inputs": [],
					"name": "getAllRooms",
					"outputs": [
						{
							"components": [
								{
									"internalType": "uint256",
									"name": "id",
									"type": "uint256"
								},
								{
									"internalType": "string",
									"name": "name",
									"type": "string"
								},
								{
									"internalType": "string",
									"name": "location",
									"type": "string"
								},
								{
									"internalType": "bool",
									"name": "isActive",
									"type": "bool"
								},
								{
									"internalType": "uint256",
									"name": "price",
									"type": "uint256"
								},
								{
									"internalType": "address",
									"name": "owner",
									"type": "address"
								},
								{
									"internalType": "bool[]",
									"name": "isRented",
									"type": "bool[]"
								}
							],
							"internalType": "struct RoomShare.Room[]",
							"name": "",
							"type": "tuple[]"
						}
					],
					"stateMutability": "view",
					"type": "function"
				},
				{
					"inputs": [],
					"name": "getMyRents",
					"outputs": [
						{
							"components": [
								{
									"internalType": "uint256",
									"name": "id",
									"type": "uint256"
								},
								{
									"internalType": "uint256",
									"name": "rId",
									"type": "uint256"
								},
								{
									"internalType": "uint256",
									"name": "yearOfRent",
									"type": "uint256"
								},
								{
									"internalType": "uint256",
									"name": "checkInDate",
									"type": "uint256"
								},
								{
									"internalType": "uint256",
									"name": "checkOutDate",
									"type": "uint256"
								},
								{
									"internalType": "address",
									"name": "renter",
									"type": "address"
								}
							],
							"internalType": "struct RoomShare.Rent[]",
							"name": "",
							"type": "tuple[]"
						}
					],
					"stateMutability": "view",
					"type": "function"
				},
				{
					"inputs": [
						{
							"internalType": "uint256",
							"name": "_roomId",
							"type": "uint256"
						}
					],
					"name": "getRoomRentHistory",
					"outputs": [
						{
							"components": [
								{
									"internalType": "uint256",
									"name": "id",
									"type": "uint256"
								},
								{
									"internalType": "uint256",
									"name": "rId",
									"type": "uint256"
								},
								{
									"internalType": "uint256",
									"name": "yearOfRent",
									"type": "uint256"
								},
								{
									"internalType": "uint256",
									"name": "checkInDate",
									"type": "uint256"
								},
								{
									"internalType": "uint256",
									"name": "checkOutDate",
									"type": "uint256"
								},
								{
									"internalType": "address",
									"name": "renter",
									"type": "address"
								}
							],
							"internalType": "struct RoomShare.Rent[]",
							"name": "",
							"type": "tuple[]"
						}
					],
					"stateMutability": "view",
					"type": "function"
				},
				{
					"inputs": [
						{
							"internalType": "uint256",
							"name": "roomid",
							"type": "uint256"
						}
					],
					"name": "initializeRoom",
					"outputs": [],
					"stateMutability": "nonpayable",
					"type": "function"
				},
				{
					"inputs": [
						{
							"internalType": "uint256",
							"name": "_roomId",
							"type": "uint256"
						},
						{
							"internalType": "uint256",
							"name": "checkInDate",
							"type": "uint256"
						},
						{
							"internalType": "uint256",
							"name": "checkOutDate",
							"type": "uint256"
						}
					],
					"name": "recommendDate",
					"outputs": [
						{
							"internalType": "uint256[2]",
							"name": "",
							"type": "uint256[2]"
						}
					],
					"stateMutability": "view",
					"type": "function"
				},
				{
					"inputs": [],
					"name": "rentId",
					"outputs": [
						{
							"internalType": "uint256",
							"name": "",
							"type": "uint256"
						}
					],
					"stateMutability": "view",
					"type": "function"
				},
				{
					"inputs": [
						{
							"internalType": "uint256",
							"name": "_roomId",
							"type": "uint256"
						},
						{
							"internalType": "uint256",
							"name": "year",
							"type": "uint256"
						},
						{
							"internalType": "uint256",
							"name": "checkInDate",
							"type": "uint256"
						},
						{
							"internalType": "uint256",
							"name": "checkOutDate",
							"type": "uint256"
						}
					],
					"name": "rentRoom",
					"outputs": [],
					"stateMutability": "payable",
					"type": "function"
				},
				{
					"inputs": [
						{
							"internalType": "address",
							"name": "",
							"type": "address"
						},
						{
							"internalType": "uint256",
							"name": "",
							"type": "uint256"
						}
					],
					"name": "renter2rent",
					"outputs": [
						{
							"internalType": "uint256",
							"name": "id",
							"type": "uint256"
						},
						{
							"internalType": "uint256",
							"name": "rId",
							"type": "uint256"
						},
						{
							"internalType": "uint256",
							"name": "yearOfRent",
							"type": "uint256"
						},
						{
							"internalType": "uint256",
							"name": "checkInDate",
							"type": "uint256"
						},
						{
							"internalType": "uint256",
							"name": "checkOutDate",
							"type": "uint256"
						},
						{
							"internalType": "address",
							"name": "renter",
							"type": "address"
						}
					],
					"stateMutability": "view",
					"type": "function"
				},
				{
					"inputs": [],
					"name": "roomId",
					"outputs": [
						{
							"internalType": "uint256",
							"name": "",
							"type": "uint256"
						}
					],
					"stateMutability": "view",
					"type": "function"
				},
				{
					"inputs": [
						{
							"internalType": "uint256",
							"name": "",
							"type": "uint256"
						},
						{
							"internalType": "uint256",
							"name": "",
							"type": "uint256"
						}
					],
					"name": "roomId2rent",
					"outputs": [
						{
							"internalType": "uint256",
							"name": "id",
							"type": "uint256"
						},
						{
							"internalType": "uint256",
							"name": "rId",
							"type": "uint256"
						},
						{
							"internalType": "uint256",
							"name": "yearOfRent",
							"type": "uint256"
						},
						{
							"internalType": "uint256",
							"name": "checkInDate",
							"type": "uint256"
						},
						{
							"internalType": "uint256",
							"name": "checkOutDate",
							"type": "uint256"
						},
						{
							"internalType": "address",
							"name": "renter",
							"type": "address"
						}
					],
					"stateMutability": "view",
					"type": "function"
				},
				{
					"inputs": [
						{
							"internalType": "uint256",
							"name": "",
							"type": "uint256"
						}
					],
					"name": "roomId2room",
					"outputs": [
						{
							"internalType": "uint256",
							"name": "id",
							"type": "uint256"
						},
						{
							"internalType": "string",
							"name": "name",
							"type": "string"
						},
						{
							"internalType": "string",
							"name": "location",
							"type": "string"
						},
						{
							"internalType": "bool",
							"name": "isActive",
							"type": "bool"
						},
						{
							"internalType": "uint256",
							"name": "price",
							"type": "uint256"
						},
						{
							"internalType": "address",
							"name": "owner",
							"type": "address"
						}
					],
					"stateMutability": "view",
					"type": "function"
				},
				{
					"inputs": [
						{
							"internalType": "string",
							"name": "name",
							"type": "string"
						},
						{
							"internalType": "string",
							"name": "location",
							"type": "string"
						},
						{
							"internalType": "uint256",
							"name": "price",
							"type": "uint256"
						}
					],
					"name": "shareRoom",
					"outputs": [],
					"stateMutability": "nonpayable",
					"type": "function"
				}
			],
			"devdoc": {
				"kind": "dev",
				"methods": {},
				"version": 1
			},
			"evm": {
				"assembly": "    /* \"RoomShare.sol\":69:6555  contract RoomShare {... */\n  mstore(0x40, 0x80)\n    /* \"RoomShare.sol\":113:114  0 */\n  0x00\n    /* \"RoomShare.sol\":92:114  uint public roomId = 0 */\n  dup1\n  sstore\n    /* \"RoomShare.sol\":285:286  0 */\n  0x00\n    /* \"RoomShare.sol\":264:286  uint public rentId = 0 */\n  0x01\n  sstore\n    /* \"RoomShare.sol\":69:6555  contract RoomShare {... */\n  callvalue\n  dup1\n  iszero\n  tag_1\n  jumpi\n  0x00\n  dup1\n  revert\ntag_1:\n  pop\n  dataSize(sub_0)\n  dup1\n  dataOffset(sub_0)\n  0x00\n  codecopy\n  0x00\n  return\nstop\n\nsub_0: assembly {\n        /* \"RoomShare.sol\":69:6555  contract RoomShare {... */\n      mstore(0x40, 0x80)\n      jumpi(tag_1, lt(calldatasize, 0x04))\n      shr(0xe0, calldataload(0x00))\n      dup1\n      0x7b319135\n      gt\n      tag_16\n      jumpi\n      dup1\n      0xa165c0ba\n      gt\n      tag_17\n      jumpi\n      dup1\n      0xa165c0ba\n      eq\n      tag_12\n      jumpi\n      dup1\n      0xd48c14df\n      eq\n      tag_13\n      jumpi\n      dup1\n      0xf794cf2d\n      eq\n      tag_14\n      jumpi\n      dup1\n      0xf954d0d9\n      eq\n      tag_15\n      jumpi\n      jump(tag_1)\n    tag_17:\n      dup1\n      0x7b319135\n      eq\n      tag_9\n      jumpi\n      dup1\n      0x85bfa356\n      eq\n      tag_10\n      jumpi\n      dup1\n      0x8c694034\n      eq\n      tag_11\n      jumpi\n      jump(tag_1)\n    tag_16:\n      dup1\n      0x434ebe28\n      gt\n      tag_18\n      jumpi\n      dup1\n      0x434ebe28\n      eq\n      tag_5\n      jumpi\n      dup1\n      0x66fbc1f1\n      eq\n      tag_6\n      jumpi\n      dup1\n      0x6decd419\n      eq\n      tag_7\n      jumpi\n      dup1\n      0x799a0f99\n      eq\n      tag_8\n      jumpi\n      jump(tag_1)\n    tag_18:\n      dup1\n      0x0eac931a\n      eq\n      tag_2\n      jumpi\n      dup1\n      0x1071bc81\n      eq\n      tag_3\n      jumpi\n      dup1\n      0x43064aa4\n      eq\n      tag_4\n      jumpi\n    tag_1:\n      0x00\n      dup1\n      revert\n        /* \"RoomShare.sol\":758:803  mapping(address => Rent[]) public renter2rent */\n    tag_2:\n      callvalue\n      dup1\n      iszero\n      tag_19\n      jumpi\n      0x00\n      dup1\n      revert\n    tag_19:\n      pop\n      tag_20\n      0x04\n      dup1\n      calldatasize\n      sub\n      dup2\n      add\n      swap1\n      tag_21\n      swap2\n      swap1\n      tag_22\n      jump\t// in\n    tag_21:\n      tag_23\n      jump\t// in\n    tag_20:\n      mload(0x40)\n      tag_24\n      swap7\n      swap6\n      swap5\n      swap4\n      swap3\n      swap2\n      swap1\n      tag_25\n      jump\t// in\n    tag_24:\n      mload(0x40)\n      dup1\n      swap2\n      sub\n      swap1\n      return\n        /* \"RoomShare.sol\":807:849  mapping(uint => Rent[]) public roomId2rent */\n    tag_3:\n      callvalue\n      dup1\n      iszero\n      tag_26\n      jumpi\n      0x00\n      dup1\n      revert\n    tag_26:\n      pop\n      tag_27\n      0x04\n      dup1\n      calldatasize\n      sub\n      dup2\n      add\n      swap1\n      tag_28\n      swap2\n      swap1\n      tag_29\n      jump\t// in\n    tag_28:\n      tag_30\n      jump\t// in\n    tag_27:\n      mload(0x40)\n      tag_31\n      swap7\n      swap6\n      swap5\n      swap4\n      swap3\n      swap2\n      swap1\n      tag_25\n      jump\t// in\n    tag_31:\n      mload(0x40)\n      dup1\n      swap2\n      sub\n      swap1\n      return\n        /* \"RoomShare.sol\":4861:5736  function recommendDate(uint _roomId, uint checkInDate, uint checkOutDate) external view returns(uint[2] memory) {... */\n    tag_4:\n      callvalue\n      dup1\n      iszero\n      tag_32\n      jumpi\n      0x00\n      dup1\n      revert\n    tag_32:\n      pop\n      tag_33\n      0x04\n      dup1\n      calldatasize\n      sub\n      dup2\n      add\n      swap1\n      tag_34\n      swap2\n      swap1\n      tag_35\n      jump\t// in\n    tag_34:\n      tag_36\n      jump\t// in\n    tag_33:\n      mload(0x40)\n      tag_37\n      swap2\n      swap1\n      tag_38\n      jump\t// in\n    tag_37:\n      mload(0x40)\n      dup1\n      swap2\n      sub\n      swap1\n      return\n        /* \"RoomShare.sol\":5740:5875  function changeRoomState(uint roomid, bool state) public  {... */\n    tag_5:\n      callvalue\n      dup1\n      iszero\n      tag_39\n      jumpi\n      0x00\n      dup1\n      revert\n    tag_39:\n      pop\n      tag_40\n      0x04\n      dup1\n      calldatasize\n      sub\n      dup2\n      add\n      swap1\n      tag_41\n      swap2\n      swap1\n      tag_42\n      jump\t// in\n    tag_41:\n      tag_43\n      jump\t// in\n    tag_40:\n      stop\n        /* \"RoomShare.sol\":5879:6553  function initializeRoom(uint roomid) public {... */\n    tag_6:\n      callvalue\n      dup1\n      iszero\n      tag_44\n      jumpi\n      0x00\n      dup1\n      revert\n    tag_44:\n      pop\n      tag_45\n      0x04\n      dup1\n      calldatasize\n      sub\n      dup2\n      add\n      swap1\n      tag_46\n      swap2\n      swap1\n      tag_47\n      jump\t// in\n    tag_46:\n      tag_48\n      jump\t// in\n    tag_45:\n      stop\n        /* \"RoomShare.sol\":264:286  uint public rentId = 0 */\n    tag_7:\n      callvalue\n      dup1\n      iszero\n      tag_49\n      jumpi\n      0x00\n      dup1\n      revert\n    tag_49:\n      pop\n      tag_50\n      tag_51\n      jump\t// in\n    tag_50:\n      mload(0x40)\n      tag_52\n      swap2\n      swap1\n      tag_53\n      jump\t// in\n    tag_52:\n      mload(0x40)\n      dup1\n      swap2\n      sub\n      swap1\n      return\n        /* \"RoomShare.sol\":1439:1841  function checkRented(uint rid, uint checkInDate, uint checkOutDate) external view returns (uint) {... */\n    tag_8:\n      callvalue\n      dup1\n      iszero\n      tag_54\n      jumpi\n      0x00\n      dup1\n      revert\n    tag_54:\n      pop\n      tag_55\n      0x04\n      dup1\n      calldatasize\n      sub\n      dup2\n      add\n      swap1\n      tag_56\n      swap2\n      swap1\n      tag_35\n      jump\t// in\n    tag_56:\n      tag_57\n      jump\t// in\n    tag_55:\n      mload(0x40)\n      tag_58\n      swap2\n      swap1\n      tag_53\n      jump\t// in\n    tag_58:\n      mload(0x40)\n      dup1\n      swap2\n      sub\n      swap1\n      return\n        /* \"RoomShare.sol\":1845:2383  function shareRoom( string calldata name, ... */\n    tag_9:\n      callvalue\n      dup1\n      iszero\n      tag_59\n      jumpi\n      0x00\n      dup1\n      revert\n    tag_59:\n      pop\n      tag_60\n      0x04\n      dup1\n      calldatasize\n      sub\n      dup2\n      add\n      swap1\n      tag_61\n      swap2\n      swap1\n      tag_62\n      jump\t// in\n    tag_61:\n      tag_63\n      jump\t// in\n    tag_60:\n      stop\n        /* \"RoomShare.sol\":854:1057  function getMyRents() external view returns(Rent[] memory) {... */\n    tag_10:\n      callvalue\n      dup1\n      iszero\n      tag_64\n      jumpi\n      0x00\n      dup1\n      revert\n    tag_64:\n      pop\n      tag_65\n      tag_66\n      jump\t// in\n    tag_65:\n      mload(0x40)\n      tag_67\n      swap2\n      swap1\n      tag_68\n      jump\t// in\n    tag_67:\n      mload(0x40)\n      dup1\n      swap2\n      sub\n      swap1\n      return\n        /* \"RoomShare.sol\":1061:1239  function getRoomRentHistory(uint _roomId) external view returns(Rent[] memory) {... */\n    tag_11:\n      callvalue\n      dup1\n      iszero\n      tag_69\n      jumpi\n      0x00\n      dup1\n      revert\n    tag_69:\n      pop\n      tag_70\n      0x04\n      dup1\n      calldatasize\n      sub\n      dup2\n      add\n      swap1\n      tag_71\n      swap2\n      swap1\n      tag_47\n      jump\t// in\n    tag_71:\n      tag_72\n      jump\t// in\n    tag_70:\n      mload(0x40)\n      tag_73\n      swap2\n      swap1\n      tag_68\n      jump\t// in\n    tag_73:\n      mload(0x40)\n      dup1\n      swap2\n      sub\n      swap1\n      return\n        /* \"RoomShare.sol\":2387:3804  function rentRoom(uint _roomId, uint year, uint checkInDate, uint checkOutDate) payable external {... */\n    tag_12:\n      tag_74\n      0x04\n      dup1\n      calldatasize\n      sub\n      dup2\n      add\n      swap1\n      tag_75\n      swap2\n      swap1\n      tag_76\n      jump\t// in\n    tag_75:\n      tag_77\n      jump\t// in\n    tag_74:\n      stop\n        /* \"RoomShare.sol\":685:725  mapping(uint => Room) public roomId2room */\n    tag_13:\n      callvalue\n      dup1\n      iszero\n      tag_78\n      jumpi\n      0x00\n      dup1\n      revert\n    tag_78:\n      pop\n      tag_79\n      0x04\n      dup1\n      calldatasize\n      sub\n      dup2\n      add\n      swap1\n      tag_80\n      swap2\n      swap1\n      tag_47\n      jump\t// in\n    tag_80:\n      tag_81\n      jump\t// in\n    tag_79:\n      mload(0x40)\n      tag_82\n      swap7\n      swap6\n      swap5\n      swap4\n      swap3\n      swap2\n      swap1\n      tag_83\n      jump\t// in\n    tag_82:\n      mload(0x40)\n      dup1\n      swap2\n      sub\n      swap1\n      return\n        /* \"RoomShare.sol\":1243:1435  function getAllRooms() external view returns(Room[] memory) {... */\n    tag_14:\n      callvalue\n      dup1\n      iszero\n      tag_84\n      jumpi\n      0x00\n      dup1\n      revert\n    tag_84:\n      pop\n      tag_85\n      tag_86\n      jump\t// in\n    tag_85:\n      mload(0x40)\n      tag_87\n      swap2\n      swap1\n      tag_88\n      jump\t// in\n    tag_87:\n      mload(0x40)\n      dup1\n      swap2\n      sub\n      swap1\n      return\n        /* \"RoomShare.sol\":92:114  uint public roomId = 0 */\n    tag_15:\n      callvalue\n      dup1\n      iszero\n      tag_89\n      jumpi\n      0x00\n      dup1\n      revert\n    tag_89:\n      pop\n      tag_90\n      tag_91\n      jump\t// in\n    tag_90:\n      mload(0x40)\n      tag_92\n      swap2\n      swap1\n      tag_53\n      jump\t// in\n    tag_92:\n      mload(0x40)\n      dup1\n      swap2\n      sub\n      swap1\n      return\n        /* \"RoomShare.sol\":758:803  mapping(address => Rent[]) public renter2rent */\n    tag_23:\n      mstore(0x20, 0x03)\n      dup2\n      0x00\n      mstore\n      keccak256(0x00, 0x40)\n      dup2\n      dup2\n      sload\n      dup2\n      lt\n      tag_93\n      jumpi\n      0x00\n      dup1\n      revert\n    tag_93:\n      swap1\n      0x00\n      mstore\n      keccak256(0x00, 0x20)\n      swap1\n      0x06\n      mul\n      add\n      0x00\n      swap2\n      pop\n      swap2\n      pop\n      pop\n      dup1\n      0x00\n      add\n      sload\n      swap1\n      dup1\n      0x01\n      add\n      sload\n      swap1\n      dup1\n      0x02\n      add\n      sload\n      swap1\n      dup1\n      0x03\n      add\n      sload\n      swap1\n      dup1\n      0x04\n      add\n      sload\n      swap1\n      dup1\n      0x05\n      add\n      0x00\n      swap1\n      sload\n      swap1\n      0x0100\n      exp\n      swap1\n      div\n      0xffffffffffffffffffffffffffffffffffffffff\n      and\n      swap1\n      pop\n      dup7\n      jump\t// out\n        /* \"RoomShare.sol\":807:849  mapping(uint => Rent[]) public roomId2rent */\n    tag_30:\n      mstore(0x20, 0x04)\n      dup2\n      0x00\n      mstore\n      keccak256(0x00, 0x40)\n      dup2\n      dup2\n      sload\n      dup2\n      lt\n      tag_95\n      jumpi\n      0x00\n      dup1\n      revert\n    tag_95:\n      swap1\n      0x00\n      mstore\n      keccak256(0x00, 0x20)\n      swap1\n      0x06\n      mul\n      add\n      0x00\n      swap2\n      pop\n      swap2\n      pop\n      pop\n      dup1\n      0x00\n      add\n      sload\n      swap1\n      dup1\n      0x01\n      add\n      sload\n      swap1\n      dup1\n      0x02\n      add\n      sload\n      swap1\n      dup1\n      0x03\n      add\n      sload\n      swap1\n      dup1\n      0x04\n      add\n      sload\n      swap1\n      dup1\n      0x05\n      add\n      0x00\n      swap1\n      sload\n      swap1\n      0x0100\n      exp\n      swap1\n      div\n      0xffffffffffffffffffffffffffffffffffffffff\n      and\n      swap1\n      pop\n      dup7\n      jump\t// out\n        /* \"RoomShare.sol\":4861:5736  function recommendDate(uint _roomId, uint checkInDate, uint checkOutDate) external view returns(uint[2] memory) {... */\n    tag_36:\n        /* \"RoomShare.sol\":4957:4971  uint[2] memory */\n      tag_97\n      tag_98\n      jump\t// in\n    tag_97:\n        /* \"RoomShare.sol\":5318:5335  Room storage room */\n      0x00\n        /* \"RoomShare.sol\":5338:5349  roomId2room */\n      0x02\n        /* \"RoomShare.sol\":5338:5358  roomId2room[_roomId] */\n      0x00\n        /* \"RoomShare.sol\":5350:5357  _roomId */\n      dup7\n        /* \"RoomShare.sol\":5338:5358  roomId2room[_roomId] */\n      dup2\n      mstore\n      0x20\n      add\n      swap1\n      dup2\n      mstore\n      0x20\n      add\n      0x00\n      keccak256\n        /* \"RoomShare.sol\":5318:5358  Room storage room = roomId2room[_roomId] */\n      swap1\n      pop\n        /* \"RoomShare.sol\":5364:5383  uint[2] memory date */\n      tag_100\n      tag_98\n      jump\t// in\n    tag_100:\n        /* \"RoomShare.sol\":5389:5397  uint idx */\n      0x00\n        /* \"RoomShare.sol\":5400:5411  checkInDate */\n      dup6\n        /* \"RoomShare.sol\":5389:5411  uint idx = checkInDate */\n      swap1\n      pop\n        /* \"RoomShare.sol\":5417:5427  bool found */\n      0x00\n        /* \"RoomShare.sol\":5442:5714  while (idx <= checkOutDate) {... */\n    tag_101:\n        /* \"RoomShare.sol\":5456:5468  checkOutDate */\n      dup6\n        /* \"RoomShare.sol\":5449:5452  idx */\n      dup3\n        /* \"RoomShare.sol\":5449:5468  idx <= checkOutDate */\n      gt\n        /* \"RoomShare.sol\":5442:5714  while (idx <= checkOutDate) {... */\n      tag_102\n      jumpi\n        /* \"RoomShare.sol\":5504:5508  true */\n      0x01\n        /* \"RoomShare.sol\":5482:5508  room.isRented[idx] == true */\n      iszero\n      iszero\n        /* \"RoomShare.sol\":5482:5486  room */\n      dup5\n        /* \"RoomShare.sol\":5482:5495  room.isRented */\n      0x06\n      add\n        /* \"RoomShare.sol\":5496:5499  idx */\n      dup4\n        /* \"RoomShare.sol\":5482:5500  room.isRented[idx] */\n      dup2\n      sload\n      dup2\n      lt\n      tag_103\n      jumpi\n      tag_104\n      tag_105\n      jump\t// in\n    tag_104:\n    tag_103:\n      swap1\n      0x00\n      mstore\n      keccak256(0x00, 0x20)\n      swap1\n      0x20\n      swap2\n      dup3\n      dup3\n      div\n      add\n      swap2\n      swap1\n      mod\n      swap1\n      sload\n      swap1\n      0x0100\n      exp\n      swap1\n      div\n      0xff\n      and\n        /* \"RoomShare.sol\":5482:5508  room.isRented[idx] == true */\n      iszero\n      iszero\n      eq\n        /* \"RoomShare.sol\":5482:5526  room.isRented[idx] == true && found == false */\n      dup1\n      iszero\n      tag_107\n      jumpi\n      pop\n        /* \"RoomShare.sol\":5521:5526  false */\n      0x00\n        /* \"RoomShare.sol\":5512:5526  found == false */\n      iszero\n      iszero\n        /* \"RoomShare.sol\":5512:5517  found */\n      dup2\n        /* \"RoomShare.sol\":5512:5526  found == false */\n      iszero\n      iszero\n      eq\n        /* \"RoomShare.sol\":5482:5526  room.isRented[idx] == true && found == false */\n    tag_107:\n        /* \"RoomShare.sol\":5478:5584  if (room.isRented[idx] == true && found == false) {... */\n      iszero\n      tag_108\n      jumpi\n        /* \"RoomShare.sol\":5552:5553  1 */\n      0x01\n        /* \"RoomShare.sol\":5548:5551  idx */\n      dup3\n        /* \"RoomShare.sol\":5548:5553  idx+1 */\n      tag_109\n      swap2\n      swap1\n      tag_110\n      jump\t// in\n    tag_109:\n        /* \"RoomShare.sol\":5538:5542  date */\n      dup4\n        /* \"RoomShare.sol\":5543:5544  0 */\n      0x00\n        /* \"RoomShare.sol\":5538:5545  date[0] */\n      0x02\n      dup2\n      lt\n      tag_111\n      jumpi\n      tag_112\n      tag_105\n      jump\t// in\n    tag_112:\n    tag_111:\n      0x20\n      mul\n      add\n        /* \"RoomShare.sol\":5538:5553  date[0] = idx+1 */\n      dup2\n      dup2\n      mstore\n      pop\n      pop\n        /* \"RoomShare.sol\":5571:5575  true */\n      0x01\n        /* \"RoomShare.sol\":5563:5575  found = true */\n      swap1\n      pop\n        /* \"RoomShare.sol\":5478:5584  if (room.isRented[idx] == true && found == false) {... */\n    tag_108:\n        /* \"RoomShare.sol\":5618:5623  false */\n      0x00\n        /* \"RoomShare.sol\":5596:5623  room.isRented[idx] == false */\n      iszero\n      iszero\n        /* \"RoomShare.sol\":5596:5600  room */\n      dup5\n        /* \"RoomShare.sol\":5596:5609  room.isRented */\n      0x06\n      add\n        /* \"RoomShare.sol\":5610:5613  idx */\n      dup4\n        /* \"RoomShare.sol\":5596:5614  room.isRented[idx] */\n      dup2\n      sload\n      dup2\n      lt\n      tag_113\n      jumpi\n      tag_114\n      tag_105\n      jump\t// in\n    tag_114:\n    tag_113:\n      swap1\n      0x00\n      mstore\n      keccak256(0x00, 0x20)\n      swap1\n      0x20\n      swap2\n      dup3\n      dup3\n      div\n      add\n      swap2\n      swap1\n      mod\n      swap1\n      sload\n      swap1\n      0x0100\n      exp\n      swap1\n      div\n      0xff\n      and\n        /* \"RoomShare.sol\":5596:5623  room.isRented[idx] == false */\n      iszero\n      iszero\n      eq\n        /* \"RoomShare.sol\":5596:5640  room.isRented[idx] == false && found == true */\n      dup1\n      iszero\n      tag_116\n      jumpi\n      pop\n        /* \"RoomShare.sol\":5636:5640  true */\n      0x01\n        /* \"RoomShare.sol\":5627:5640  found == true */\n      iszero\n      iszero\n        /* \"RoomShare.sol\":5627:5632  found */\n      dup2\n        /* \"RoomShare.sol\":5627:5640  found == true */\n      iszero\n      iszero\n      eq\n        /* \"RoomShare.sol\":5596:5640  room.isRented[idx] == false && found == true */\n    tag_116:\n        /* \"RoomShare.sol\":5592:5691  if (room.isRented[idx] == false && found == true) {... */\n      iszero\n      tag_117\n      jumpi\n        /* \"RoomShare.sol\":5666:5667  1 */\n      0x01\n        /* \"RoomShare.sol\":5662:5665  idx */\n      dup3\n        /* \"RoomShare.sol\":5662:5667  idx+1 */\n      tag_118\n      swap2\n      swap1\n      tag_110\n      jump\t// in\n    tag_118:\n        /* \"RoomShare.sol\":5652:5656  date */\n      dup4\n        /* \"RoomShare.sol\":5657:5658  1 */\n      0x01\n        /* \"RoomShare.sol\":5652:5659  date[1] */\n      0x02\n      dup2\n      lt\n      tag_119\n      jumpi\n      tag_120\n      tag_105\n      jump\t// in\n    tag_120:\n    tag_119:\n      0x20\n      mul\n      add\n        /* \"RoomShare.sol\":5652:5667  date[1] = idx+1 */\n      dup2\n      dup2\n      mstore\n      pop\n      pop\n        /* \"RoomShare.sol\":5677:5682  break */\n      jump(tag_102)\n        /* \"RoomShare.sol\":5592:5691  if (room.isRented[idx] == false && found == true) {... */\n    tag_117:\n        /* \"RoomShare.sol\":5706:5707  1 */\n      0x01\n        /* \"RoomShare.sol\":5699:5707  idx += 1 */\n      dup3\n      tag_121\n      swap2\n      swap1\n      tag_110\n      jump\t// in\n    tag_121:\n      swap2\n      pop\n        /* \"RoomShare.sol\":5442:5714  while (idx <= checkOutDate) {... */\n      jump(tag_101)\n    tag_102:\n        /* \"RoomShare.sol\":5727:5731  date */\n      dup3\n        /* \"RoomShare.sol\":5720:5731  return date */\n      swap5\n      pop\n      pop\n      pop\n      pop\n      pop\n        /* \"RoomShare.sol\":4861:5736  function recommendDate(uint _roomId, uint checkInDate, uint checkOutDate) external view returns(uint[2] memory) {... */\n      swap4\n      swap3\n      pop\n      pop\n      pop\n      jump\t// out\n        /* \"RoomShare.sol\":5740:5875  function changeRoomState(uint roomid, bool state) public  {... */\n    tag_43:\n        /* \"RoomShare.sol\":5804:5821  Room storage room */\n      0x00\n        /* \"RoomShare.sol\":5824:5835  roomId2room */\n      0x02\n        /* \"RoomShare.sol\":5824:5843  roomId2room[roomid] */\n      0x00\n        /* \"RoomShare.sol\":5836:5842  roomid */\n      dup5\n        /* \"RoomShare.sol\":5824:5843  roomId2room[roomid] */\n      dup2\n      mstore\n      0x20\n      add\n      swap1\n      dup2\n      mstore\n      0x20\n      add\n      0x00\n      keccak256\n        /* \"RoomShare.sol\":5804:5843  Room storage room = roomId2room[roomid] */\n      swap1\n      pop\n        /* \"RoomShare.sol\":5865:5870  state */\n      dup2\n        /* \"RoomShare.sol\":5849:5853  room */\n      dup2\n        /* \"RoomShare.sol\":5849:5862  room.isActive */\n      0x03\n      add\n      0x00\n        /* \"RoomShare.sol\":5849:5870  room.isActive = state */\n      0x0100\n      exp\n      dup2\n      sload\n      dup2\n      0xff\n      mul\n      not\n      and\n      swap1\n      dup4\n      iszero\n      iszero\n      mul\n      or\n      swap1\n      sstore\n      pop\n        /* \"RoomShare.sol\":5798:5875  {... */\n      pop\n        /* \"RoomShare.sol\":5740:5875  function changeRoomState(uint roomid, bool state) public  {... */\n      pop\n      pop\n      jump\t// out\n        /* \"RoomShare.sol\":5879:6553  function initializeRoom(uint roomid) public {... */\n    tag_48:\n        /* \"RoomShare.sol\":5929:5946  Room storage room */\n      0x00\n        /* \"RoomShare.sol\":5949:5960  roomId2room */\n      0x02\n        /* \"RoomShare.sol\":5949:5968  roomId2room[roomid] */\n      0x00\n        /* \"RoomShare.sol\":5961:5967  roomid */\n      dup4\n        /* \"RoomShare.sol\":5949:5968  roomId2room[roomid] */\n      dup2\n      mstore\n      0x20\n      add\n      swap1\n      dup2\n      mstore\n      0x20\n      add\n      0x00\n      keccak256\n        /* \"RoomShare.sol\":5929:5968  Room storage room = roomId2room[roomid] */\n      swap1\n      pop\n        /* \"RoomShare.sol\":5980:5986  uint i */\n      0x00\n        /* \"RoomShare.sol\":5975:6045  for (uint i = 0; i < 365; i++) {... */\n    tag_124:\n        /* \"RoomShare.sol\":5996:5999  365 */\n      0x016d\n        /* \"RoomShare.sol\":5992:5993  i */\n      dup2\n        /* \"RoomShare.sol\":5992:5999  i < 365 */\n      lt\n        /* \"RoomShare.sol\":5975:6045  for (uint i = 0; i < 365; i++) {... */\n      iszero\n      tag_125\n      jumpi\n        /* \"RoomShare.sol\":6033:6038  false */\n      0x00\n        /* \"RoomShare.sol\":6014:6018  room */\n      dup3\n        /* \"RoomShare.sol\":6014:6027  room.isRented */\n      0x06\n      add\n        /* \"RoomShare.sol\":6028:6029  i */\n      dup3\n        /* \"RoomShare.sol\":6014:6030  room.isRented[i] */\n      dup2\n      sload\n      dup2\n      lt\n      tag_127\n      jumpi\n      tag_128\n      tag_105\n      jump\t// in\n    tag_128:\n    tag_127:\n      swap1\n      0x00\n      mstore\n      keccak256(0x00, 0x20)\n      swap1\n      0x20\n      swap2\n      dup3\n      dup3\n      div\n      add\n      swap2\n      swap1\n      mod\n        /* \"RoomShare.sol\":6014:6038  room.isRented[i] = false */\n      0x0100\n      exp\n      dup2\n      sload\n      dup2\n      0xff\n      mul\n      not\n      and\n      swap1\n      dup4\n      iszero\n      iszero\n      mul\n      or\n      swap1\n      sstore\n      pop\n        /* \"RoomShare.sol\":6001:6004  i++ */\n      dup1\n      dup1\n      tag_130\n      swap1\n      tag_131\n      jump\t// in\n    tag_130:\n      swap2\n      pop\n      pop\n        /* \"RoomShare.sol\":5975:6045  for (uint i = 0; i < 365; i++) {... */\n      jump(tag_124)\n    tag_125:\n      pop\n        /* \"RoomShare.sol\":6051:6071  Rent[] storage rents */\n      0x00\n        /* \"RoomShare.sol\":6074:6085  roomId2rent */\n      0x04\n        /* \"RoomShare.sol\":6074:6093  roomId2rent[roomid] */\n      0x00\n        /* \"RoomShare.sol\":6086:6092  roomid */\n      dup5\n        /* \"RoomShare.sol\":6074:6093  roomId2rent[roomid] */\n      dup2\n      mstore\n      0x20\n      add\n      swap1\n      dup2\n      mstore\n      0x20\n      add\n      0x00\n      keccak256\n        /* \"RoomShare.sol\":6051:6093  Rent[] storage rents = roomId2rent[roomid] */\n      swap1\n      pop\n        /* \"RoomShare.sol\":6099:6123  address[] memory renters */\n      0x60\n        /* \"RoomShare.sol\":6134:6140  uint i */\n      0x00\n        /* \"RoomShare.sol\":6129:6252  for (uint i = 0; i < rents.length; i++) {... */\n    tag_132:\n        /* \"RoomShare.sol\":6150:6155  rents */\n      dup3\n        /* \"RoomShare.sol\":6150:6162  rents.length */\n      dup1\n      sload\n      swap1\n      pop\n        /* \"RoomShare.sol\":6146:6147  i */\n      dup2\n        /* \"RoomShare.sol\":6146:6162  i < rents.length */\n      lt\n        /* \"RoomShare.sol\":6129:6252  for (uint i = 0; i < rents.length; i++) {... */\n      iszero\n      tag_133\n      jumpi\n        /* \"RoomShare.sol\":6190:6195  rents */\n      dup3\n        /* \"RoomShare.sol\":6196:6197  i */\n      dup2\n        /* \"RoomShare.sol\":6190:6198  rents[i] */\n      dup2\n      sload\n      dup2\n      lt\n      tag_135\n      jumpi\n      tag_136\n      tag_105\n      jump\t// in\n    tag_136:\n    tag_135:\n      swap1\n      0x00\n      mstore\n      keccak256(0x00, 0x20)\n      swap1\n      0x06\n      mul\n      add\n        /* \"RoomShare.sol\":6190:6205  rents[i].renter */\n      0x05\n      add\n      0x00\n      swap1\n      sload\n      swap1\n      0x0100\n      exp\n      swap1\n      div\n      0xffffffffffffffffffffffffffffffffffffffff\n      and\n        /* \"RoomShare.sol\":6177:6184  renters */\n      dup3\n        /* \"RoomShare.sol\":6185:6186  i */\n      dup3\n        /* \"RoomShare.sol\":6177:6187  renters[i] */\n      dup2\n      mload\n      dup2\n      lt\n      tag_138\n      jumpi\n      tag_139\n      tag_105\n      jump\t// in\n    tag_139:\n    tag_138:\n      0x20\n      mul\n      0x20\n      add\n      add\n        /* \"RoomShare.sol\":6177:6205  renters[i] = rents[i].renter */\n      swap1\n      0xffffffffffffffffffffffffffffffffffffffff\n      and\n      swap1\n      dup2\n      0xffffffffffffffffffffffffffffffffffffffff\n      and\n      dup2\n      mstore\n      pop\n      pop\n        /* \"RoomShare.sol\":6164:6167  i++ */\n      dup1\n      dup1\n      tag_140\n      swap1\n      tag_131\n      jump\t// in\n    tag_140:\n      swap2\n      pop\n      pop\n        /* \"RoomShare.sol\":6129:6252  for (uint i = 0; i < rents.length; i++) {... */\n      jump(tag_132)\n    tag_133:\n      pop\n        /* \"RoomShare.sol\":6265:6276  roomId2rent */\n      0x04\n        /* \"RoomShare.sol\":6265:6284  roomId2rent[roomid] */\n      0x00\n        /* \"RoomShare.sol\":6277:6283  roomid */\n      dup6\n        /* \"RoomShare.sol\":6265:6284  roomId2rent[roomid] */\n      dup2\n      mstore\n      0x20\n      add\n      swap1\n      dup2\n      mstore\n      0x20\n      add\n      0x00\n      keccak256\n      0x00\n        /* \"RoomShare.sol\":6258:6284  delete roomId2rent[roomid] */\n      tag_141\n      swap2\n      swap1\n      tag_142\n      jump\t// in\n    tag_141:\n        /* \"RoomShare.sol\":6296:6302  uint i */\n      0x00\n        /* \"RoomShare.sol\":6291:6548  for (uint i = 0; i < renters.length; i++) {... */\n    tag_143:\n        /* \"RoomShare.sol\":6312:6319  renters */\n      dup2\n        /* \"RoomShare.sol\":6312:6326  renters.length */\n      mload\n        /* \"RoomShare.sol\":6308:6309  i */\n      dup2\n        /* \"RoomShare.sol\":6308:6326  i < renters.length */\n      lt\n        /* \"RoomShare.sol\":6291:6548  for (uint i = 0; i < renters.length; i++) {... */\n      iszero\n      tag_144\n      jumpi\n        /* \"RoomShare.sol\":6341:6355  address renter */\n      0x00\n        /* \"RoomShare.sol\":6358:6365  renters */\n      dup3\n        /* \"RoomShare.sol\":6366:6367  i */\n      dup3\n        /* \"RoomShare.sol\":6358:6368  renters[i] */\n      dup2\n      mload\n      dup2\n      lt\n      tag_146\n      jumpi\n      tag_147\n      tag_105\n      jump\t// in\n    tag_147:\n    tag_146:\n      0x20\n      mul\n      0x20\n      add\n      add\n      mload\n        /* \"RoomShare.sol\":6341:6368  address renter = renters[i] */\n      swap1\n      pop\n        /* \"RoomShare.sol\":6381:6387  uint j */\n      0x00\n        /* \"RoomShare.sol\":6376:6542  for (uint j = 0; j < renter2rent[renter].length; j++) {... */\n    tag_148:\n        /* \"RoomShare.sol\":6397:6408  renter2rent */\n      0x03\n        /* \"RoomShare.sol\":6397:6416  renter2rent[renter] */\n      0x00\n        /* \"RoomShare.sol\":6409:6415  renter */\n      dup4\n        /* \"RoomShare.sol\":6397:6416  renter2rent[renter] */\n      0xffffffffffffffffffffffffffffffffffffffff\n      and\n      0xffffffffffffffffffffffffffffffffffffffff\n      and\n      dup2\n      mstore\n      0x20\n      add\n      swap1\n      dup2\n      mstore\n      0x20\n      add\n      0x00\n      keccak256\n        /* \"RoomShare.sol\":6397:6423  renter2rent[renter].length */\n      dup1\n      sload\n      swap1\n      pop\n        /* \"RoomShare.sol\":6393:6394  j */\n      dup2\n        /* \"RoomShare.sol\":6393:6423  j < renter2rent[renter].length */\n      lt\n        /* \"RoomShare.sol\":6376:6542  for (uint j = 0; j < renter2rent[renter].length; j++) {... */\n      iszero\n      tag_149\n      jumpi\n        /* \"RoomShare.sol\":6474:6480  roomid */\n      dup7\n        /* \"RoomShare.sol\":6444:6455  renter2rent */\n      0x03\n        /* \"RoomShare.sol\":6444:6463  renter2rent[renter] */\n      0x00\n        /* \"RoomShare.sol\":6456:6462  renter */\n      dup5\n        /* \"RoomShare.sol\":6444:6463  renter2rent[renter] */\n      0xffffffffffffffffffffffffffffffffffffffff\n      and\n      0xffffffffffffffffffffffffffffffffffffffff\n      and\n      dup2\n      mstore\n      0x20\n      add\n      swap1\n      dup2\n      mstore\n      0x20\n      add\n      0x00\n      keccak256\n        /* \"RoomShare.sol\":6464:6465  j */\n      dup3\n        /* \"RoomShare.sol\":6444:6466  renter2rent[renter][j] */\n      dup2\n      sload\n      dup2\n      lt\n      tag_151\n      jumpi\n      tag_152\n      tag_105\n      jump\t// in\n    tag_152:\n    tag_151:\n      swap1\n      0x00\n      mstore\n      keccak256(0x00, 0x20)\n      swap1\n      0x06\n      mul\n      add\n        /* \"RoomShare.sol\":6444:6470  renter2rent[renter][j].rId */\n      0x01\n      add\n      sload\n        /* \"RoomShare.sol\":6444:6480  renter2rent[renter][j].rId == roomid */\n      eq\n        /* \"RoomShare.sol\":6440:6534  if (renter2rent[renter][j].rId == roomid) {... */\n      iszero\n      tag_154\n      jumpi\n        /* \"RoomShare.sol\":6501:6512  renter2rent */\n      0x03\n        /* \"RoomShare.sol\":6501:6520  renter2rent[renter] */\n      0x00\n        /* \"RoomShare.sol\":6513:6519  renter */\n      dup4\n        /* \"RoomShare.sol\":6501:6520  renter2rent[renter] */\n      0xffffffffffffffffffffffffffffffffffffffff\n      and\n      0xffffffffffffffffffffffffffffffffffffffff\n      and\n      dup2\n      mstore\n      0x20\n      add\n      swap1\n      dup2\n      mstore\n      0x20\n      add\n      0x00\n      keccak256\n        /* \"RoomShare.sol\":6521:6522  j */\n      dup2\n        /* \"RoomShare.sol\":6501:6523  renter2rent[renter][j] */\n      dup2\n      sload\n      dup2\n      lt\n      tag_155\n      jumpi\n      tag_156\n      tag_105\n      jump\t// in\n    tag_156:\n    tag_155:\n      swap1\n      0x00\n      mstore\n      keccak256(0x00, 0x20)\n      swap1\n      0x06\n      mul\n      add\n      0x00\n        /* \"RoomShare.sol\":6494:6523  delete renter2rent[renter][j] */\n      dup1\n      dup3\n      add\n      0x00\n      swap1\n      sstore\n      0x01\n      dup3\n      add\n      0x00\n      swap1\n      sstore\n      0x02\n      dup3\n      add\n      0x00\n      swap1\n      sstore\n      0x03\n      dup3\n      add\n      0x00\n      swap1\n      sstore\n      0x04\n      dup3\n      add\n      0x00\n      swap1\n      sstore\n      0x05\n      dup3\n      add\n      exp(0x0100, 0x00)\n      dup2\n      sload\n      swap1\n      0xffffffffffffffffffffffffffffffffffffffff\n      mul\n      not\n      and\n      swap1\n      sstore\n      pop\n      pop\n        /* \"RoomShare.sol\":6440:6534  if (renter2rent[renter][j].rId == roomid) {... */\n    tag_154:\n        /* \"RoomShare.sol\":6425:6428  j++ */\n      dup1\n      dup1\n      tag_158\n      swap1\n      tag_131\n      jump\t// in\n    tag_158:\n      swap2\n      pop\n      pop\n        /* \"RoomShare.sol\":6376:6542  for (uint j = 0; j < renter2rent[renter].length; j++) {... */\n      jump(tag_148)\n    tag_149:\n      pop\n        /* \"RoomShare.sol\":6333:6548  {... */\n      pop\n        /* \"RoomShare.sol\":6328:6331  i++ */\n      dup1\n      dup1\n      tag_159\n      swap1\n      tag_131\n      jump\t// in\n    tag_159:\n      swap2\n      pop\n      pop\n        /* \"RoomShare.sol\":6291:6548  for (uint i = 0; i < renters.length; i++) {... */\n      jump(tag_143)\n    tag_144:\n      pop\n        /* \"RoomShare.sol\":5923:6553  {... */\n      pop\n      pop\n      pop\n        /* \"RoomShare.sol\":5879:6553  function initializeRoom(uint roomid) public {... */\n      pop\n      jump\t// out\n        /* \"RoomShare.sol\":264:286  uint public rentId = 0 */\n    tag_51:\n      sload(0x01)\n      dup2\n      jump\t// out\n        /* \"RoomShare.sol\":1439:1841  function checkRented(uint rid, uint checkInDate, uint checkOutDate) external view returns (uint) {... */\n    tag_57:\n        /* \"RoomShare.sol\":1530:1534  uint */\n      0x00\n        /* \"RoomShare.sol\":1543:1551  uint idx */\n      dup1\n        /* \"RoomShare.sol\":1554:1565  checkInDate */\n      dup4\n        /* \"RoomShare.sol\":1543:1565  uint idx = checkInDate */\n      swap1\n      pop\n        /* \"RoomShare.sol\":1571:1587  Room memory room */\n      0x00\n        /* \"RoomShare.sol\":1590:1601  roomId2room */\n      0x02\n        /* \"RoomShare.sol\":1590:1606  roomId2room[rid] */\n      0x00\n        /* \"RoomShare.sol\":1602:1605  rid */\n      dup8\n        /* \"RoomShare.sol\":1590:1606  roomId2room[rid] */\n      dup2\n      mstore\n      0x20\n      add\n      swap1\n      dup2\n      mstore\n      0x20\n      add\n      0x00\n      keccak256\n        /* \"RoomShare.sol\":1571:1606  Room memory room = roomId2room[rid] */\n      mload(0x40)\n      dup1\n      0xe0\n      add\n      0x40\n      mstore\n      swap1\n      dup2\n      0x00\n      dup3\n      add\n      sload\n      dup2\n      mstore\n      0x20\n      add\n      0x01\n      dup3\n      add\n      dup1\n      sload\n      tag_161\n      swap1\n      tag_162\n      jump\t// in\n    tag_161:\n      dup1\n      0x1f\n      add\n      0x20\n      dup1\n      swap2\n      div\n      mul\n      0x20\n      add\n      mload(0x40)\n      swap1\n      dup2\n      add\n      0x40\n      mstore\n      dup1\n      swap3\n      swap2\n      swap1\n      dup2\n      dup2\n      mstore\n      0x20\n      add\n      dup3\n      dup1\n      sload\n      tag_163\n      swap1\n      tag_162\n      jump\t// in\n    tag_163:\n      dup1\n      iszero\n      tag_164\n      jumpi\n      dup1\n      0x1f\n      lt\n      tag_165\n      jumpi\n      0x0100\n      dup1\n      dup4\n      sload\n      div\n      mul\n      dup4\n      mstore\n      swap2\n      0x20\n      add\n      swap2\n      jump(tag_164)\n    tag_165:\n      dup3\n      add\n      swap2\n      swap1\n      0x00\n      mstore\n      keccak256(0x00, 0x20)\n      swap1\n    tag_166:\n      dup2\n      sload\n      dup2\n      mstore\n      swap1\n      0x01\n      add\n      swap1\n      0x20\n      add\n      dup1\n      dup4\n      gt\n      tag_166\n      jumpi\n      dup3\n      swap1\n      sub\n      0x1f\n      and\n      dup3\n      add\n      swap2\n    tag_164:\n      pop\n      pop\n      pop\n      pop\n      pop\n      dup2\n      mstore\n      0x20\n      add\n      0x02\n      dup3\n      add\n      dup1\n      sload\n      tag_167\n      swap1\n      tag_162\n      jump\t// in\n    tag_167:\n      dup1\n      0x1f\n      add\n      0x20\n      dup1\n      swap2\n      div\n      mul\n      0x20\n      add\n      mload(0x40)\n      swap1\n      dup2\n      add\n      0x40\n      mstore\n      dup1\n      swap3\n      swap2\n      swap1\n      dup2\n      dup2\n      mstore\n      0x20\n      add\n      dup3\n      dup1\n      sload\n      tag_168\n      swap1\n      tag_162\n      jump\t// in\n    tag_168:\n      dup1\n      iszero\n      tag_169\n      jumpi\n      dup1\n      0x1f\n      lt\n      tag_170\n      jumpi\n      0x0100\n      dup1\n      dup4\n      sload\n      div\n      mul\n      dup4\n      mstore\n      swap2\n      0x20\n      add\n      swap2\n      jump(tag_169)\n    tag_170:\n      dup3\n      add\n      swap2\n      swap1\n      0x00\n      mstore\n      keccak256(0x00, 0x20)\n      swap1\n    tag_171:\n      dup2\n      sload\n      dup2\n      mstore\n      swap1\n      0x01\n      add\n      swap1\n      0x20\n      add\n      dup1\n      dup4\n      gt\n      tag_171\n      jumpi\n      dup3\n      swap1\n      sub\n      0x1f\n      and\n      dup3\n      add\n      swap2\n    tag_169:\n      pop\n      pop\n      pop\n      pop\n      pop\n      dup2\n      mstore\n      0x20\n      add\n      0x03\n      dup3\n      add\n      0x00\n      swap1\n      sload\n      swap1\n      0x0100\n      exp\n      swap1\n      div\n      0xff\n      and\n      iszero\n      iszero\n      iszero\n      iszero\n      dup2\n      mstore\n      0x20\n      add\n      0x04\n      dup3\n      add\n      sload\n      dup2\n      mstore\n      0x20\n      add\n      0x05\n      dup3\n      add\n      0x00\n      swap1\n      sload\n      swap1\n      0x0100\n      exp\n      swap1\n      div\n      0xffffffffffffffffffffffffffffffffffffffff\n      and\n      0xffffffffffffffffffffffffffffffffffffffff\n      and\n      0xffffffffffffffffffffffffffffffffffffffff\n      and\n      dup2\n      mstore\n      0x20\n      add\n      0x06\n      dup3\n      add\n      dup1\n      sload\n      dup1\n      0x20\n      mul\n      0x20\n      add\n      mload(0x40)\n      swap1\n      dup2\n      add\n      0x40\n      mstore\n      dup1\n      swap3\n      swap2\n      swap1\n      dup2\n      dup2\n      mstore\n      0x20\n      add\n      dup3\n      dup1\n      sload\n      dup1\n      iszero\n      tag_172\n      jumpi\n      0x20\n      mul\n      dup3\n      add\n      swap2\n      swap1\n      0x00\n      mstore\n      keccak256(0x00, 0x20)\n      swap1\n      0x00\n      swap1\n    tag_173:\n      dup3\n      dup3\n      swap1\n      sload\n      swap1\n      0x0100\n      exp\n      swap1\n      div\n      0xff\n      and\n      iszero\n      iszero\n      dup2\n      mstore\n      0x20\n      add\n      swap1\n      0x01\n      add\n      swap1\n      0x20\n      dup3\n      0x00\n      add\n      div\n      swap3\n      dup4\n      add\n      swap3\n      0x01\n      sub\n      dup3\n      mul\n      swap2\n      pop\n      dup1\n      dup5\n      gt\n      tag_173\n      jumpi\n      swap1\n      pop\n    tag_172:\n      pop\n      pop\n      pop\n      pop\n      pop\n      dup2\n      mstore\n      pop\n      pop\n      swap1\n      pop\n        /* \"RoomShare.sol\":1612:1622  bool found */\n      0x00\n        /* \"RoomShare.sol\":1637:1772  while (idx < checkOutDate) {... */\n    tag_174:\n        /* \"RoomShare.sol\":1650:1662  checkOutDate */\n      dup5\n        /* \"RoomShare.sol\":1644:1647  idx */\n      dup4\n        /* \"RoomShare.sol\":1644:1662  idx < checkOutDate */\n      lt\n        /* \"RoomShare.sol\":1637:1772  while (idx < checkOutDate) {... */\n      iszero\n      tag_175\n      jumpi\n        /* \"RoomShare.sol\":1698:1702  true */\n      0x01\n        /* \"RoomShare.sol\":1676:1702  room.isRented[idx] == true */\n      iszero\n      iszero\n        /* \"RoomShare.sol\":1676:1680  room */\n      dup3\n        /* \"RoomShare.sol\":1676:1689  room.isRented */\n      0xc0\n      add\n      mload\n        /* \"RoomShare.sol\":1690:1693  idx */\n      dup5\n        /* \"RoomShare.sol\":1676:1694  room.isRented[idx] */\n      dup2\n      mload\n      dup2\n      lt\n      tag_176\n      jumpi\n      tag_177\n      tag_105\n      jump\t// in\n    tag_177:\n    tag_176:\n      0x20\n      mul\n      0x20\n      add\n      add\n      mload\n        /* \"RoomShare.sol\":1676:1702  room.isRented[idx] == true */\n      iszero\n      iszero\n      eq\n        /* \"RoomShare.sol\":1672:1750  if (room.isRented[idx] == true) {... */\n      iszero\n      tag_178\n      jumpi\n        /* \"RoomShare.sol\":1722:1726  true */\n      0x01\n        /* \"RoomShare.sol\":1714:1726  found = true */\n      swap1\n      pop\n        /* \"RoomShare.sol\":1736:1741  break */\n      jump(tag_175)\n        /* \"RoomShare.sol\":1672:1750  if (room.isRented[idx] == true) {... */\n    tag_178:\n        /* \"RoomShare.sol\":1764:1765  1 */\n      0x01\n        /* \"RoomShare.sol\":1757:1765  idx += 1 */\n      dup4\n      tag_179\n      swap2\n      swap1\n      tag_110\n      jump\t// in\n    tag_179:\n      swap3\n      pop\n        /* \"RoomShare.sol\":1637:1772  while (idx < checkOutDate) {... */\n      jump(tag_174)\n    tag_175:\n        /* \"RoomShare.sol\":1791:1795  true */\n      0x01\n        /* \"RoomShare.sol\":1782:1795  found == true */\n      iszero\n      iszero\n        /* \"RoomShare.sol\":1782:1787  found */\n      dup2\n        /* \"RoomShare.sol\":1782:1795  found == true */\n      iszero\n      iszero\n      eq\n        /* \"RoomShare.sol\":1778:1836  if (found == true)... */\n      iszero\n      tag_180\n      jumpi\n        /* \"RoomShare.sol\":1810:1811  1 */\n      0x01\n        /* \"RoomShare.sol\":1803:1811  return 1 */\n      swap4\n      pop\n      pop\n      pop\n      pop\n      jump(tag_160)\n        /* \"RoomShare.sol\":1778:1836  if (found == true)... */\n    tag_180:\n        /* \"RoomShare.sol\":1835:1836  0 */\n      0x00\n        /* \"RoomShare.sol\":1828:1836  return 0 */\n      swap4\n      pop\n      pop\n      pop\n      pop\n        /* \"RoomShare.sol\":1439:1841  function checkRented(uint rid, uint checkInDate, uint checkOutDate) external view returns (uint) {... */\n    tag_160:\n      swap4\n      swap3\n      pop\n      pop\n      pop\n      jump\t// out\n        /* \"RoomShare.sol\":1845:2383  function shareRoom( string calldata name, ... */\n    tag_63:\n        /* \"RoomShare.sol\":2229:2245  Room memory room */\n      0x00\n        /* \"RoomShare.sol\":2248:2318  Room(roomId, name, location, true, price, msg.sender, new bool[](365)) */\n      mload(0x40)\n      dup1\n      0xe0\n      add\n      0x40\n      mstore\n      dup1\n        /* \"RoomShare.sol\":2253:2259  roomId */\n      sload(0x00)\n        /* \"RoomShare.sol\":2248:2318  Room(roomId, name, location, true, price, msg.sender, new bool[](365)) */\n      dup2\n      mstore\n      0x20\n      add\n        /* \"RoomShare.sol\":2261:2265  name */\n      dup8\n      dup8\n        /* \"RoomShare.sol\":2248:2318  Room(roomId, name, location, true, price, msg.sender, new bool[](365)) */\n      dup1\n      dup1\n      0x1f\n      add\n      0x20\n      dup1\n      swap2\n      div\n      mul\n      0x20\n      add\n      mload(0x40)\n      swap1\n      dup2\n      add\n      0x40\n      mstore\n      dup1\n      swap4\n      swap3\n      swap2\n      swap1\n      dup2\n      dup2\n      mstore\n      0x20\n      add\n      dup4\n      dup4\n      dup1\n      dup3\n      dup5\n      calldatacopy\n      0x00\n      dup2\n      dup5\n      add\n      mstore\n      not(0x1f)\n      0x1f\n      dup3\n      add\n      and\n      swap1\n      pop\n      dup1\n      dup4\n      add\n      swap3\n      pop\n      pop\n      pop\n      pop\n      pop\n      pop\n      pop\n      dup2\n      mstore\n      0x20\n      add\n        /* \"RoomShare.sol\":2267:2275  location */\n      dup6\n      dup6\n        /* \"RoomShare.sol\":2248:2318  Room(roomId, name, location, true, price, msg.sender, new bool[](365)) */\n      dup1\n      dup1\n      0x1f\n      add\n      0x20\n      dup1\n      swap2\n      div\n      mul\n      0x20\n      add\n      mload(0x40)\n      swap1\n      dup2\n      add\n      0x40\n      mstore\n      dup1\n      swap4\n      swap3\n      swap2\n      swap1\n      dup2\n      dup2\n      mstore\n      0x20\n      add\n      dup4\n      dup4\n      dup1\n      dup3\n      dup5\n      calldatacopy\n      0x00\n      dup2\n      dup5\n      add\n      mstore\n      not(0x1f)\n      0x1f\n      dup3\n      add\n      and\n      swap1\n      pop\n      dup1\n      dup4\n      add\n      swap3\n      pop\n      pop\n      pop\n      pop\n      pop\n      pop\n      pop\n      dup2\n      mstore\n      0x20\n      add\n        /* \"RoomShare.sol\":2277:2281  true */\n      0x01\n        /* \"RoomShare.sol\":2248:2318  Room(roomId, name, location, true, price, msg.sender, new bool[](365)) */\n      iszero\n      iszero\n      dup2\n      mstore\n      0x20\n      add\n        /* \"RoomShare.sol\":2283:2288  price */\n      dup4\n        /* \"RoomShare.sol\":2248:2318  Room(roomId, name, location, true, price, msg.sender, new bool[](365)) */\n      dup2\n      mstore\n      0x20\n      add\n        /* \"RoomShare.sol\":2290:2300  msg.sender */\n      caller\n        /* \"RoomShare.sol\":2248:2318  Room(roomId, name, location, true, price, msg.sender, new bool[](365)) */\n      0xffffffffffffffffffffffffffffffffffffffff\n      and\n      dup2\n      mstore\n      0x20\n      add\n        /* \"RoomShare.sol\":2313:2316  365 */\n      0x016d\n        /* \"RoomShare.sol\":2302:2317  new bool[](365) */\n      0xffffffffffffffff\n      dup2\n      gt\n      iszero\n      tag_183\n      jumpi\n      tag_184\n      tag_185\n      jump\t// in\n    tag_184:\n    tag_183:\n      mload(0x40)\n      swap1\n      dup1\n      dup3\n      mstore\n      dup1\n      0x20\n      mul\n      0x20\n      add\n      dup3\n      add\n      0x40\n      mstore\n      dup1\n      iszero\n      tag_186\n      jumpi\n      dup2\n      0x20\n      add\n      0x20\n      dup3\n      mul\n      dup1\n      calldatasize\n      dup4\n      calldatacopy\n      dup1\n      dup3\n      add\n      swap2\n      pop\n      pop\n      swap1\n      pop\n    tag_186:\n      pop\n        /* \"RoomShare.sol\":2248:2318  Room(roomId, name, location, true, price, msg.sender, new bool[](365)) */\n      dup2\n      mstore\n      pop\n        /* \"RoomShare.sol\":2229:2318  Room memory room = Room(roomId, name, location, true, price, msg.sender, new bool[](365)) */\n      swap1\n      pop\n        /* \"RoomShare.sol\":2346:2350  room */\n      dup1\n        /* \"RoomShare.sol\":2324:2335  roomId2room */\n      0x02\n        /* \"RoomShare.sol\":2324:2343  roomId2room[roomId] */\n      0x00\n        /* \"RoomShare.sol\":2336:2342  roomId */\n      dup1\n      sload\n        /* \"RoomShare.sol\":2324:2343  roomId2room[roomId] */\n      dup2\n      mstore\n      0x20\n      add\n      swap1\n      dup2\n      mstore\n      0x20\n      add\n      0x00\n      keccak256\n        /* \"RoomShare.sol\":2324:2350  roomId2room[roomId] = room */\n      0x00\n      dup3\n      add\n      mload\n      dup2\n      0x00\n      add\n      sstore\n      0x20\n      dup3\n      add\n      mload\n      dup2\n      0x01\n      add\n      swap1\n      dup1\n      mload\n      swap1\n      0x20\n      add\n      swap1\n      tag_187\n      swap3\n      swap2\n      swap1\n      tag_188\n      jump\t// in\n    tag_187:\n      pop\n      0x40\n      dup3\n      add\n      mload\n      dup2\n      0x02\n      add\n      swap1\n      dup1\n      mload\n      swap1\n      0x20\n      add\n      swap1\n      tag_189\n      swap3\n      swap2\n      swap1\n      tag_188\n      jump\t// in\n    tag_189:\n      pop\n      0x60\n      dup3\n      add\n      mload\n      dup2\n      0x03\n      add\n      exp(0x0100, 0x00)\n      dup2\n      sload\n      dup2\n      0xff\n      mul\n      not\n      and\n      swap1\n      dup4\n      iszero\n      iszero\n      mul\n      or\n      swap1\n      sstore\n      pop\n      0x80\n      dup3\n      add\n      mload\n      dup2\n      0x04\n      add\n      sstore\n      0xa0\n      dup3\n      add\n      mload\n      dup2\n      0x05\n      add\n      exp(0x0100, 0x00)\n      dup2\n      sload\n      dup2\n      0xffffffffffffffffffffffffffffffffffffffff\n      mul\n      not\n      and\n      swap1\n      dup4\n      0xffffffffffffffffffffffffffffffffffffffff\n      and\n      mul\n      or\n      swap1\n      sstore\n      pop\n      0xc0\n      dup3\n      add\n      mload\n      dup2\n      0x06\n      add\n      swap1\n      dup1\n      mload\n      swap1\n      0x20\n      add\n      swap1\n      tag_190\n      swap3\n      swap2\n      swap1\n      tag_191\n      jump\t// in\n    tag_190:\n      pop\n      swap1\n      pop\n      pop\n        /* \"RoomShare.sol\":2369:2375  roomId */\n      0x00\n      dup1\n        /* \"RoomShare.sol\":2369:2377  roomId++ */\n      dup2\n      sload\n      dup1\n      swap3\n      swap2\n      swap1\n      tag_192\n      swap1\n      tag_131\n      jump\t// in\n    tag_192:\n      swap2\n      swap1\n      pop\n      sstore\n        /* \"RoomShare.sol\":2361:2378  NewRoom(roomId++) */\n      0xe3dfa06732e0549f98a5f6d34268fbb7da76b458e78c8ea5b1d7029396cc2164\n      mload(0x40)\n      mload(0x40)\n      dup1\n      swap2\n      sub\n      swap1\n      log2\n        /* \"RoomShare.sol\":1981:2383  {... */\n      pop\n        /* \"RoomShare.sol\":1845:2383  function shareRoom( string calldata name, ... */\n      pop\n      pop\n      pop\n      pop\n      pop\n      jump\t// out\n        /* \"RoomShare.sol\":854:1057  function getMyRents() external view returns(Rent[] memory) {... */\n    tag_66:\n        /* \"RoomShare.sol\":898:911  Rent[] memory */\n      0x60\n        /* \"RoomShare.sol\":992:1004  address user */\n      0x00\n        /* \"RoomShare.sol\":1007:1017  msg.sender */\n      caller\n        /* \"RoomShare.sol\":992:1017  address user = msg.sender */\n      swap1\n      pop\n        /* \"RoomShare.sol\":1035:1046  renter2rent */\n      0x03\n        /* \"RoomShare.sol\":1035:1052  renter2rent[user] */\n      0x00\n        /* \"RoomShare.sol\":1047:1051  user */\n      dup3\n        /* \"RoomShare.sol\":1035:1052  renter2rent[user] */\n      0xffffffffffffffffffffffffffffffffffffffff\n      and\n      0xffffffffffffffffffffffffffffffffffffffff\n      and\n      dup2\n      mstore\n      0x20\n      add\n      swap1\n      dup2\n      mstore\n      0x20\n      add\n      0x00\n      keccak256\n        /* \"RoomShare.sol\":1028:1052  return renter2rent[user] */\n      dup1\n      sload\n      dup1\n      0x20\n      mul\n      0x20\n      add\n      mload(0x40)\n      swap1\n      dup2\n      add\n      0x40\n      mstore\n      dup1\n      swap3\n      swap2\n      swap1\n      dup2\n      dup2\n      mstore\n      0x20\n      add\n      0x00\n      swap1\n    tag_194:\n      dup3\n      dup3\n      lt\n      iszero\n      tag_195\n      jumpi\n      dup4\n      dup3\n      swap1\n      0x00\n      mstore\n      keccak256(0x00, 0x20)\n      swap1\n      0x06\n      mul\n      add\n      mload(0x40)\n      dup1\n      0xc0\n      add\n      0x40\n      mstore\n      swap1\n      dup2\n      0x00\n      dup3\n      add\n      sload\n      dup2\n      mstore\n      0x20\n      add\n      0x01\n      dup3\n      add\n      sload\n      dup2\n      mstore\n      0x20\n      add\n      0x02\n      dup3\n      add\n      sload\n      dup2\n      mstore\n      0x20\n      add\n      0x03\n      dup3\n      add\n      sload\n      dup2\n      mstore\n      0x20\n      add\n      0x04\n      dup3\n      add\n      sload\n      dup2\n      mstore\n      0x20\n      add\n      0x05\n      dup3\n      add\n      0x00\n      swap1\n      sload\n      swap1\n      0x0100\n      exp\n      swap1\n      div\n      0xffffffffffffffffffffffffffffffffffffffff\n      and\n      0xffffffffffffffffffffffffffffffffffffffff\n      and\n      0xffffffffffffffffffffffffffffffffffffffff\n      and\n      dup2\n      mstore\n      pop\n      pop\n      dup2\n      mstore\n      0x20\n      add\n      swap1\n      0x01\n      add\n      swap1\n      jump(tag_194)\n    tag_195:\n      pop\n      pop\n      pop\n      pop\n      swap2\n      pop\n      pop\n        /* \"RoomShare.sol\":854:1057  function getMyRents() external view returns(Rent[] memory) {... */\n      swap1\n      jump\t// out\n        /* \"RoomShare.sol\":1061:1239  function getRoomRentHistory(uint _roomId) external view returns(Rent[] memory) {... */\n    tag_72:\n        /* \"RoomShare.sol\":1125:1138  Rent[] memory */\n      0x60\n        /* \"RoomShare.sol\":1214:1225  roomId2rent */\n      0x04\n        /* \"RoomShare.sol\":1214:1234  roomId2rent[_roomId] */\n      0x00\n        /* \"RoomShare.sol\":1226:1233  _roomId */\n      dup4\n        /* \"RoomShare.sol\":1214:1234  roomId2rent[_roomId] */\n      dup2\n      mstore\n      0x20\n      add\n      swap1\n      dup2\n      mstore\n      0x20\n      add\n      0x00\n      keccak256\n        /* \"RoomShare.sol\":1207:1234  return roomId2rent[_roomId] */\n      dup1\n      sload\n      dup1\n      0x20\n      mul\n      0x20\n      add\n      mload(0x40)\n      swap1\n      dup2\n      add\n      0x40\n      mstore\n      dup1\n      swap3\n      swap2\n      swap1\n      dup2\n      dup2\n      mstore\n      0x20\n      add\n      0x00\n      swap1\n    tag_198:\n      dup3\n      dup3\n      lt\n      iszero\n      tag_199\n      jumpi\n      dup4\n      dup3\n      swap1\n      0x00\n      mstore\n      keccak256(0x00, 0x20)\n      swap1\n      0x06\n      mul\n      add\n      mload(0x40)\n      dup1\n      0xc0\n      add\n      0x40\n      mstore\n      swap1\n      dup2\n      0x00\n      dup3\n      add\n      sload\n      dup2\n      mstore\n      0x20\n      add\n      0x01\n      dup3\n      add\n      sload\n      dup2\n      mstore\n      0x20\n      add\n      0x02\n      dup3\n      add\n      sload\n      dup2\n      mstore\n      0x20\n      add\n      0x03\n      dup3\n      add\n      sload\n      dup2\n      mstore\n      0x20\n      add\n      0x04\n      dup3\n      add\n      sload\n      dup2\n      mstore\n      0x20\n      add\n      0x05\n      dup3\n      add\n      0x00\n      swap1\n      sload\n      swap1\n      0x0100\n      exp\n      swap1\n      div\n      0xffffffffffffffffffffffffffffffffffffffff\n      and\n      0xffffffffffffffffffffffffffffffffffffffff\n      and\n      0xffffffffffffffffffffffffffffffffffffffff\n      and\n      dup2\n      mstore\n      pop\n      pop\n      dup2\n      mstore\n      0x20\n      add\n      swap1\n      0x01\n      add\n      swap1\n      jump(tag_198)\n    tag_199:\n      pop\n      pop\n      pop\n      pop\n      swap1\n      pop\n        /* \"RoomShare.sol\":1061:1239  function getRoomRentHistory(uint _roomId) external view returns(Rent[] memory) {... */\n      swap2\n      swap1\n      pop\n      jump\t// out\n        /* \"RoomShare.sol\":2387:3804  function rentRoom(uint _roomId, uint year, uint checkInDate, uint checkOutDate) payable external {... */\n    tag_77:\n        /* \"RoomShare.sol\":3176:3193  Room storage room */\n      0x00\n        /* \"RoomShare.sol\":3196:3207  roomId2room */\n      0x02\n        /* \"RoomShare.sol\":3196:3216  roomId2room[_roomId] */\n      0x00\n        /* \"RoomShare.sol\":3208:3215  _roomId */\n      dup7\n        /* \"RoomShare.sol\":3196:3216  roomId2room[_roomId] */\n      dup2\n      mstore\n      0x20\n      add\n      swap1\n      dup2\n      mstore\n      0x20\n      add\n      0x00\n      keccak256\n        /* \"RoomShare.sol\":3176:3216  Room storage room = roomId2room[_roomId] */\n      swap1\n      pop\n        /* \"RoomShare.sol\":3247:3251  true */\n      0x01\n        /* \"RoomShare.sol\":3230:3251  room.isActive == true */\n      iszero\n      iszero\n        /* \"RoomShare.sol\":3230:3234  room */\n      dup2\n        /* \"RoomShare.sol\":3230:3243  room.isActive */\n      0x03\n      add\n      0x00\n      swap1\n      sload\n      swap1\n      0x0100\n      exp\n      swap1\n      div\n      0xff\n      and\n        /* \"RoomShare.sol\":3230:3251  room.isActive == true */\n      iszero\n      iszero\n      eq\n        /* \"RoomShare.sol\":3222:3272  require(room.isActive == true, \"shoule be active\") */\n      tag_202\n      jumpi\n      mload(0x40)\n      0x08c379a000000000000000000000000000000000000000000000000000000000\n      dup2\n      mstore\n      0x04\n      add\n      tag_203\n      swap1\n      tag_204\n      jump\t// in\n    tag_203:\n      mload(0x40)\n      dup1\n      swap2\n      sub\n      swap1\n      revert\n    tag_202:\n        /* \"RoomShare.sol\":3284:3293  uint from */\n      0x00\n        /* \"RoomShare.sol\":3296:3307  checkInDate */\n      dup4\n        /* \"RoomShare.sol\":3284:3307  uint from = checkInDate */\n      swap1\n      pop\n        /* \"RoomShare.sol\":3313:3320  uint to */\n      0x00\n        /* \"RoomShare.sol\":3323:3335  checkOutDate */\n      dup4\n        /* \"RoomShare.sol\":3313:3335  uint to = checkOutDate */\n      swap1\n      pop\n        /* \"RoomShare.sol\":3341:3354  uint duration */\n      0x00\n        /* \"RoomShare.sol\":3364:3501  while (from < to) { // b... */\n    tag_205:\n        /* \"RoomShare.sol\":3378:3380  to */\n      dup2\n        /* \"RoomShare.sol\":3371:3375  from */\n      dup4\n        /* \"RoomShare.sol\":3371:3380  from < to */\n      lt\n        /* \"RoomShare.sol\":3364:3501  while (from < to) { // b... */\n      iszero\n      tag_206\n      jumpi\n        /* \"RoomShare.sol\":3395:3406  bool rented */\n      0x00\n        /* \"RoomShare.sol\":3409:3413  room */\n      dup5\n        /* \"RoomShare.sol\":3409:3422  room.isRented */\n      0x06\n      add\n        /* \"RoomShare.sol\":3423:3427  from */\n      dup5\n        /* \"RoomShare.sol\":3409:3428  room.isRented[from] */\n      dup2\n      sload\n      dup2\n      lt\n      tag_207\n      jumpi\n      tag_208\n      tag_105\n      jump\t// in\n    tag_208:\n    tag_207:\n      swap1\n      0x00\n      mstore\n      keccak256(0x00, 0x20)\n      swap1\n      0x20\n      swap2\n      dup3\n      dup3\n      div\n      add\n      swap2\n      swap1\n      mod\n      swap1\n      sload\n      swap1\n      0x0100\n      exp\n      swap1\n      div\n      0xff\n      and\n        /* \"RoomShare.sol\":3395:3428  bool rented = room.isRented[from] */\n      swap1\n      pop\n        /* \"RoomShare.sol\":3454:3459  false */\n      0x00\n        /* \"RoomShare.sol\":3444:3459  rented == false */\n      iszero\n      iszero\n        /* \"RoomShare.sol\":3444:3450  rented */\n      dup2\n        /* \"RoomShare.sol\":3444:3459  rented == false */\n      iszero\n      iszero\n      eq\n        /* \"RoomShare.sol\":3436:3477  require(rented == false,\"already rented\") */\n      tag_210\n      jumpi\n      mload(0x40)\n      0x08c379a000000000000000000000000000000000000000000000000000000000\n      dup2\n      mstore\n      0x04\n      add\n      tag_211\n      swap1\n      tag_212\n      jump\t// in\n    tag_211:\n      mload(0x40)\n      dup1\n      swap2\n      sub\n      swap1\n      revert\n    tag_210:\n        /* \"RoomShare.sol\":3493:3494  1 */\n      0x01\n        /* \"RoomShare.sol\":3485:3494  from += 1 */\n      dup5\n      tag_213\n      swap2\n      swap1\n      tag_110\n      jump\t// in\n    tag_213:\n      swap4\n      pop\n        /* \"RoomShare.sol\":3382:3501  { // b... */\n      pop\n        /* \"RoomShare.sol\":3364:3501  while (from < to) { // b... */\n      jump(tag_205)\n    tag_206:\n        /* \"RoomShare.sol\":3583:3594  checkInDate */\n      dup6\n        /* \"RoomShare.sol\":3568:3580  checkOutDate */\n      dup6\n        /* \"RoomShare.sol\":3568:3594  checkOutDate - checkInDate */\n      tag_214\n      swap2\n      swap1\n      tag_215\n      jump\t// in\n    tag_214:\n        /* \"RoomShare.sol\":3557:3594  duration = checkOutDate - checkInDate */\n      swap1\n      pop\n        /* \"RoomShare.sol\":3668:3676  10 ** 15 */\n      0x038d7ea4c68000\n        /* \"RoomShare.sol\":3655:3659  room */\n      dup5\n        /* \"RoomShare.sol\":3655:3665  room.price */\n      0x04\n      add\n      sload\n        /* \"RoomShare.sol\":3644:3652  duration */\n      dup3\n        /* \"RoomShare.sol\":3644:3665  duration * room.price */\n      tag_216\n      swap2\n      swap1\n      tag_217\n      jump\t// in\n    tag_216:\n        /* \"RoomShare.sol\":3644:3676  duration * room.price * 10 ** 15 */\n      tag_218\n      swap2\n      swap1\n      tag_217\n      jump\t// in\n    tag_218:\n        /* \"RoomShare.sol\":3630:3639  msg.value */\n      callvalue\n        /* \"RoomShare.sol\":3630:3677  msg.value == (duration * room.price * 10 ** 15) */\n      eq\n        /* \"RoomShare.sol\":3622:3695  require(msg.value == (duration * room.price * 10 ** 15), \"invalid price\") */\n      tag_219\n      jumpi\n      mload(0x40)\n      0x08c379a000000000000000000000000000000000000000000000000000000000\n      dup2\n      mstore\n      0x04\n      add\n      tag_220\n      swap1\n      tag_221\n      jump\t// in\n    tag_220:\n      mload(0x40)\n      dup1\n      swap2\n      sub\n      swap1\n      revert\n    tag_219:\n        /* \"RoomShare.sol\":3707:3760  _createRent(_roomId, year, checkInDate, checkOutDate) */\n      tag_222\n        /* \"RoomShare.sol\":3719:3726  _roomId */\n      dup9\n        /* \"RoomShare.sol\":3728:3732  year */\n      dup9\n        /* \"RoomShare.sol\":3734:3745  checkInDate */\n      dup9\n        /* \"RoomShare.sol\":3747:3759  checkOutDate */\n      dup9\n        /* \"RoomShare.sol\":3707:3718  _createRent */\n      tag_223\n        /* \"RoomShare.sol\":3707:3760  _createRent(_roomId, year, checkInDate, checkOutDate) */\n      jump\t// in\n    tag_222:\n        /* \"RoomShare.sol\":3766:3799  _sendFunds(room.owner, msg.value) */\n      tag_224\n        /* \"RoomShare.sol\":3777:3781  room */\n      dup5\n        /* \"RoomShare.sol\":3777:3787  room.owner */\n      0x05\n      add\n      0x00\n      swap1\n      sload\n      swap1\n      0x0100\n      exp\n      swap1\n      div\n      0xffffffffffffffffffffffffffffffffffffffff\n      and\n        /* \"RoomShare.sol\":3789:3798  msg.value */\n      callvalue\n        /* \"RoomShare.sol\":3766:3776  _sendFunds */\n      tag_225\n        /* \"RoomShare.sol\":3766:3799  _sendFunds(room.owner, msg.value) */\n      jump\t// in\n    tag_224:\n        /* \"RoomShare.sol\":2484:3804  {... */\n      pop\n      pop\n      pop\n      pop\n        /* \"RoomShare.sol\":2387:3804  function rentRoom(uint _roomId, uint year, uint checkInDate, uint checkOutDate) payable external {... */\n      pop\n      pop\n      pop\n      pop\n      jump\t// out\n        /* \"RoomShare.sol\":685:725  mapping(uint => Room) public roomId2room */\n    tag_81:\n      mstore(0x20, 0x02)\n      dup1\n      0x00\n      mstore\n      keccak256(0x00, 0x40)\n      0x00\n      swap2\n      pop\n      swap1\n      pop\n      dup1\n      0x00\n      add\n      sload\n      swap1\n      dup1\n      0x01\n      add\n      dup1\n      sload\n      tag_226\n      swap1\n      tag_162\n      jump\t// in\n    tag_226:\n      dup1\n      0x1f\n      add\n      0x20\n      dup1\n      swap2\n      div\n      mul\n      0x20\n      add\n      mload(0x40)\n      swap1\n      dup2\n      add\n      0x40\n      mstore\n      dup1\n      swap3\n      swap2\n      swap1\n      dup2\n      dup2\n      mstore\n      0x20\n      add\n      dup3\n      dup1\n      sload\n      tag_227\n      swap1\n      tag_162\n      jump\t// in\n    tag_227:\n      dup1\n      iszero\n      tag_228\n      jumpi\n      dup1\n      0x1f\n      lt\n      tag_229\n      jumpi\n      0x0100\n      dup1\n      dup4\n      sload\n      div\n      mul\n      dup4\n      mstore\n      swap2\n      0x20\n      add\n      swap2\n      jump(tag_228)\n    tag_229:\n      dup3\n      add\n      swap2\n      swap1\n      0x00\n      mstore\n      keccak256(0x00, 0x20)\n      swap1\n    tag_230:\n      dup2\n      sload\n      dup2\n      mstore\n      swap1\n      0x01\n      add\n      swap1\n      0x20\n      add\n      dup1\n      dup4\n      gt\n      tag_230\n      jumpi\n      dup3\n      swap1\n      sub\n      0x1f\n      and\n      dup3\n      add\n      swap2\n    tag_228:\n      pop\n      pop\n      pop\n      pop\n      pop\n      swap1\n      dup1\n      0x02\n      add\n      dup1\n      sload\n      tag_231\n      swap1\n      tag_162\n      jump\t// in\n    tag_231:\n      dup1\n      0x1f\n      add\n      0x20\n      dup1\n      swap2\n      div\n      mul\n      0x20\n      add\n      mload(0x40)\n      swap1\n      dup2\n      add\n      0x40\n      mstore\n      dup1\n      swap3\n      swap2\n      swap1\n      dup2\n      dup2\n      mstore\n      0x20\n      add\n      dup3\n      dup1\n      sload\n      tag_232\n      swap1\n      tag_162\n      jump\t// in\n    tag_232:\n      dup1\n      iszero\n      tag_233\n      jumpi\n      dup1\n      0x1f\n      lt\n      tag_234\n      jumpi\n      0x0100\n      dup1\n      dup4\n      sload\n      div\n      mul\n      dup4\n      mstore\n      swap2\n      0x20\n      add\n      swap2\n      jump(tag_233)\n    tag_234:\n      dup3\n      add\n      swap2\n      swap1\n      0x00\n      mstore\n      keccak256(0x00, 0x20)\n      swap1\n    tag_235:\n      dup2\n      sload\n      dup2\n      mstore\n      swap1\n      0x01\n      add\n      swap1\n      0x20\n      add\n      dup1\n      dup4\n      gt\n      tag_235\n      jumpi\n      dup3\n      swap1\n      sub\n      0x1f\n      and\n      dup3\n      add\n      swap2\n    tag_233:\n      pop\n      pop\n      pop\n      pop\n      pop\n      swap1\n      dup1\n      0x03\n      add\n      0x00\n      swap1\n      sload\n      swap1\n      0x0100\n      exp\n      swap1\n      div\n      0xff\n      and\n      swap1\n      dup1\n      0x04\n      add\n      sload\n      swap1\n      dup1\n      0x05\n      add\n      0x00\n      swap1\n      sload\n      swap1\n      0x0100\n      exp\n      swap1\n      div\n      0xffffffffffffffffffffffffffffffffffffffff\n      and\n      swap1\n      pop\n      dup7\n      jump\t// out\n        /* \"RoomShare.sol\":1243:1435  function getAllRooms() external view returns(Room[] memory) {... */\n    tag_86:\n        /* \"RoomShare.sol\":1288:1301  Room[] memory */\n      0x60\n        /* \"RoomShare.sol\":1310:1329  Room[] memory rooms */\n      dup1\n        /* \"RoomShare.sol\":1340:1349  uint256 i */\n      0x00\n        /* \"RoomShare.sol\":1335:1412  for (uint256 i = 0; i < roomId; i++) {... */\n    tag_237:\n        /* \"RoomShare.sol\":1359:1365  roomId */\n      sload(0x00)\n        /* \"RoomShare.sol\":1355:1356  i */\n      dup2\n        /* \"RoomShare.sol\":1355:1365  i < roomId */\n      lt\n        /* \"RoomShare.sol\":1335:1412  for (uint256 i = 0; i < roomId; i++) {... */\n      iszero\n      tag_238\n      jumpi\n        /* \"RoomShare.sol\":1391:1402  roomId2room */\n      0x02\n        /* \"RoomShare.sol\":1391:1405  roomId2room[i] */\n      0x00\n        /* \"RoomShare.sol\":1403:1404  i */\n      dup3\n        /* \"RoomShare.sol\":1391:1405  roomId2room[i] */\n      dup2\n      mstore\n      0x20\n      add\n      swap1\n      dup2\n      mstore\n      0x20\n      add\n      0x00\n      keccak256\n        /* \"RoomShare.sol\":1380:1405  rooms[i] = roomId2room[i] */\n      mload(0x40)\n      dup1\n      0xe0\n      add\n      0x40\n      mstore\n      swap1\n      dup2\n      0x00\n      dup3\n      add\n      sload\n      dup2\n      mstore\n      0x20\n      add\n      0x01\n      dup3\n      add\n      dup1\n      sload\n      tag_240\n      swap1\n      tag_162\n      jump\t// in\n    tag_240:\n      dup1\n      0x1f\n      add\n      0x20\n      dup1\n      swap2\n      div\n      mul\n      0x20\n      add\n      mload(0x40)\n      swap1\n      dup2\n      add\n      0x40\n      mstore\n      dup1\n      swap3\n      swap2\n      swap1\n      dup2\n      dup2\n      mstore\n      0x20\n      add\n      dup3\n      dup1\n      sload\n      tag_241\n      swap1\n      tag_162\n      jump\t// in\n    tag_241:\n      dup1\n      iszero\n      tag_242\n      jumpi\n      dup1\n      0x1f\n      lt\n      tag_243\n      jumpi\n      0x0100\n      dup1\n      dup4\n      sload\n      div\n      mul\n      dup4\n      mstore\n      swap2\n      0x20\n      add\n      swap2\n      jump(tag_242)\n    tag_243:\n      dup3\n      add\n      swap2\n      swap1\n      0x00\n      mstore\n      keccak256(0x00, 0x20)\n      swap1\n    tag_244:\n      dup2\n      sload\n      dup2\n      mstore\n      swap1\n      0x01\n      add\n      swap1\n      0x20\n      add\n      dup1\n      dup4\n      gt\n      tag_244\n      jumpi\n      dup3\n      swap1\n      sub\n      0x1f\n      and\n      dup3\n      add\n      swap2\n    tag_242:\n      pop\n      pop\n      pop\n      pop\n      pop\n      dup2\n      mstore\n      0x20\n      add\n      0x02\n      dup3\n      add\n      dup1\n      sload\n      tag_245\n      swap1\n      tag_162\n      jump\t// in\n    tag_245:\n      dup1\n      0x1f\n      add\n      0x20\n      dup1\n      swap2\n      div\n      mul\n      0x20\n      add\n      mload(0x40)\n      swap1\n      dup2\n      add\n      0x40\n      mstore\n      dup1\n      swap3\n      swap2\n      swap1\n      dup2\n      dup2\n      mstore\n      0x20\n      add\n      dup3\n      dup1\n      sload\n      tag_246\n      swap1\n      tag_162\n      jump\t// in\n    tag_246:\n      dup1\n      iszero\n      tag_247\n      jumpi\n      dup1\n      0x1f\n      lt\n      tag_248\n      jumpi\n      0x0100\n      dup1\n      dup4\n      sload\n      div\n      mul\n      dup4\n      mstore\n      swap2\n      0x20\n      add\n      swap2\n      jump(tag_247)\n    tag_248:\n      dup3\n      add\n      swap2\n      swap1\n      0x00\n      mstore\n      keccak256(0x00, 0x20)\n      swap1\n    tag_249:\n      dup2\n      sload\n      dup2\n      mstore\n      swap1\n      0x01\n      add\n      swap1\n      0x20\n      add\n      dup1\n      dup4\n      gt\n      tag_249\n      jumpi\n      dup3\n      swap1\n      sub\n      0x1f\n      and\n      dup3\n      add\n      swap2\n    tag_247:\n      pop\n      pop\n      pop\n      pop\n      pop\n      dup2\n      mstore\n      0x20\n      add\n      0x03\n      dup3\n      add\n      0x00\n      swap1\n      sload\n      swap1\n      0x0100\n      exp\n      swap1\n      div\n      0xff\n      and\n      iszero\n      iszero\n      iszero\n      iszero\n      dup2\n      mstore\n      0x20\n      add\n      0x04\n      dup3\n      add\n      sload\n      dup2\n      mstore\n      0x20\n      add\n      0x05\n      dup3\n      add\n      0x00\n      swap1\n      sload\n      swap1\n      0x0100\n      exp\n      swap1\n      div\n      0xffffffffffffffffffffffffffffffffffffffff\n      and\n      0xffffffffffffffffffffffffffffffffffffffff\n      and\n      0xffffffffffffffffffffffffffffffffffffffff\n      and\n      dup2\n      mstore\n      0x20\n      add\n      0x06\n      dup3\n      add\n      dup1\n      sload\n      dup1\n      0x20\n      mul\n      0x20\n      add\n      mload(0x40)\n      swap1\n      dup2\n      add\n      0x40\n      mstore\n      dup1\n      swap3\n      swap2\n      swap1\n      dup2\n      dup2\n      mstore\n      0x20\n      add\n      dup3\n      dup1\n      sload\n      dup1\n      iszero\n      tag_250\n      jumpi\n      0x20\n      mul\n      dup3\n      add\n      swap2\n      swap1\n      0x00\n      mstore\n      keccak256(0x00, 0x20)\n      swap1\n      0x00\n      swap1\n    tag_251:\n      dup3\n      dup3\n      swap1\n      sload\n      swap1\n      0x0100\n      exp\n      swap1\n      div\n      0xff\n      and\n      iszero\n      iszero\n      dup2\n      mstore\n      0x20\n      add\n      swap1\n      0x01\n      add\n      swap1\n      0x20\n      dup3\n      0x00\n      add\n      div\n      swap3\n      dup4\n      add\n      swap3\n      0x01\n      sub\n      dup3\n      mul\n      swap2\n      pop\n      dup1\n      dup5\n      gt\n      tag_251\n      jumpi\n      swap1\n      pop\n    tag_250:\n      pop\n      pop\n      pop\n      pop\n      pop\n      dup2\n      mstore\n      pop\n      pop\n        /* \"RoomShare.sol\":1380:1385  rooms */\n      dup3\n        /* \"RoomShare.sol\":1386:1387  i */\n      dup3\n        /* \"RoomShare.sol\":1380:1388  rooms[i] */\n      dup2\n      mload\n      dup2\n      lt\n      tag_252\n      jumpi\n      tag_253\n      tag_105\n      jump\t// in\n    tag_253:\n    tag_252:\n      0x20\n      mul\n      0x20\n      add\n      add\n        /* \"RoomShare.sol\":1380:1405  rooms[i] = roomId2room[i] */\n      dup2\n      swap1\n      mstore\n      pop\n        /* \"RoomShare.sol\":1367:1370  i++ */\n      dup1\n      dup1\n      tag_254\n      swap1\n      tag_131\n      jump\t// in\n    tag_254:\n      swap2\n      pop\n      pop\n        /* \"RoomShare.sol\":1335:1412  for (uint256 i = 0; i < roomId; i++) {... */\n      jump(tag_237)\n    tag_238:\n      pop\n        /* \"RoomShare.sol\":1425:1430  rooms */\n      dup1\n        /* \"RoomShare.sol\":1418:1430  return rooms */\n      swap2\n      pop\n      pop\n        /* \"RoomShare.sol\":1243:1435  function getAllRooms() external view returns(Room[] memory) {... */\n      swap1\n      jump\t// out\n        /* \"RoomShare.sol\":92:114  uint public roomId = 0 */\n    tag_91:\n      sload(0x00)\n      dup2\n      jump\t// out\n        /* \"RoomShare.sol\":3808:4750  function _createRent(uint256 _roomId, uint year, uint256 checkInDate, uint256 checkoutDate) internal {... */\n    tag_223:\n        /* \"RoomShare.sol\":4318:4334  Rent memory rent */\n      0x00\n        /* \"RoomShare.sol\":4337:4407  Rent(rentId, _roomId, year, checkInDate+1, checkoutDate+1, msg.sender) */\n      mload(0x40)\n      dup1\n      0xc0\n      add\n      0x40\n      mstore\n      dup1\n        /* \"RoomShare.sol\":4342:4348  rentId */\n      sload(0x01)\n        /* \"RoomShare.sol\":4337:4407  Rent(rentId, _roomId, year, checkInDate+1, checkoutDate+1, msg.sender) */\n      dup2\n      mstore\n      0x20\n      add\n        /* \"RoomShare.sol\":4350:4357  _roomId */\n      dup7\n        /* \"RoomShare.sol\":4337:4407  Rent(rentId, _roomId, year, checkInDate+1, checkoutDate+1, msg.sender) */\n      dup2\n      mstore\n      0x20\n      add\n        /* \"RoomShare.sol\":4359:4363  year */\n      dup6\n        /* \"RoomShare.sol\":4337:4407  Rent(rentId, _roomId, year, checkInDate+1, checkoutDate+1, msg.sender) */\n      dup2\n      mstore\n      0x20\n      add\n        /* \"RoomShare.sol\":4377:4378  1 */\n      0x01\n        /* \"RoomShare.sol\":4365:4376  checkInDate */\n      dup6\n        /* \"RoomShare.sol\":4365:4378  checkInDate+1 */\n      tag_256\n      swap2\n      swap1\n      tag_110\n      jump\t// in\n    tag_256:\n        /* \"RoomShare.sol\":4337:4407  Rent(rentId, _roomId, year, checkInDate+1, checkoutDate+1, msg.sender) */\n      dup2\n      mstore\n      0x20\n      add\n        /* \"RoomShare.sol\":4393:4394  1 */\n      0x01\n        /* \"RoomShare.sol\":4380:4392  checkoutDate */\n      dup5\n        /* \"RoomShare.sol\":4380:4394  checkoutDate+1 */\n      tag_257\n      swap2\n      swap1\n      tag_110\n      jump\t// in\n    tag_257:\n        /* \"RoomShare.sol\":4337:4407  Rent(rentId, _roomId, year, checkInDate+1, checkoutDate+1, msg.sender) */\n      dup2\n      mstore\n      0x20\n      add\n        /* \"RoomShare.sol\":4396:4406  msg.sender */\n      caller\n        /* \"RoomShare.sol\":4337:4407  Rent(rentId, _roomId, year, checkInDate+1, checkoutDate+1, msg.sender) */\n      0xffffffffffffffffffffffffffffffffffffffff\n      and\n      dup2\n      mstore\n      pop\n        /* \"RoomShare.sol\":4318:4407  Rent memory rent = Rent(rentId, _roomId, year, checkInDate+1, checkoutDate+1, msg.sender) */\n      swap1\n      pop\n        /* \"RoomShare.sol\":4413:4430  Room storage room */\n      0x00\n        /* \"RoomShare.sol\":4433:4444  roomId2room */\n      0x02\n        /* \"RoomShare.sol\":4433:4453  roomId2room[_roomId] */\n      0x00\n        /* \"RoomShare.sol\":4445:4452  _roomId */\n      dup8\n        /* \"RoomShare.sol\":4433:4453  roomId2room[_roomId] */\n      dup2\n      mstore\n      0x20\n      add\n      swap1\n      dup2\n      mstore\n      0x20\n      add\n      0x00\n      keccak256\n        /* \"RoomShare.sol\":4413:4453  Room storage room = roomId2room[_roomId] */\n      swap1\n      pop\n        /* \"RoomShare.sol\":4496:4505  uint from */\n      0x00\n        /* \"RoomShare.sol\":4508:4519  checkInDate */\n      dup5\n        /* \"RoomShare.sol\":4496:4519  uint from = checkInDate */\n      swap1\n      pop\n        /* \"RoomShare.sol\":4525:4532  uint to */\n      0x00\n        /* \"RoomShare.sol\":4535:4547  checkoutDate */\n      dup5\n        /* \"RoomShare.sol\":4525:4547  uint to = checkoutDate */\n      swap1\n      pop\n        /* \"RoomShare.sol\":4553:4629  while (from < to) {... */\n    tag_258:\n        /* \"RoomShare.sol\":4567:4569  to */\n      dup1\n        /* \"RoomShare.sol\":4560:4564  from */\n      dup3\n        /* \"RoomShare.sol\":4560:4569  from < to */\n      lt\n        /* \"RoomShare.sol\":4553:4629  while (from < to) {... */\n      iszero\n      tag_259\n      jumpi\n        /* \"RoomShare.sol\":4601:4605  true */\n      0x01\n        /* \"RoomShare.sol\":4579:4583  room */\n      dup4\n        /* \"RoomShare.sol\":4579:4592  room.isRented */\n      0x06\n      add\n        /* \"RoomShare.sol\":4593:4597  from */\n      dup4\n        /* \"RoomShare.sol\":4579:4598  room.isRented[from] */\n      dup2\n      sload\n      dup2\n      lt\n      tag_260\n      jumpi\n      tag_261\n      tag_105\n      jump\t// in\n    tag_261:\n    tag_260:\n      swap1\n      0x00\n      mstore\n      keccak256(0x00, 0x20)\n      swap1\n      0x20\n      swap2\n      dup3\n      dup3\n      div\n      add\n      swap2\n      swap1\n      mod\n        /* \"RoomShare.sol\":4579:4605  room.isRented[from] = true */\n      0x0100\n      exp\n      dup2\n      sload\n      dup2\n      0xff\n      mul\n      not\n      and\n      swap1\n      dup4\n      iszero\n      iszero\n      mul\n      or\n      swap1\n      sstore\n      pop\n        /* \"RoomShare.sol\":4621:4622  1 */\n      0x01\n        /* \"RoomShare.sol\":4613:4622  from += 1 */\n      dup3\n      tag_263\n      swap2\n      swap1\n      tag_110\n      jump\t// in\n    tag_263:\n      swap2\n      pop\n        /* \"RoomShare.sol\":4553:4629  while (from < to) {... */\n      jump(tag_258)\n    tag_259:\n        /* \"RoomShare.sol\":4636:4647  renter2rent */\n      0x03\n        /* \"RoomShare.sol\":4636:4659  renter2rent[msg.sender] */\n      0x00\n        /* \"RoomShare.sol\":4648:4658  msg.sender */\n      caller\n        /* \"RoomShare.sol\":4636:4659  renter2rent[msg.sender] */\n      0xffffffffffffffffffffffffffffffffffffffff\n      and\n      0xffffffffffffffffffffffffffffffffffffffff\n      and\n      dup2\n      mstore\n      0x20\n      add\n      swap1\n      dup2\n      mstore\n      0x20\n      add\n      0x00\n      keccak256\n        /* \"RoomShare.sol\":4665:4669  rent */\n      dup5\n        /* \"RoomShare.sol\":4636:4670  renter2rent[msg.sender].push(rent) */\n      swap1\n      dup1\n      0x01\n      dup2\n      sload\n      add\n      dup1\n      dup3\n      sstore\n      dup1\n      swap2\n      pop\n      pop\n      0x01\n      swap1\n      sub\n      swap1\n      0x00\n      mstore\n      keccak256(0x00, 0x20)\n      swap1\n      0x06\n      mul\n      add\n      0x00\n      swap1\n      swap2\n      swap1\n      swap2\n      swap1\n      swap2\n      pop\n      0x00\n      dup3\n      add\n      mload\n      dup2\n      0x00\n      add\n      sstore\n      0x20\n      dup3\n      add\n      mload\n      dup2\n      0x01\n      add\n      sstore\n      0x40\n      dup3\n      add\n      mload\n      dup2\n      0x02\n      add\n      sstore\n      0x60\n      dup3\n      add\n      mload\n      dup2\n      0x03\n      add\n      sstore\n      0x80\n      dup3\n      add\n      mload\n      dup2\n      0x04\n      add\n      sstore\n      0xa0\n      dup3\n      add\n      mload\n      dup2\n      0x05\n      add\n      exp(0x0100, 0x00)\n      dup2\n      sload\n      dup2\n      0xffffffffffffffffffffffffffffffffffffffff\n      mul\n      not\n      and\n      swap1\n      dup4\n      0xffffffffffffffffffffffffffffffffffffffff\n      and\n      mul\n      or\n      swap1\n      sstore\n      pop\n      pop\n      pop\n        /* \"RoomShare.sol\":4676:4687  roomId2rent */\n      0x04\n        /* \"RoomShare.sol\":4676:4696  roomId2rent[_roomId] */\n      0x00\n        /* \"RoomShare.sol\":4688:4695  _roomId */\n      dup10\n        /* \"RoomShare.sol\":4676:4696  roomId2rent[_roomId] */\n      dup2\n      mstore\n      0x20\n      add\n      swap1\n      dup2\n      mstore\n      0x20\n      add\n      0x00\n      keccak256\n        /* \"RoomShare.sol\":4702:4706  rent */\n      dup5\n        /* \"RoomShare.sol\":4676:4707  roomId2rent[_roomId].push(rent) */\n      swap1\n      dup1\n      0x01\n      dup2\n      sload\n      add\n      dup1\n      dup3\n      sstore\n      dup1\n      swap2\n      pop\n      pop\n      0x01\n      swap1\n      sub\n      swap1\n      0x00\n      mstore\n      keccak256(0x00, 0x20)\n      swap1\n      0x06\n      mul\n      add\n      0x00\n      swap1\n      swap2\n      swap1\n      swap2\n      swap1\n      swap2\n      pop\n      0x00\n      dup3\n      add\n      mload\n      dup2\n      0x00\n      add\n      sstore\n      0x20\n      dup3\n      add\n      mload\n      dup2\n      0x01\n      add\n      sstore\n      0x40\n      dup3\n      add\n      mload\n      dup2\n      0x02\n      add\n      sstore\n      0x60\n      dup3\n      add\n      mload\n      dup2\n      0x03\n      add\n      sstore\n      0x80\n      dup3\n      add\n      mload\n      dup2\n      0x04\n      add\n      sstore\n      0xa0\n      dup3\n      add\n      mload\n      dup2\n      0x05\n      add\n      exp(0x0100, 0x00)\n      dup2\n      sload\n      dup2\n      0xffffffffffffffffffffffffffffffffffffffff\n      mul\n      not\n      and\n      swap1\n      dup4\n      0xffffffffffffffffffffffffffffffffffffffff\n      and\n      mul\n      or\n      swap1\n      sstore\n      pop\n      pop\n      pop\n        /* \"RoomShare.sol\":4736:4742  rentId */\n      0x01\n      0x00\n        /* \"RoomShare.sol\":4736:4744  rentId++ */\n      dup2\n      sload\n      dup1\n      swap3\n      swap2\n      swap1\n      tag_266\n      swap1\n      tag_131\n      jump\t// in\n    tag_266:\n      swap2\n      swap1\n      pop\n      sstore\n        /* \"RoomShare.sol\":4727:4734  _roomId */\n      dup9\n        /* \"RoomShare.sol\":4719:4745  NewRent(_roomId, rentId++) */\n      0x84bad6e347d9aff08a38e6eb90827c7999f70bfaf3b0acbe288f512801b9c139\n      mload(0x40)\n      mload(0x40)\n      dup1\n      swap2\n      sub\n      swap1\n      log3\n        /* \"RoomShare.sol\":3909:4750  {... */\n      pop\n      pop\n      pop\n      pop\n        /* \"RoomShare.sol\":3808:4750  function _createRent(uint256 _roomId, uint year, uint256 checkInDate, uint256 checkoutDate) internal {... */\n      pop\n      pop\n      pop\n      pop\n      jump\t// out\n        /* \"RoomShare.sol\":4754:4857  function _sendFunds (address owner, uint256 value) internal {... */\n    tag_225:\n        /* \"RoomShare.sol\":4830:4835  owner */\n      dup2\n        /* \"RoomShare.sol\":4822:4845  payable(owner).transfer */\n      0xffffffffffffffffffffffffffffffffffffffff\n      and\n        /* \"RoomShare.sol\":4822:4852  payable(owner).transfer(value) */\n      0x08fc\n        /* \"RoomShare.sol\":4846:4851  value */\n      dup3\n        /* \"RoomShare.sol\":4822:4852  payable(owner).transfer(value) */\n      swap1\n      dup2\n      iszero\n      mul\n      swap1\n      mload(0x40)\n      0x00\n      mload(0x40)\n      dup1\n      dup4\n      sub\n      dup2\n      dup6\n      dup9\n      dup9\n      call\n      swap4\n      pop\n      pop\n      pop\n      pop\n      iszero\n      dup1\n      iszero\n      tag_269\n      jumpi\n      returndatasize\n      0x00\n      dup1\n      returndatacopy\n      revert(0x00, returndatasize)\n    tag_269:\n      pop\n        /* \"RoomShare.sol\":4754:4857  function _sendFunds (address owner, uint256 value) internal {... */\n      pop\n      pop\n      jump\t// out\n    tag_98:\n      mload(0x40)\n      dup1\n      0x40\n      add\n      0x40\n      mstore\n      dup1\n      0x02\n      swap1\n      0x20\n      dup3\n      mul\n      dup1\n      calldatasize\n      dup4\n      calldatacopy\n      dup1\n      dup3\n      add\n      swap2\n      pop\n      pop\n      swap1\n      pop\n      pop\n      swap1\n      jump\t// out\n    tag_142:\n      pop\n      dup1\n      sload\n      0x00\n      dup3\n      sstore\n      0x06\n      mul\n      swap1\n      0x00\n      mstore\n      keccak256(0x00, 0x20)\n      swap1\n      dup2\n      add\n      swap1\n      tag_271\n      swap2\n      swap1\n      tag_272\n      jump\t// in\n    tag_271:\n      pop\n      jump\t// out\n    tag_188:\n      dup3\n      dup1\n      sload\n      tag_273\n      swap1\n      tag_162\n      jump\t// in\n    tag_273:\n      swap1\n      0x00\n      mstore\n      keccak256(0x00, 0x20)\n      swap1\n      0x1f\n      add\n      0x20\n      swap1\n      div\n      dup2\n      add\n      swap3\n      dup3\n      tag_275\n      jumpi\n      0x00\n      dup6\n      sstore\n      jump(tag_274)\n    tag_275:\n      dup3\n      0x1f\n      lt\n      tag_276\n      jumpi\n      dup1\n      mload\n      not(0xff)\n      and\n      dup4\n      dup1\n      add\n      or\n      dup6\n      sstore\n      jump(tag_274)\n    tag_276:\n      dup3\n      dup1\n      add\n      0x01\n      add\n      dup6\n      sstore\n      dup3\n      iszero\n      tag_274\n      jumpi\n      swap2\n      dup3\n      add\n    tag_277:\n      dup3\n      dup2\n      gt\n      iszero\n      tag_278\n      jumpi\n      dup3\n      mload\n      dup3\n      sstore\n      swap2\n      0x20\n      add\n      swap2\n      swap1\n      0x01\n      add\n      swap1\n      jump(tag_277)\n    tag_278:\n    tag_274:\n      pop\n      swap1\n      pop\n      tag_279\n      swap2\n      swap1\n      tag_280\n      jump\t// in\n    tag_279:\n      pop\n      swap1\n      jump\t// out\n    tag_191:\n      dup3\n      dup1\n      sload\n      dup3\n      dup3\n      sstore\n      swap1\n      0x00\n      mstore\n      keccak256(0x00, 0x20)\n      swap1\n      0x1f\n      add\n      0x20\n      swap1\n      div\n      dup2\n      add\n      swap3\n      dup3\n      iszero\n      tag_281\n      jumpi\n      swap2\n      0x20\n      mul\n      dup3\n      add\n      0x00\n    tag_282:\n      dup4\n      dup3\n      gt\n      iszero\n      tag_283\n      jumpi\n      dup4\n      mload\n      dup4\n      dup3\n      0x0100\n      exp\n      dup2\n      sload\n      dup2\n      0xff\n      mul\n      not\n      and\n      swap1\n      dup4\n      iszero\n      iszero\n      mul\n      or\n      swap1\n      sstore\n      pop\n      swap3\n      0x20\n      add\n      swap3\n      0x01\n      add\n      0x20\n      dup2\n      0x00\n      add\n      div\n      swap3\n      dup4\n      add\n      swap3\n      0x01\n      sub\n      mul\n      jump(tag_282)\n    tag_283:\n      dup1\n      iszero\n      tag_284\n      jumpi\n      dup3\n      dup2\n      0x0100\n      exp\n      dup2\n      sload\n      swap1\n      0xff\n      mul\n      not\n      and\n      swap1\n      sstore\n      0x01\n      add\n      0x20\n      dup2\n      0x00\n      add\n      div\n      swap3\n      dup4\n      add\n      swap3\n      0x01\n      sub\n      mul\n      jump(tag_283)\n    tag_284:\n      pop\n    tag_281:\n      pop\n      swap1\n      pop\n      tag_285\n      swap2\n      swap1\n      tag_280\n      jump\t// in\n    tag_285:\n      pop\n      swap1\n      jump\t// out\n    tag_272:\n    tag_286:\n      dup1\n      dup3\n      gt\n      iszero\n      tag_287\n      jumpi\n      0x00\n      dup1\n      dup3\n      add\n      0x00\n      swap1\n      sstore\n      0x01\n      dup3\n      add\n      0x00\n      swap1\n      sstore\n      0x02\n      dup3\n      add\n      0x00\n      swap1\n      sstore\n      0x03\n      dup3\n      add\n      0x00\n      swap1\n      sstore\n      0x04\n      dup3\n      add\n      0x00\n      swap1\n      sstore\n      0x05\n      dup3\n      add\n      exp(0x0100, 0x00)\n      dup2\n      sload\n      swap1\n      0xffffffffffffffffffffffffffffffffffffffff\n      mul\n      not\n      and\n      swap1\n      sstore\n      pop\n      0x06\n      add\n      jump(tag_286)\n    tag_287:\n      pop\n      swap1\n      jump\t// out\n    tag_280:\n    tag_288:\n      dup1\n      dup3\n      gt\n      iszero\n      tag_289\n      jumpi\n      0x00\n      dup2\n      0x00\n      swap1\n      sstore\n      pop\n      0x01\n      add\n      jump(tag_288)\n    tag_289:\n      pop\n      swap1\n      jump\t// out\n        /* \"#utility.yul\":7:146   */\n    tag_291:\n        /* \"#utility.yul\":53:58   */\n      0x00\n        /* \"#utility.yul\":91:97   */\n      dup2\n        /* \"#utility.yul\":78:98   */\n      calldataload\n        /* \"#utility.yul\":69:98   */\n      swap1\n      pop\n        /* \"#utility.yul\":107:140   */\n      tag_293\n        /* \"#utility.yul\":134:139   */\n      dup2\n        /* \"#utility.yul\":107:140   */\n      tag_294\n      jump\t// in\n    tag_293:\n        /* \"#utility.yul\":7:146   */\n      swap3\n      swap2\n      pop\n      pop\n      jump\t// out\n        /* \"#utility.yul\":152:285   */\n    tag_295:\n        /* \"#utility.yul\":195:200   */\n      0x00\n        /* \"#utility.yul\":233:239   */\n      dup2\n        /* \"#utility.yul\":220:240   */\n      calldataload\n        /* \"#utility.yul\":211:240   */\n      swap1\n      pop\n        /* \"#utility.yul\":249:279   */\n      tag_297\n        /* \"#utility.yul\":273:278   */\n      dup2\n        /* \"#utility.yul\":249:279   */\n      tag_298\n      jump\t// in\n    tag_297:\n        /* \"#utility.yul\":152:285   */\n      swap3\n      swap2\n      pop\n      pop\n      jump\t// out\n        /* \"#utility.yul\":305:858   */\n    tag_299:\n        /* \"#utility.yul\":363:371   */\n      0x00\n        /* \"#utility.yul\":373:379   */\n      dup1\n        /* \"#utility.yul\":423:426   */\n      dup4\n        /* \"#utility.yul\":416:420   */\n      0x1f\n        /* \"#utility.yul\":408:414   */\n      dup5\n        /* \"#utility.yul\":404:421   */\n      add\n        /* \"#utility.yul\":400:427   */\n      slt\n        /* \"#utility.yul\":390:512   */\n      tag_301\n      jumpi\n        /* \"#utility.yul\":431:510   */\n      tag_302\n      tag_303\n      jump\t// in\n    tag_302:\n        /* \"#utility.yul\":390:512   */\n    tag_301:\n        /* \"#utility.yul\":544:550   */\n      dup3\n        /* \"#utility.yul\":531:551   */\n      calldataload\n        /* \"#utility.yul\":521:551   */\n      swap1\n      pop\n        /* \"#utility.yul\":574:592   */\n      0xffffffffffffffff\n        /* \"#utility.yul\":566:572   */\n      dup2\n        /* \"#utility.yul\":563:593   */\n      gt\n        /* \"#utility.yul\":560:677   */\n      iszero\n      tag_304\n      jumpi\n        /* \"#utility.yul\":596:675   */\n      tag_305\n      tag_306\n      jump\t// in\n    tag_305:\n        /* \"#utility.yul\":560:677   */\n    tag_304:\n        /* \"#utility.yul\":710:714   */\n      0x20\n        /* \"#utility.yul\":702:708   */\n      dup4\n        /* \"#utility.yul\":698:715   */\n      add\n        /* \"#utility.yul\":686:715   */\n      swap2\n      pop\n        /* \"#utility.yul\":764:767   */\n      dup4\n        /* \"#utility.yul\":756:760   */\n      0x01\n        /* \"#utility.yul\":748:754   */\n      dup3\n        /* \"#utility.yul\":744:761   */\n      mul\n        /* \"#utility.yul\":734:742   */\n      dup4\n        /* \"#utility.yul\":730:762   */\n      add\n        /* \"#utility.yul\":727:768   */\n      gt\n        /* \"#utility.yul\":724:852   */\n      iszero\n      tag_307\n      jumpi\n        /* \"#utility.yul\":771:850   */\n      tag_308\n      tag_309\n      jump\t// in\n    tag_308:\n        /* \"#utility.yul\":724:852   */\n    tag_307:\n        /* \"#utility.yul\":305:858   */\n      swap3\n      pop\n      swap3\n      swap1\n      pop\n      jump\t// out\n        /* \"#utility.yul\":864:1003   */\n    tag_310:\n        /* \"#utility.yul\":910:915   */\n      0x00\n        /* \"#utility.yul\":948:954   */\n      dup2\n        /* \"#utility.yul\":935:955   */\n      calldataload\n        /* \"#utility.yul\":926:955   */\n      swap1\n      pop\n        /* \"#utility.yul\":964:997   */\n      tag_312\n        /* \"#utility.yul\":991:996   */\n      dup2\n        /* \"#utility.yul\":964:997   */\n      tag_313\n      jump\t// in\n    tag_312:\n        /* \"#utility.yul\":864:1003   */\n      swap3\n      swap2\n      pop\n      pop\n      jump\t// out\n        /* \"#utility.yul\":1009:1483   */\n    tag_22:\n        /* \"#utility.yul\":1077:1083   */\n      0x00\n        /* \"#utility.yul\":1085:1091   */\n      dup1\n        /* \"#utility.yul\":1134:1136   */\n      0x40\n        /* \"#utility.yul\":1122:1131   */\n      dup4\n        /* \"#utility.yul\":1113:1120   */\n      dup6\n        /* \"#utility.yul\":1109:1132   */\n      sub\n        /* \"#utility.yul\":1105:1137   */\n      slt\n        /* \"#utility.yul\":1102:1221   */\n      iszero\n      tag_315\n      jumpi\n        /* \"#utility.yul\":1140:1219   */\n      tag_316\n      tag_317\n      jump\t// in\n    tag_316:\n        /* \"#utility.yul\":1102:1221   */\n    tag_315:\n        /* \"#utility.yul\":1260:1261   */\n      0x00\n        /* \"#utility.yul\":1285:1338   */\n      tag_318\n        /* \"#utility.yul\":1330:1337   */\n      dup6\n        /* \"#utility.yul\":1321:1327   */\n      dup3\n        /* \"#utility.yul\":1310:1319   */\n      dup7\n        /* \"#utility.yul\":1306:1328   */\n      add\n        /* \"#utility.yul\":1285:1338   */\n      tag_291\n      jump\t// in\n    tag_318:\n        /* \"#utility.yul\":1275:1338   */\n      swap3\n      pop\n        /* \"#utility.yul\":1231:1348   */\n      pop\n        /* \"#utility.yul\":1387:1389   */\n      0x20\n        /* \"#utility.yul\":1413:1466   */\n      tag_319\n        /* \"#utility.yul\":1458:1465   */\n      dup6\n        /* \"#utility.yul\":1449:1455   */\n      dup3\n        /* \"#utility.yul\":1438:1447   */\n      dup7\n        /* \"#utility.yul\":1434:1456   */\n      add\n        /* \"#utility.yul\":1413:1466   */\n      tag_310\n      jump\t// in\n    tag_319:\n        /* \"#utility.yul\":1403:1466   */\n      swap2\n      pop\n        /* \"#utility.yul\":1358:1476   */\n      pop\n        /* \"#utility.yul\":1009:1483   */\n      swap3\n      pop\n      swap3\n      swap1\n      pop\n      jump\t// out\n        /* \"#utility.yul\":1489:2508   */\n    tag_62:\n        /* \"#utility.yul\":1590:1596   */\n      0x00\n        /* \"#utility.yul\":1598:1604   */\n      dup1\n        /* \"#utility.yul\":1606:1612   */\n      0x00\n        /* \"#utility.yul\":1614:1620   */\n      dup1\n        /* \"#utility.yul\":1622:1628   */\n      0x00\n        /* \"#utility.yul\":1671:1673   */\n      0x60\n        /* \"#utility.yul\":1659:1668   */\n      dup7\n        /* \"#utility.yul\":1650:1657   */\n      dup9\n        /* \"#utility.yul\":1646:1669   */\n      sub\n        /* \"#utility.yul\":1642:1674   */\n      slt\n        /* \"#utility.yul\":1639:1758   */\n      iszero\n      tag_321\n      jumpi\n        /* \"#utility.yul\":1677:1756   */\n      tag_322\n      tag_317\n      jump\t// in\n    tag_322:\n        /* \"#utility.yul\":1639:1758   */\n    tag_321:\n        /* \"#utility.yul\":1825:1826   */\n      0x00\n        /* \"#utility.yul\":1814:1823   */\n      dup7\n        /* \"#utility.yul\":1810:1827   */\n      add\n        /* \"#utility.yul\":1797:1828   */\n      calldataload\n        /* \"#utility.yul\":1855:1873   */\n      0xffffffffffffffff\n        /* \"#utility.yul\":1847:1853   */\n      dup2\n        /* \"#utility.yul\":1844:1874   */\n      gt\n        /* \"#utility.yul\":1841:1958   */\n      iszero\n      tag_323\n      jumpi\n        /* \"#utility.yul\":1877:1956   */\n      tag_324\n      tag_325\n      jump\t// in\n    tag_324:\n        /* \"#utility.yul\":1841:1958   */\n    tag_323:\n        /* \"#utility.yul\":1990:2055   */\n      tag_326\n        /* \"#utility.yul\":2047:2054   */\n      dup9\n        /* \"#utility.yul\":2038:2044   */\n      dup3\n        /* \"#utility.yul\":2027:2036   */\n      dup10\n        /* \"#utility.yul\":2023:2045   */\n      add\n        /* \"#utility.yul\":1990:2055   */\n      tag_299\n      jump\t// in\n    tag_326:\n        /* \"#utility.yul\":1972:2055   */\n      swap6\n      pop\n      swap6\n      pop\n        /* \"#utility.yul\":1768:2065   */\n      pop\n        /* \"#utility.yul\":2132:2134   */\n      0x20\n        /* \"#utility.yul\":2121:2130   */\n      dup7\n        /* \"#utility.yul\":2117:2135   */\n      add\n        /* \"#utility.yul\":2104:2136   */\n      calldataload\n        /* \"#utility.yul\":2163:2181   */\n      0xffffffffffffffff\n        /* \"#utility.yul\":2155:2161   */\n      dup2\n        /* \"#utility.yul\":2152:2182   */\n      gt\n        /* \"#utility.yul\":2149:2266   */\n      iszero\n      tag_327\n      jumpi\n        /* \"#utility.yul\":2185:2264   */\n      tag_328\n      tag_325\n      jump\t// in\n    tag_328:\n        /* \"#utility.yul\":2149:2266   */\n    tag_327:\n        /* \"#utility.yul\":2298:2363   */\n      tag_329\n        /* \"#utility.yul\":2355:2362   */\n      dup9\n        /* \"#utility.yul\":2346:2352   */\n      dup3\n        /* \"#utility.yul\":2335:2344   */\n      dup10\n        /* \"#utility.yul\":2331:2353   */\n      add\n        /* \"#utility.yul\":2298:2363   */\n      tag_299\n      jump\t// in\n    tag_329:\n        /* \"#utility.yul\":2280:2363   */\n      swap4\n      pop\n      swap4\n      pop\n        /* \"#utility.yul\":2075:2373   */\n      pop\n        /* \"#utility.yul\":2412:2414   */\n      0x40\n        /* \"#utility.yul\":2438:2491   */\n      tag_330\n        /* \"#utility.yul\":2483:2490   */\n      dup9\n        /* \"#utility.yul\":2474:2480   */\n      dup3\n        /* \"#utility.yul\":2463:2472   */\n      dup10\n        /* \"#utility.yul\":2459:2481   */\n      add\n        /* \"#utility.yul\":2438:2491   */\n      tag_310\n      jump\t// in\n    tag_330:\n        /* \"#utility.yul\":2428:2491   */\n      swap2\n      pop\n        /* \"#utility.yul\":2383:2501   */\n      pop\n        /* \"#utility.yul\":1489:2508   */\n      swap3\n      swap6\n      pop\n      swap3\n      swap6\n      swap1\n      swap4\n      pop\n      jump\t// out\n        /* \"#utility.yul\":2514:2843   */\n    tag_47:\n        /* \"#utility.yul\":2573:2579   */\n      0x00\n        /* \"#utility.yul\":2622:2624   */\n      0x20\n        /* \"#utility.yul\":2610:2619   */\n      dup3\n        /* \"#utility.yul\":2601:2608   */\n      dup5\n        /* \"#utility.yul\":2597:2620   */\n      sub\n        /* \"#utility.yul\":2593:2625   */\n      slt\n        /* \"#utility.yul\":2590:2709   */\n      iszero\n      tag_332\n      jumpi\n        /* \"#utility.yul\":2628:2707   */\n      tag_333\n      tag_317\n      jump\t// in\n    tag_333:\n        /* \"#utility.yul\":2590:2709   */\n    tag_332:\n        /* \"#utility.yul\":2748:2749   */\n      0x00\n        /* \"#utility.yul\":2773:2826   */\n      tag_334\n        /* \"#utility.yul\":2818:2825   */\n      dup5\n        /* \"#utility.yul\":2809:2815   */\n      dup3\n        /* \"#utility.yul\":2798:2807   */\n      dup6\n        /* \"#utility.yul\":2794:2816   */\n      add\n        /* \"#utility.yul\":2773:2826   */\n      tag_310\n      jump\t// in\n    tag_334:\n        /* \"#utility.yul\":2763:2826   */\n      swap2\n      pop\n        /* \"#utility.yul\":2719:2836   */\n      pop\n        /* \"#utility.yul\":2514:2843   */\n      swap3\n      swap2\n      pop\n      pop\n      jump\t// out\n        /* \"#utility.yul\":2849:3317   */\n    tag_42:\n        /* \"#utility.yul\":2914:2920   */\n      0x00\n        /* \"#utility.yul\":2922:2928   */\n      dup1\n        /* \"#utility.yul\":2971:2973   */\n      0x40\n        /* \"#utility.yul\":2959:2968   */\n      dup4\n        /* \"#utility.yul\":2950:2957   */\n      dup6\n        /* \"#utility.yul\":2946:2969   */\n      sub\n        /* \"#utility.yul\":2942:2974   */\n      slt\n        /* \"#utility.yul\":2939:3058   */\n      iszero\n      tag_336\n      jumpi\n        /* \"#utility.yul\":2977:3056   */\n      tag_337\n      tag_317\n      jump\t// in\n    tag_337:\n        /* \"#utility.yul\":2939:3058   */\n    tag_336:\n        /* \"#utility.yul\":3097:3098   */\n      0x00\n        /* \"#utility.yul\":3122:3175   */\n      tag_338\n        /* \"#utility.yul\":3167:3174   */\n      dup6\n        /* \"#utility.yul\":3158:3164   */\n      dup3\n        /* \"#utility.yul\":3147:3156   */\n      dup7\n        /* \"#utility.yul\":3143:3165   */\n      add\n        /* \"#utility.yul\":3122:3175   */\n      tag_310\n      jump\t// in\n    tag_338:\n        /* \"#utility.yul\":3112:3175   */\n      swap3\n      pop\n        /* \"#utility.yul\":3068:3185   */\n      pop\n        /* \"#utility.yul\":3224:3226   */\n      0x20\n        /* \"#utility.yul\":3250:3300   */\n      tag_339\n        /* \"#utility.yul\":3292:3299   */\n      dup6\n        /* \"#utility.yul\":3283:3289   */\n      dup3\n        /* \"#utility.yul\":3272:3281   */\n      dup7\n        /* \"#utility.yul\":3268:3290   */\n      add\n        /* \"#utility.yul\":3250:3300   */\n      tag_295\n      jump\t// in\n    tag_339:\n        /* \"#utility.yul\":3240:3300   */\n      swap2\n      pop\n        /* \"#utility.yul\":3195:3310   */\n      pop\n        /* \"#utility.yul\":2849:3317   */\n      swap3\n      pop\n      swap3\n      swap1\n      pop\n      jump\t// out\n        /* \"#utility.yul\":3323:3797   */\n    tag_29:\n        /* \"#utility.yul\":3391:3397   */\n      0x00\n        /* \"#utility.yul\":3399:3405   */\n      dup1\n        /* \"#utility.yul\":3448:3450   */\n      0x40\n        /* \"#utility.yul\":3436:3445   */\n      dup4\n        /* \"#utility.yul\":3427:3434   */\n      dup6\n        /* \"#utility.yul\":3423:3446   */\n      sub\n        /* \"#utility.yul\":3419:3451   */\n      slt\n        /* \"#utility.yul\":3416:3535   */\n      iszero\n      tag_341\n      jumpi\n        /* \"#utility.yul\":3454:3533   */\n      tag_342\n      tag_317\n      jump\t// in\n    tag_342:\n        /* \"#utility.yul\":3416:3535   */\n    tag_341:\n        /* \"#utility.yul\":3574:3575   */\n      0x00\n        /* \"#utility.yul\":3599:3652   */\n      tag_343\n        /* \"#utility.yul\":3644:3651   */\n      dup6\n        /* \"#utility.yul\":3635:3641   */\n      dup3\n        /* \"#utility.yul\":3624:3633   */\n      dup7\n        /* \"#utility.yul\":3620:3642   */\n      add\n        /* \"#utility.yul\":3599:3652   */\n      tag_310\n      jump\t// in\n    tag_343:\n        /* \"#utility.yul\":3589:3652   */\n      swap3\n      pop\n        /* \"#utility.yul\":3545:3662   */\n      pop\n        /* \"#utility.yul\":3701:3703   */\n      0x20\n        /* \"#utility.yul\":3727:3780   */\n      tag_344\n        /* \"#utility.yul\":3772:3779   */\n      dup6\n        /* \"#utility.yul\":3763:3769   */\n      dup3\n        /* \"#utility.yul\":3752:3761   */\n      dup7\n        /* \"#utility.yul\":3748:3770   */\n      add\n        /* \"#utility.yul\":3727:3780   */\n      tag_310\n      jump\t// in\n    tag_344:\n        /* \"#utility.yul\":3717:3780   */\n      swap2\n      pop\n        /* \"#utility.yul\":3672:3790   */\n      pop\n        /* \"#utility.yul\":3323:3797   */\n      swap3\n      pop\n      swap3\n      swap1\n      pop\n      jump\t// out\n        /* \"#utility.yul\":3803:4422   */\n    tag_35:\n        /* \"#utility.yul\":3880:3886   */\n      0x00\n        /* \"#utility.yul\":3888:3894   */\n      dup1\n        /* \"#utility.yul\":3896:3902   */\n      0x00\n        /* \"#utility.yul\":3945:3947   */\n      0x60\n        /* \"#utility.yul\":3933:3942   */\n      dup5\n        /* \"#utility.yul\":3924:3931   */\n      dup7\n        /* \"#utility.yul\":3920:3943   */\n      sub\n        /* \"#utility.yul\":3916:3948   */\n      slt\n        /* \"#utility.yul\":3913:4032   */\n      iszero\n      tag_346\n      jumpi\n        /* \"#utility.yul\":3951:4030   */\n      tag_347\n      tag_317\n      jump\t// in\n    tag_347:\n        /* \"#utility.yul\":3913:4032   */\n    tag_346:\n        /* \"#utility.yul\":4071:4072   */\n      0x00\n        /* \"#utility.yul\":4096:4149   */\n      tag_348\n        /* \"#utility.yul\":4141:4148   */\n      dup7\n        /* \"#utility.yul\":4132:4138   */\n      dup3\n        /* \"#utility.yul\":4121:4130   */\n      dup8\n        /* \"#utility.yul\":4117:4139   */\n      add\n        /* \"#utility.yul\":4096:4149   */\n      tag_310\n      jump\t// in\n    tag_348:\n        /* \"#utility.yul\":4086:4149   */\n      swap4\n      pop\n        /* \"#utility.yul\":4042:4159   */\n      pop\n        /* \"#utility.yul\":4198:4200   */\n      0x20\n        /* \"#utility.yul\":4224:4277   */\n      tag_349\n        /* \"#utility.yul\":4269:4276   */\n      dup7\n        /* \"#utility.yul\":4260:4266   */\n      dup3\n        /* \"#utility.yul\":4249:4258   */\n      dup8\n        /* \"#utility.yul\":4245:4267   */\n      add\n        /* \"#utility.yul\":4224:4277   */\n      tag_310\n      jump\t// in\n    tag_349:\n        /* \"#utility.yul\":4214:4277   */\n      swap3\n      pop\n        /* \"#utility.yul\":4169:4287   */\n      pop\n        /* \"#utility.yul\":4326:4328   */\n      0x40\n        /* \"#utility.yul\":4352:4405   */\n      tag_350\n        /* \"#utility.yul\":4397:4404   */\n      dup7\n        /* \"#utility.yul\":4388:4394   */\n      dup3\n        /* \"#utility.yul\":4377:4386   */\n      dup8\n        /* \"#utility.yul\":4373:4395   */\n      add\n        /* \"#utility.yul\":4352:4405   */\n      tag_310\n      jump\t// in\n    tag_350:\n        /* \"#utility.yul\":4342:4405   */\n      swap2\n      pop\n        /* \"#utility.yul\":4297:4415   */\n      pop\n        /* \"#utility.yul\":3803:4422   */\n      swap3\n      pop\n      swap3\n      pop\n      swap3\n      jump\t// out\n        /* \"#utility.yul\":4428:5193   */\n    tag_76:\n        /* \"#utility.yul\":4514:4520   */\n      0x00\n        /* \"#utility.yul\":4522:4528   */\n      dup1\n        /* \"#utility.yul\":4530:4536   */\n      0x00\n        /* \"#utility.yul\":4538:4544   */\n      dup1\n        /* \"#utility.yul\":4587:4590   */\n      0x80\n        /* \"#utility.yul\":4575:4584   */\n      dup6\n        /* \"#utility.yul\":4566:4573   */\n      dup8\n        /* \"#utility.yul\":4562:4585   */\n      sub\n        /* \"#utility.yul\":4558:4591   */\n      slt\n        /* \"#utility.yul\":4555:4675   */\n      iszero\n      tag_352\n      jumpi\n        /* \"#utility.yul\":4594:4673   */\n      tag_353\n      tag_317\n      jump\t// in\n    tag_353:\n        /* \"#utility.yul\":4555:4675   */\n    tag_352:\n        /* \"#utility.yul\":4714:4715   */\n      0x00\n        /* \"#utility.yul\":4739:4792   */\n      tag_354\n        /* \"#utility.yul\":4784:4791   */\n      dup8\n        /* \"#utility.yul\":4775:4781   */\n      dup3\n        /* \"#utility.yul\":4764:4773   */\n      dup9\n        /* \"#utility.yul\":4760:4782   */\n      add\n        /* \"#utility.yul\":4739:4792   */\n      tag_310\n      jump\t// in\n    tag_354:\n        /* \"#utility.yul\":4729:4792   */\n      swap5\n      pop\n        /* \"#utility.yul\":4685:4802   */\n      pop\n        /* \"#utility.yul\":4841:4843   */\n      0x20\n        /* \"#utility.yul\":4867:4920   */\n      tag_355\n        /* \"#utility.yul\":4912:4919   */\n      dup8\n        /* \"#utility.yul\":4903:4909   */\n      dup3\n        /* \"#utility.yul\":4892:4901   */\n      dup9\n        /* \"#utility.yul\":4888:4910   */\n      add\n        /* \"#utility.yul\":4867:4920   */\n      tag_310\n      jump\t// in\n    tag_355:\n        /* \"#utility.yul\":4857:4920   */\n      swap4\n      pop\n        /* \"#utility.yul\":4812:4930   */\n      pop\n        /* \"#utility.yul\":4969:4971   */\n      0x40\n        /* \"#utility.yul\":4995:5048   */\n      tag_356\n        /* \"#utility.yul\":5040:5047   */\n      dup8\n        /* \"#utility.yul\":5031:5037   */\n      dup3\n        /* \"#utility.yul\":5020:5029   */\n      dup9\n        /* \"#utility.yul\":5016:5038   */\n      add\n        /* \"#utility.yul\":4995:5048   */\n      tag_310\n      jump\t// in\n    tag_356:\n        /* \"#utility.yul\":4985:5048   */\n      swap3\n      pop\n        /* \"#utility.yul\":4940:5058   */\n      pop\n        /* \"#utility.yul\":5097:5099   */\n      0x60\n        /* \"#utility.yul\":5123:5176   */\n      tag_357\n        /* \"#utility.yul\":5168:5175   */\n      dup8\n        /* \"#utility.yul\":5159:5165   */\n      dup3\n        /* \"#utility.yul\":5148:5157   */\n      dup9\n        /* \"#utility.yul\":5144:5166   */\n      add\n        /* \"#utility.yul\":5123:5176   */\n      tag_310\n      jump\t// in\n    tag_357:\n        /* \"#utility.yul\":5113:5176   */\n      swap2\n      pop\n        /* \"#utility.yul\":5068:5186   */\n      pop\n        /* \"#utility.yul\":4428:5193   */\n      swap3\n      swap6\n      swap2\n      swap5\n      pop\n      swap3\n      pop\n      jump\t// out\n        /* \"#utility.yul\":5199:5366   */\n    tag_358:\n        /* \"#utility.yul\":5262:5272   */\n      0x00\n        /* \"#utility.yul\":5283:5323   */\n      tag_360\n        /* \"#utility.yul\":5319:5322   */\n      dup4\n        /* \"#utility.yul\":5311:5317   */\n      dup4\n        /* \"#utility.yul\":5283:5323   */\n      tag_361\n      jump\t// in\n    tag_360:\n        /* \"#utility.yul\":5355:5359   */\n      0x20\n        /* \"#utility.yul\":5350:5353   */\n      dup4\n        /* \"#utility.yul\":5346:5360   */\n      add\n        /* \"#utility.yul\":5332:5360   */\n      swap1\n      pop\n        /* \"#utility.yul\":5199:5366   */\n      swap3\n      swap2\n      pop\n      pop\n      jump\t// out\n        /* \"#utility.yul\":5372:5631   */\n    tag_362:\n        /* \"#utility.yul\":5481:5491   */\n      0x00\n        /* \"#utility.yul\":5502:5588   */\n      tag_364\n        /* \"#utility.yul\":5584:5587   */\n      dup4\n        /* \"#utility.yul\":5576:5582   */\n      dup4\n        /* \"#utility.yul\":5502:5588   */\n      tag_365\n      jump\t// in\n    tag_364:\n        /* \"#utility.yul\":5620:5624   */\n      0xc0\n        /* \"#utility.yul\":5615:5618   */\n      dup4\n        /* \"#utility.yul\":5611:5625   */\n      add\n        /* \"#utility.yul\":5597:5625   */\n      swap1\n      pop\n        /* \"#utility.yul\":5372:5631   */\n      swap3\n      swap2\n      pop\n      pop\n      jump\t// out\n        /* \"#utility.yul\":5637:5873   */\n    tag_366:\n        /* \"#utility.yul\":5746:5756   */\n      0x00\n        /* \"#utility.yul\":5781:5867   */\n      tag_368\n        /* \"#utility.yul\":5863:5866   */\n      dup4\n        /* \"#utility.yul\":5855:5861   */\n      dup4\n        /* \"#utility.yul\":5781:5867   */\n      tag_369\n      jump\t// in\n    tag_368:\n        /* \"#utility.yul\":5767:5867   */\n      swap1\n      pop\n        /* \"#utility.yul\":5637:5873   */\n      swap3\n      swap2\n      pop\n      pop\n      jump\t// out\n        /* \"#utility.yul\":5879:6058   */\n    tag_370:\n        /* \"#utility.yul\":5948:5958   */\n      0x00\n        /* \"#utility.yul\":5969:6015   */\n      tag_372\n        /* \"#utility.yul\":6011:6014   */\n      dup4\n        /* \"#utility.yul\":6003:6009   */\n      dup4\n        /* \"#utility.yul\":5969:6015   */\n      tag_373\n      jump\t// in\n    tag_372:\n        /* \"#utility.yul\":6047:6051   */\n      0x20\n        /* \"#utility.yul\":6042:6045   */\n      dup4\n        /* \"#utility.yul\":6038:6052   */\n      add\n        /* \"#utility.yul\":6024:6052   */\n      swap1\n      pop\n        /* \"#utility.yul\":5879:6058   */\n      swap3\n      swap2\n      pop\n      pop\n      jump\t// out\n        /* \"#utility.yul\":6064:6172   */\n    tag_374:\n        /* \"#utility.yul\":6141:6165   */\n      tag_376\n        /* \"#utility.yul\":6159:6164   */\n      dup2\n        /* \"#utility.yul\":6141:6165   */\n      tag_377\n      jump\t// in\n    tag_376:\n        /* \"#utility.yul\":6136:6139   */\n      dup3\n        /* \"#utility.yul\":6129:6166   */\n      mstore\n        /* \"#utility.yul\":6064:6172   */\n      pop\n      pop\n      jump\t// out\n        /* \"#utility.yul\":6178:6296   */\n    tag_378:\n        /* \"#utility.yul\":6265:6289   */\n      tag_380\n        /* \"#utility.yul\":6283:6288   */\n      dup2\n        /* \"#utility.yul\":6265:6289   */\n      tag_377\n      jump\t// in\n    tag_380:\n        /* \"#utility.yul\":6260:6263   */\n      dup3\n        /* \"#utility.yul\":6253:6290   */\n      mstore\n        /* \"#utility.yul\":6178:6296   */\n      pop\n      pop\n      jump\t// out\n        /* \"#utility.yul\":6326:7014   */\n    tag_381:\n        /* \"#utility.yul\":6429:6432   */\n      0x00\n        /* \"#utility.yul\":6458:6509   */\n      tag_383\n        /* \"#utility.yul\":6503:6508   */\n      dup3\n        /* \"#utility.yul\":6458:6509   */\n      tag_384\n      jump\t// in\n    tag_383:\n        /* \"#utility.yul\":6525:6598   */\n      tag_385\n        /* \"#utility.yul\":6591:6597   */\n      dup2\n        /* \"#utility.yul\":6586:6589   */\n      dup6\n        /* \"#utility.yul\":6525:6598   */\n      tag_386\n      jump\t// in\n    tag_385:\n        /* \"#utility.yul\":6518:6598   */\n      swap4\n      pop\n        /* \"#utility.yul\":6622:6675   */\n      tag_387\n        /* \"#utility.yul\":6669:6674   */\n      dup4\n        /* \"#utility.yul\":6622:6675   */\n      tag_388\n      jump\t// in\n    tag_387:\n        /* \"#utility.yul\":6698:6705   */\n      dup1\n        /* \"#utility.yul\":6729:6730   */\n      0x00\n        /* \"#utility.yul\":6714:6989   */\n    tag_389:\n        /* \"#utility.yul\":6739:6745   */\n      dup4\n        /* \"#utility.yul\":6736:6737   */\n      dup2\n        /* \"#utility.yul\":6733:6746   */\n      lt\n        /* \"#utility.yul\":6714:6989   */\n      iszero\n      tag_391\n      jumpi\n        /* \"#utility.yul\":6815:6821   */\n      dup2\n        /* \"#utility.yul\":6809:6822   */\n      mload\n        /* \"#utility.yul\":6842:6899   */\n      tag_392\n        /* \"#utility.yul\":6895:6898   */\n      dup9\n        /* \"#utility.yul\":6880:6893   */\n      dup3\n        /* \"#utility.yul\":6842:6899   */\n      tag_358\n      jump\t// in\n    tag_392:\n        /* \"#utility.yul\":6835:6899   */\n      swap8\n      pop\n        /* \"#utility.yul\":6922:6979   */\n      tag_393\n        /* \"#utility.yul\":6972:6978   */\n      dup4\n        /* \"#utility.yul\":6922:6979   */\n      tag_394\n      jump\t// in\n    tag_393:\n        /* \"#utility.yul\":6912:6979   */\n      swap3\n      pop\n        /* \"#utility.yul\":6774:6989   */\n      pop\n        /* \"#utility.yul\":6761:6762   */\n      0x01\n        /* \"#utility.yul\":6758:6759   */\n      dup2\n        /* \"#utility.yul\":6754:6763   */\n      add\n        /* \"#utility.yul\":6749:6763   */\n      swap1\n      pop\n        /* \"#utility.yul\":6714:6989   */\n      jump(tag_389)\n    tag_391:\n        /* \"#utility.yul\":6718:6732   */\n      pop\n        /* \"#utility.yul\":7005:7008   */\n      dup6\n        /* \"#utility.yul\":6998:7008   */\n      swap4\n      pop\n        /* \"#utility.yul\":6434:7014   */\n      pop\n      pop\n      pop\n        /* \"#utility.yul\":6326:7014   */\n      swap3\n      swap2\n      pop\n      pop\n      jump\t// out\n        /* \"#utility.yul\":7078:7970   */\n    tag_395:\n        /* \"#utility.yul\":7237:7240   */\n      0x00\n        /* \"#utility.yul\":7266:7340   */\n      tag_397\n        /* \"#utility.yul\":7334:7339   */\n      dup3\n        /* \"#utility.yul\":7266:7340   */\n      tag_398\n      jump\t// in\n    tag_397:\n        /* \"#utility.yul\":7356:7462   */\n      tag_399\n        /* \"#utility.yul\":7455:7461   */\n      dup2\n        /* \"#utility.yul\":7450:7453   */\n      dup6\n        /* \"#utility.yul\":7356:7462   */\n      tag_400\n      jump\t// in\n    tag_399:\n        /* \"#utility.yul\":7349:7462   */\n      swap4\n      pop\n        /* \"#utility.yul\":7486:7562   */\n      tag_401\n        /* \"#utility.yul\":7556:7561   */\n      dup4\n        /* \"#utility.yul\":7486:7562   */\n      tag_402\n      jump\t// in\n    tag_401:\n        /* \"#utility.yul\":7585:7592   */\n      dup1\n        /* \"#utility.yul\":7616:7617   */\n      0x00\n        /* \"#utility.yul\":7601:7945   */\n    tag_403:\n        /* \"#utility.yul\":7626:7632   */\n      dup4\n        /* \"#utility.yul\":7623:7624   */\n      dup2\n        /* \"#utility.yul\":7620:7633   */\n      lt\n        /* \"#utility.yul\":7601:7945   */\n      iszero\n      tag_405\n      jumpi\n        /* \"#utility.yul\":7702:7708   */\n      dup2\n        /* \"#utility.yul\":7696:7709   */\n      mload\n        /* \"#utility.yul\":7729:7832   */\n      tag_406\n        /* \"#utility.yul\":7828:7831   */\n      dup9\n        /* \"#utility.yul\":7813:7826   */\n      dup3\n        /* \"#utility.yul\":7729:7832   */\n      tag_362\n      jump\t// in\n    tag_406:\n        /* \"#utility.yul\":7722:7832   */\n      swap8\n      pop\n        /* \"#utility.yul\":7855:7935   */\n      tag_407\n        /* \"#utility.yul\":7928:7934   */\n      dup4\n        /* \"#utility.yul\":7855:7935   */\n      tag_408\n      jump\t// in\n    tag_407:\n        /* \"#utility.yul\":7845:7935   */\n      swap3\n      pop\n        /* \"#utility.yul\":7661:7945   */\n      pop\n        /* \"#utility.yul\":7648:7649   */\n      0x01\n        /* \"#utility.yul\":7645:7646   */\n      dup2\n        /* \"#utility.yul\":7641:7650   */\n      add\n        /* \"#utility.yul\":7636:7650   */\n      swap1\n      pop\n        /* \"#utility.yul\":7601:7945   */\n      jump(tag_403)\n    tag_405:\n        /* \"#utility.yul\":7605:7619   */\n      pop\n        /* \"#utility.yul\":7961:7964   */\n      dup6\n        /* \"#utility.yul\":7954:7964   */\n      swap4\n      pop\n        /* \"#utility.yul\":7242:7970   */\n      pop\n      pop\n      pop\n        /* \"#utility.yul\":7078:7970   */\n      swap3\n      swap2\n      pop\n      pop\n      jump\t// out\n        /* \"#utility.yul\":8034:9105   */\n    tag_409:\n        /* \"#utility.yul\":8193:8196   */\n      0x00\n        /* \"#utility.yul\":8222:8296   */\n      tag_411\n        /* \"#utility.yul\":8290:8295   */\n      dup3\n        /* \"#utility.yul\":8222:8296   */\n      tag_412\n      jump\t// in\n    tag_411:\n        /* \"#utility.yul\":8312:8418   */\n      tag_413\n        /* \"#utility.yul\":8411:8417   */\n      dup2\n        /* \"#utility.yul\":8406:8409   */\n      dup6\n        /* \"#utility.yul\":8312:8418   */\n      tag_414\n      jump\t// in\n    tag_413:\n        /* \"#utility.yul\":8305:8418   */\n      swap4\n      pop\n        /* \"#utility.yul\":8444:8447   */\n      dup4\n        /* \"#utility.yul\":8489:8493   */\n      0x20\n        /* \"#utility.yul\":8481:8487   */\n      dup3\n        /* \"#utility.yul\":8477:8494   */\n      mul\n        /* \"#utility.yul\":8472:8475   */\n      dup6\n        /* \"#utility.yul\":8468:8495   */\n      add\n        /* \"#utility.yul\":8519:8595   */\n      tag_415\n        /* \"#utility.yul\":8589:8594   */\n      dup6\n        /* \"#utility.yul\":8519:8595   */\n      tag_416\n      jump\t// in\n    tag_415:\n        /* \"#utility.yul\":8618:8625   */\n      dup1\n        /* \"#utility.yul\":8649:8650   */\n      0x00\n        /* \"#utility.yul\":8634:9060   */\n    tag_417:\n        /* \"#utility.yul\":8659:8665   */\n      dup6\n        /* \"#utility.yul\":8656:8657   */\n      dup2\n        /* \"#utility.yul\":8653:8666   */\n      lt\n        /* \"#utility.yul\":8634:9060   */\n      iszero\n      tag_419\n      jumpi\n        /* \"#utility.yul\":8730:8739   */\n      dup5\n        /* \"#utility.yul\":8724:8728   */\n      dup5\n        /* \"#utility.yul\":8720:8740   */\n      sub\n        /* \"#utility.yul\":8715:8718   */\n      dup10\n        /* \"#utility.yul\":8708:8741   */\n      mstore\n        /* \"#utility.yul\":8781:8787   */\n      dup2\n        /* \"#utility.yul\":8775:8788   */\n      mload\n        /* \"#utility.yul\":8809:8913   */\n      tag_420\n        /* \"#utility.yul\":8908:8912   */\n      dup6\n        /* \"#utility.yul\":8893:8906   */\n      dup3\n        /* \"#utility.yul\":8809:8913   */\n      tag_366\n      jump\t// in\n    tag_420:\n        /* \"#utility.yul\":8801:8913   */\n      swap5\n      pop\n        /* \"#utility.yul\":8936:9016   */\n      tag_421\n        /* \"#utility.yul\":9009:9015   */\n      dup4\n        /* \"#utility.yul\":8936:9016   */\n      tag_422\n      jump\t// in\n    tag_421:\n        /* \"#utility.yul\":8926:9016   */\n      swap3\n      pop\n        /* \"#utility.yul\":9045:9049   */\n      0x20\n        /* \"#utility.yul\":9040:9043   */\n      dup11\n        /* \"#utility.yul\":9036:9050   */\n      add\n        /* \"#utility.yul\":9029:9050   */\n      swap10\n      pop\n        /* \"#utility.yul\":8694:9060   */\n      pop\n        /* \"#utility.yul\":8681:8682   */\n      0x01\n        /* \"#utility.yul\":8678:8679   */\n      dup2\n        /* \"#utility.yul\":8674:8683   */\n      add\n        /* \"#utility.yul\":8669:8683   */\n      swap1\n      pop\n        /* \"#utility.yul\":8634:9060   */\n      jump(tag_417)\n    tag_419:\n        /* \"#utility.yul\":8638:8652   */\n      pop\n        /* \"#utility.yul\":9076:9080   */\n      dup3\n        /* \"#utility.yul\":9069:9080   */\n      swap8\n      pop\n        /* \"#utility.yul\":9096:9099   */\n      dup8\n        /* \"#utility.yul\":9089:9099   */\n      swap6\n      pop\n        /* \"#utility.yul\":8198:9105   */\n      pop\n      pop\n      pop\n      pop\n      pop\n        /* \"#utility.yul\":8034:9105   */\n      swap3\n      swap2\n      pop\n      pop\n      jump\t// out\n        /* \"#utility.yul\":9143:9837   */\n    tag_423:\n        /* \"#utility.yul\":9279:9331   */\n      tag_425\n        /* \"#utility.yul\":9325:9330   */\n      dup2\n        /* \"#utility.yul\":9279:9331   */\n      tag_426\n      jump\t// in\n    tag_425:\n        /* \"#utility.yul\":9347:9431   */\n      tag_427\n        /* \"#utility.yul\":9424:9430   */\n      dup2\n        /* \"#utility.yul\":9419:9422   */\n      dup5\n        /* \"#utility.yul\":9347:9431   */\n      tag_428\n      jump\t// in\n    tag_427:\n        /* \"#utility.yul\":9340:9431   */\n      swap3\n      pop\n        /* \"#utility.yul\":9455:9509   */\n      tag_429\n        /* \"#utility.yul\":9503:9508   */\n      dup3\n        /* \"#utility.yul\":9455:9509   */\n      tag_430\n      jump\t// in\n    tag_429:\n        /* \"#utility.yul\":9532:9539   */\n      dup1\n        /* \"#utility.yul\":9563:9564   */\n      0x00\n        /* \"#utility.yul\":9548:9830   */\n    tag_431:\n        /* \"#utility.yul\":9573:9579   */\n      dup4\n        /* \"#utility.yul\":9570:9571   */\n      dup2\n        /* \"#utility.yul\":9567:9580   */\n      lt\n        /* \"#utility.yul\":9548:9830   */\n      iszero\n      tag_433\n      jumpi\n        /* \"#utility.yul\":9649:9655   */\n      dup2\n        /* \"#utility.yul\":9643:9656   */\n      mload\n        /* \"#utility.yul\":9676:9739   */\n      tag_434\n        /* \"#utility.yul\":9735:9738   */\n      dup8\n        /* \"#utility.yul\":9720:9733   */\n      dup3\n        /* \"#utility.yul\":9676:9739   */\n      tag_370\n      jump\t// in\n    tag_434:\n        /* \"#utility.yul\":9669:9739   */\n      swap7\n      pop\n        /* \"#utility.yul\":9762:9820   */\n      tag_435\n        /* \"#utility.yul\":9813:9819   */\n      dup4\n        /* \"#utility.yul\":9762:9820   */\n      tag_436\n      jump\t// in\n    tag_435:\n        /* \"#utility.yul\":9752:9820   */\n      swap3\n      pop\n        /* \"#utility.yul\":9608:9830   */\n      pop\n        /* \"#utility.yul\":9595:9596   */\n      0x01\n        /* \"#utility.yul\":9592:9593   */\n      dup2\n        /* \"#utility.yul\":9588:9597   */\n      add\n        /* \"#utility.yul\":9583:9597   */\n      swap1\n      pop\n        /* \"#utility.yul\":9548:9830   */\n      jump(tag_431)\n    tag_433:\n        /* \"#utility.yul\":9552:9566   */\n      pop\n        /* \"#utility.yul\":9255:9837   */\n      pop\n      pop\n      pop\n        /* \"#utility.yul\":9143:9837   */\n      pop\n      pop\n      jump\t// out\n        /* \"#utility.yul\":9843:9942   */\n    tag_361:\n        /* \"#utility.yul\":9914:9935   */\n      tag_438\n        /* \"#utility.yul\":9929:9934   */\n      dup2\n        /* \"#utility.yul\":9914:9935   */\n      tag_439\n      jump\t// in\n    tag_438:\n        /* \"#utility.yul\":9909:9912   */\n      dup3\n        /* \"#utility.yul\":9902:9936   */\n      mstore\n        /* \"#utility.yul\":9843:9942   */\n      pop\n      pop\n      jump\t// out\n        /* \"#utility.yul\":9948:10057   */\n    tag_440:\n        /* \"#utility.yul\":10029:10050   */\n      tag_442\n        /* \"#utility.yul\":10044:10049   */\n      dup2\n        /* \"#utility.yul\":10029:10050   */\n      tag_439\n      jump\t// in\n    tag_442:\n        /* \"#utility.yul\":10024:10027   */\n      dup3\n        /* \"#utility.yul\":10017:10051   */\n      mstore\n        /* \"#utility.yul\":9948:10057   */\n      pop\n      pop\n      jump\t// out\n        /* \"#utility.yul\":10063:10407   */\n    tag_443:\n        /* \"#utility.yul\":10141:10144   */\n      0x00\n        /* \"#utility.yul\":10169:10208   */\n      tag_445\n        /* \"#utility.yul\":10202:10207   */\n      dup3\n        /* \"#utility.yul\":10169:10208   */\n      tag_446\n      jump\t// in\n    tag_445:\n        /* \"#utility.yul\":10224:10285   */\n      tag_447\n        /* \"#utility.yul\":10278:10284   */\n      dup2\n        /* \"#utility.yul\":10273:10276   */\n      dup6\n        /* \"#utility.yul\":10224:10285   */\n      tag_448\n      jump\t// in\n    tag_447:\n        /* \"#utility.yul\":10217:10285   */\n      swap4\n      pop\n        /* \"#utility.yul\":10294:10346   */\n      tag_449\n        /* \"#utility.yul\":10339:10345   */\n      dup2\n        /* \"#utility.yul\":10334:10337   */\n      dup6\n        /* \"#utility.yul\":10327:10331   */\n      0x20\n        /* \"#utility.yul\":10320:10325   */\n      dup7\n        /* \"#utility.yul\":10316:10332   */\n      add\n        /* \"#utility.yul\":10294:10346   */\n      tag_450\n      jump\t// in\n    tag_449:\n        /* \"#utility.yul\":10371:10400   */\n      tag_451\n        /* \"#utility.yul\":10393:10399   */\n      dup2\n        /* \"#utility.yul\":10371:10400   */\n      tag_452\n      jump\t// in\n    tag_451:\n        /* \"#utility.yul\":10366:10369   */\n      dup5\n        /* \"#utility.yul\":10362:10401   */\n      add\n        /* \"#utility.yul\":10355:10401   */\n      swap2\n      pop\n        /* \"#utility.yul\":10145:10407   */\n      pop\n        /* \"#utility.yul\":10063:10407   */\n      swap3\n      swap2\n      pop\n      pop\n      jump\t// out\n        /* \"#utility.yul\":10413:10777   */\n    tag_453:\n        /* \"#utility.yul\":10501:10504   */\n      0x00\n        /* \"#utility.yul\":10529:10568   */\n      tag_455\n        /* \"#utility.yul\":10562:10567   */\n      dup3\n        /* \"#utility.yul\":10529:10568   */\n      tag_446\n      jump\t// in\n    tag_455:\n        /* \"#utility.yul\":10584:10655   */\n      tag_456\n        /* \"#utility.yul\":10648:10654   */\n      dup2\n        /* \"#utility.yul\":10643:10646   */\n      dup6\n        /* \"#utility.yul\":10584:10655   */\n      tag_457\n      jump\t// in\n    tag_456:\n        /* \"#utility.yul\":10577:10655   */\n      swap4\n      pop\n        /* \"#utility.yul\":10664:10716   */\n      tag_458\n        /* \"#utility.yul\":10709:10715   */\n      dup2\n        /* \"#utility.yul\":10704:10707   */\n      dup6\n        /* \"#utility.yul\":10697:10701   */\n      0x20\n        /* \"#utility.yul\":10690:10695   */\n      dup7\n        /* \"#utility.yul\":10686:10702   */\n      add\n        /* \"#utility.yul\":10664:10716   */\n      tag_450\n      jump\t// in\n    tag_458:\n        /* \"#utility.yul\":10741:10770   */\n      tag_459\n        /* \"#utility.yul\":10763:10769   */\n      dup2\n        /* \"#utility.yul\":10741:10770   */\n      tag_452\n      jump\t// in\n    tag_459:\n        /* \"#utility.yul\":10736:10739   */\n      dup5\n        /* \"#utility.yul\":10732:10771   */\n      add\n        /* \"#utility.yul\":10725:10771   */\n      swap2\n      pop\n        /* \"#utility.yul\":10505:10777   */\n      pop\n        /* \"#utility.yul\":10413:10777   */\n      swap3\n      swap2\n      pop\n      pop\n      jump\t// out\n        /* \"#utility.yul\":10783:11149   */\n    tag_460:\n        /* \"#utility.yul\":10925:10928   */\n      0x00\n        /* \"#utility.yul\":10946:11013   */\n      tag_462\n        /* \"#utility.yul\":11010:11012   */\n      0x0d\n        /* \"#utility.yul\":11005:11008   */\n      dup4\n        /* \"#utility.yul\":10946:11013   */\n      tag_457\n      jump\t// in\n    tag_462:\n        /* \"#utility.yul\":10939:11013   */\n      swap2\n      pop\n        /* \"#utility.yul\":11022:11115   */\n      tag_463\n        /* \"#utility.yul\":11111:11114   */\n      dup3\n        /* \"#utility.yul\":11022:11115   */\n      tag_464\n      jump\t// in\n    tag_463:\n        /* \"#utility.yul\":11140:11142   */\n      0x20\n        /* \"#utility.yul\":11135:11138   */\n      dup3\n        /* \"#utility.yul\":11131:11143   */\n      add\n        /* \"#utility.yul\":11124:11143   */\n      swap1\n      pop\n        /* \"#utility.yul\":10783:11149   */\n      swap2\n      swap1\n      pop\n      jump\t// out\n        /* \"#utility.yul\":11155:11521   */\n    tag_465:\n        /* \"#utility.yul\":11297:11300   */\n      0x00\n        /* \"#utility.yul\":11318:11385   */\n      tag_467\n        /* \"#utility.yul\":11382:11384   */\n      0x0e\n        /* \"#utility.yul\":11377:11380   */\n      dup4\n        /* \"#utility.yul\":11318:11385   */\n      tag_457\n      jump\t// in\n    tag_467:\n        /* \"#utility.yul\":11311:11385   */\n      swap2\n      pop\n        /* \"#utility.yul\":11394:11487   */\n      tag_468\n        /* \"#utility.yul\":11483:11486   */\n      dup3\n        /* \"#utility.yul\":11394:11487   */\n      tag_469\n      jump\t// in\n    tag_468:\n        /* \"#utility.yul\":11512:11514   */\n      0x20\n        /* \"#utility.yul\":11507:11510   */\n      dup3\n        /* \"#utility.yul\":11503:11515   */\n      add\n        /* \"#utility.yul\":11496:11515   */\n      swap1\n      pop\n        /* \"#utility.yul\":11155:11521   */\n      swap2\n      swap1\n      pop\n      jump\t// out\n        /* \"#utility.yul\":11527:11893   */\n    tag_470:\n        /* \"#utility.yul\":11669:11672   */\n      0x00\n        /* \"#utility.yul\":11690:11757   */\n      tag_472\n        /* \"#utility.yul\":11754:11756   */\n      0x10\n        /* \"#utility.yul\":11749:11752   */\n      dup4\n        /* \"#utility.yul\":11690:11757   */\n      tag_457\n      jump\t// in\n    tag_472:\n        /* \"#utility.yul\":11683:11757   */\n      swap2\n      pop\n        /* \"#utility.yul\":11766:11859   */\n      tag_473\n        /* \"#utility.yul\":11855:11858   */\n      dup3\n        /* \"#utility.yul\":11766:11859   */\n      tag_474\n      jump\t// in\n    tag_473:\n        /* \"#utility.yul\":11884:11886   */\n      0x20\n        /* \"#utility.yul\":11879:11882   */\n      dup3\n        /* \"#utility.yul\":11875:11887   */\n      add\n        /* \"#utility.yul\":11868:11887   */\n      swap1\n      pop\n        /* \"#utility.yul\":11527:11893   */\n      swap2\n      swap1\n      pop\n      jump\t// out\n        /* \"#utility.yul\":11953:13156   */\n    tag_365:\n        /* \"#utility.yul\":12080:12084   */\n      0xc0\n        /* \"#utility.yul\":12075:12078   */\n      dup3\n        /* \"#utility.yul\":12071:12085   */\n      add\n        /* \"#utility.yul\":12165:12169   */\n      0x00\n        /* \"#utility.yul\":12158:12163   */\n      dup3\n        /* \"#utility.yul\":12154:12170   */\n      add\n        /* \"#utility.yul\":12148:12171   */\n      mload\n        /* \"#utility.yul\":12184:12247   */\n      tag_476\n        /* \"#utility.yul\":12241:12245   */\n      0x00\n        /* \"#utility.yul\":12236:12239   */\n      dup6\n        /* \"#utility.yul\":12232:12246   */\n      add\n        /* \"#utility.yul\":12218:12230   */\n      dup3\n        /* \"#utility.yul\":12184:12247   */\n      tag_373\n      jump\t// in\n    tag_476:\n        /* \"#utility.yul\":12095:12257   */\n      pop\n        /* \"#utility.yul\":12338:12342   */\n      0x20\n        /* \"#utility.yul\":12331:12336   */\n      dup3\n        /* \"#utility.yul\":12327:12343   */\n      add\n        /* \"#utility.yul\":12321:12344   */\n      mload\n        /* \"#utility.yul\":12357:12420   */\n      tag_477\n        /* \"#utility.yul\":12414:12418   */\n      0x20\n        /* \"#utility.yul\":12409:12412   */\n      dup6\n        /* \"#utility.yul\":12405:12419   */\n      add\n        /* \"#utility.yul\":12391:12403   */\n      dup3\n        /* \"#utility.yul\":12357:12420   */\n      tag_373\n      jump\t// in\n    tag_477:\n        /* \"#utility.yul\":12267:12430   */\n      pop\n        /* \"#utility.yul\":12518:12522   */\n      0x40\n        /* \"#utility.yul\":12511:12516   */\n      dup3\n        /* \"#utility.yul\":12507:12523   */\n      add\n        /* \"#utility.yul\":12501:12524   */\n      mload\n        /* \"#utility.yul\":12537:12600   */\n      tag_478\n        /* \"#utility.yul\":12594:12598   */\n      0x40\n        /* \"#utility.yul\":12589:12592   */\n      dup6\n        /* \"#utility.yul\":12585:12599   */\n      add\n        /* \"#utility.yul\":12571:12583   */\n      dup3\n        /* \"#utility.yul\":12537:12600   */\n      tag_373\n      jump\t// in\n    tag_478:\n        /* \"#utility.yul\":12440:12610   */\n      pop\n        /* \"#utility.yul\":12699:12703   */\n      0x60\n        /* \"#utility.yul\":12692:12697   */\n      dup3\n        /* \"#utility.yul\":12688:12704   */\n      add\n        /* \"#utility.yul\":12682:12705   */\n      mload\n        /* \"#utility.yul\":12718:12781   */\n      tag_479\n        /* \"#utility.yul\":12775:12779   */\n      0x60\n        /* \"#utility.yul\":12770:12773   */\n      dup6\n        /* \"#utility.yul\":12766:12780   */\n      add\n        /* \"#utility.yul\":12752:12764   */\n      dup3\n        /* \"#utility.yul\":12718:12781   */\n      tag_373\n      jump\t// in\n    tag_479:\n        /* \"#utility.yul\":12620:12791   */\n      pop\n        /* \"#utility.yul\":12881:12885   */\n      0x80\n        /* \"#utility.yul\":12874:12879   */\n      dup3\n        /* \"#utility.yul\":12870:12886   */\n      add\n        /* \"#utility.yul\":12864:12887   */\n      mload\n        /* \"#utility.yul\":12900:12963   */\n      tag_480\n        /* \"#utility.yul\":12957:12961   */\n      0x80\n        /* \"#utility.yul\":12952:12955   */\n      dup6\n        /* \"#utility.yul\":12948:12962   */\n      add\n        /* \"#utility.yul\":12934:12946   */\n      dup3\n        /* \"#utility.yul\":12900:12963   */\n      tag_373\n      jump\t// in\n    tag_480:\n        /* \"#utility.yul\":12801:12973   */\n      pop\n        /* \"#utility.yul\":13057:13061   */\n      0xa0\n        /* \"#utility.yul\":13050:13055   */\n      dup3\n        /* \"#utility.yul\":13046:13062   */\n      add\n        /* \"#utility.yul\":13040:13063   */\n      mload\n        /* \"#utility.yul\":13076:13139   */\n      tag_481\n        /* \"#utility.yul\":13133:13137   */\n      0xa0\n        /* \"#utility.yul\":13128:13131   */\n      dup6\n        /* \"#utility.yul\":13124:13138   */\n      add\n        /* \"#utility.yul\":13110:13122   */\n      dup3\n        /* \"#utility.yul\":13076:13139   */\n      tag_374\n      jump\t// in\n    tag_481:\n        /* \"#utility.yul\":12983:13149   */\n      pop\n        /* \"#utility.yul\":12049:13156   */\n      pop\n        /* \"#utility.yul\":11953:13156   */\n      pop\n      pop\n      jump\t// out\n        /* \"#utility.yul\":13216:14844   */\n    tag_369:\n        /* \"#utility.yul\":13315:13318   */\n      0x00\n        /* \"#utility.yul\":13351:13355   */\n      0xe0\n        /* \"#utility.yul\":13346:13349   */\n      dup4\n        /* \"#utility.yul\":13342:13356   */\n      add\n        /* \"#utility.yul\":13436:13440   */\n      0x00\n        /* \"#utility.yul\":13429:13434   */\n      dup4\n        /* \"#utility.yul\":13425:13441   */\n      add\n        /* \"#utility.yul\":13419:13442   */\n      mload\n        /* \"#utility.yul\":13455:13518   */\n      tag_483\n        /* \"#utility.yul\":13512:13516   */\n      0x00\n        /* \"#utility.yul\":13507:13510   */\n      dup7\n        /* \"#utility.yul\":13503:13517   */\n      add\n        /* \"#utility.yul\":13489:13501   */\n      dup3\n        /* \"#utility.yul\":13455:13518   */\n      tag_373\n      jump\t// in\n    tag_483:\n        /* \"#utility.yul\":13366:13528   */\n      pop\n        /* \"#utility.yul\":13610:13614   */\n      0x20\n        /* \"#utility.yul\":13603:13608   */\n      dup4\n        /* \"#utility.yul\":13599:13615   */\n      add\n        /* \"#utility.yul\":13593:13616   */\n      mload\n        /* \"#utility.yul\":13663:13666   */\n      dup5\n        /* \"#utility.yul\":13657:13661   */\n      dup3\n        /* \"#utility.yul\":13653:13667   */\n      sub\n        /* \"#utility.yul\":13646:13650   */\n      0x20\n        /* \"#utility.yul\":13641:13644   */\n      dup7\n        /* \"#utility.yul\":13637:13651   */\n      add\n        /* \"#utility.yul\":13630:13668   */\n      mstore\n        /* \"#utility.yul\":13689:13762   */\n      tag_484\n        /* \"#utility.yul\":13757:13761   */\n      dup3\n        /* \"#utility.yul\":13743:13755   */\n      dup3\n        /* \"#utility.yul\":13689:13762   */\n      tag_443\n      jump\t// in\n    tag_484:\n        /* \"#utility.yul\":13681:13762   */\n      swap2\n      pop\n        /* \"#utility.yul\":13538:13773   */\n      pop\n        /* \"#utility.yul\":13859:13863   */\n      0x40\n        /* \"#utility.yul\":13852:13857   */\n      dup4\n        /* \"#utility.yul\":13848:13864   */\n      add\n        /* \"#utility.yul\":13842:13865   */\n      mload\n        /* \"#utility.yul\":13912:13915   */\n      dup5\n        /* \"#utility.yul\":13906:13910   */\n      dup3\n        /* \"#utility.yul\":13902:13916   */\n      sub\n        /* \"#utility.yul\":13895:13899   */\n      0x40\n        /* \"#utility.yul\":13890:13893   */\n      dup7\n        /* \"#utility.yul\":13886:13900   */\n      add\n        /* \"#utility.yul\":13879:13917   */\n      mstore\n        /* \"#utility.yul\":13938:14011   */\n      tag_485\n        /* \"#utility.yul\":14006:14010   */\n      dup3\n        /* \"#utility.yul\":13992:14004   */\n      dup3\n        /* \"#utility.yul\":13938:14011   */\n      tag_443\n      jump\t// in\n    tag_485:\n        /* \"#utility.yul\":13930:14011   */\n      swap2\n      pop\n        /* \"#utility.yul\":13783:14022   */\n      pop\n        /* \"#utility.yul\":14108:14112   */\n      0x60\n        /* \"#utility.yul\":14101:14106   */\n      dup4\n        /* \"#utility.yul\":14097:14113   */\n      add\n        /* \"#utility.yul\":14091:14114   */\n      mload\n        /* \"#utility.yul\":14127:14184   */\n      tag_486\n        /* \"#utility.yul\":14178:14182   */\n      0x60\n        /* \"#utility.yul\":14173:14176   */\n      dup7\n        /* \"#utility.yul\":14169:14183   */\n      add\n        /* \"#utility.yul\":14155:14167   */\n      dup3\n        /* \"#utility.yul\":14127:14184   */\n      tag_361\n      jump\t// in\n    tag_486:\n        /* \"#utility.yul\":14032:14194   */\n      pop\n        /* \"#utility.yul\":14277:14281   */\n      0x80\n        /* \"#utility.yul\":14270:14275   */\n      dup4\n        /* \"#utility.yul\":14266:14282   */\n      add\n        /* \"#utility.yul\":14260:14283   */\n      mload\n        /* \"#utility.yul\":14296:14359   */\n      tag_487\n        /* \"#utility.yul\":14353:14357   */\n      0x80\n        /* \"#utility.yul\":14348:14351   */\n      dup7\n        /* \"#utility.yul\":14344:14358   */\n      add\n        /* \"#utility.yul\":14330:14342   */\n      dup3\n        /* \"#utility.yul\":14296:14359   */\n      tag_373\n      jump\t// in\n    tag_487:\n        /* \"#utility.yul\":14204:14369   */\n      pop\n        /* \"#utility.yul\":14452:14456   */\n      0xa0\n        /* \"#utility.yul\":14445:14450   */\n      dup4\n        /* \"#utility.yul\":14441:14457   */\n      add\n        /* \"#utility.yul\":14435:14458   */\n      mload\n        /* \"#utility.yul\":14471:14534   */\n      tag_488\n        /* \"#utility.yul\":14528:14532   */\n      0xa0\n        /* \"#utility.yul\":14523:14526   */\n      dup7\n        /* \"#utility.yul\":14519:14533   */\n      add\n        /* \"#utility.yul\":14505:14517   */\n      dup3\n        /* \"#utility.yul\":14471:14534   */\n      tag_374\n      jump\t// in\n    tag_488:\n        /* \"#utility.yul\":14379:14544   */\n      pop\n        /* \"#utility.yul\":14630:14634   */\n      0xc0\n        /* \"#utility.yul\":14623:14628   */\n      dup4\n        /* \"#utility.yul\":14619:14635   */\n      add\n        /* \"#utility.yul\":14613:14636   */\n      mload\n        /* \"#utility.yul\":14683:14686   */\n      dup5\n        /* \"#utility.yul\":14677:14681   */\n      dup3\n        /* \"#utility.yul\":14673:14687   */\n      sub\n        /* \"#utility.yul\":14666:14670   */\n      0xc0\n        /* \"#utility.yul\":14661:14664   */\n      dup7\n        /* \"#utility.yul\":14657:14671   */\n      add\n        /* \"#utility.yul\":14650:14688   */\n      mstore\n        /* \"#utility.yul\":14709:14806   */\n      tag_489\n        /* \"#utility.yul\":14801:14805   */\n      dup3\n        /* \"#utility.yul\":14787:14799   */\n      dup3\n        /* \"#utility.yul\":14709:14806   */\n      tag_381\n      jump\t// in\n    tag_489:\n        /* \"#utility.yul\":14701:14806   */\n      swap2\n      pop\n        /* \"#utility.yul\":14554:14817   */\n      pop\n        /* \"#utility.yul\":14834:14838   */\n      dup1\n        /* \"#utility.yul\":14827:14838   */\n      swap2\n      pop\n        /* \"#utility.yul\":13320:14844   */\n      pop\n        /* \"#utility.yul\":13216:14844   */\n      swap3\n      swap2\n      pop\n      pop\n      jump\t// out\n        /* \"#utility.yul\":14850:14958   */\n    tag_373:\n        /* \"#utility.yul\":14927:14951   */\n      tag_491\n        /* \"#utility.yul\":14945:14950   */\n      dup2\n        /* \"#utility.yul\":14927:14951   */\n      tag_492\n      jump\t// in\n    tag_491:\n        /* \"#utility.yul\":14922:14925   */\n      dup3\n        /* \"#utility.yul\":14915:14952   */\n      mstore\n        /* \"#utility.yul\":14850:14958   */\n      pop\n      pop\n      jump\t// out\n        /* \"#utility.yul\":14964:15082   */\n    tag_493:\n        /* \"#utility.yul\":15051:15075   */\n      tag_495\n        /* \"#utility.yul\":15069:15074   */\n      dup2\n        /* \"#utility.yul\":15051:15075   */\n      tag_492\n      jump\t// in\n    tag_495:\n        /* \"#utility.yul\":15046:15049   */\n      dup3\n        /* \"#utility.yul\":15039:15076   */\n      mstore\n        /* \"#utility.yul\":14964:15082   */\n      pop\n      pop\n      jump\t// out\n        /* \"#utility.yul\":15088:15541   */\n    tag_68:\n        /* \"#utility.yul\":15271:15275   */\n      0x00\n        /* \"#utility.yul\":15309:15311   */\n      0x20\n        /* \"#utility.yul\":15298:15307   */\n      dup3\n        /* \"#utility.yul\":15294:15312   */\n      add\n        /* \"#utility.yul\":15286:15312   */\n      swap1\n      pop\n        /* \"#utility.yul\":15358:15367   */\n      dup2\n        /* \"#utility.yul\":15352:15356   */\n      dup2\n        /* \"#utility.yul\":15348:15368   */\n      sub\n        /* \"#utility.yul\":15344:15345   */\n      0x00\n        /* \"#utility.yul\":15333:15342   */\n      dup4\n        /* \"#utility.yul\":15329:15346   */\n      add\n        /* \"#utility.yul\":15322:15369   */\n      mstore\n        /* \"#utility.yul\":15386:15534   */\n      tag_497\n        /* \"#utility.yul\":15529:15533   */\n      dup2\n        /* \"#utility.yul\":15520:15526   */\n      dup5\n        /* \"#utility.yul\":15386:15534   */\n      tag_395\n      jump\t// in\n    tag_497:\n        /* \"#utility.yul\":15378:15534   */\n      swap1\n      pop\n        /* \"#utility.yul\":15088:15541   */\n      swap3\n      swap2\n      pop\n      pop\n      jump\t// out\n        /* \"#utility.yul\":15547:16000   */\n    tag_88:\n        /* \"#utility.yul\":15730:15734   */\n      0x00\n        /* \"#utility.yul\":15768:15770   */\n      0x20\n        /* \"#utility.yul\":15757:15766   */\n      dup3\n        /* \"#utility.yul\":15753:15771   */\n      add\n        /* \"#utility.yul\":15745:15771   */\n      swap1\n      pop\n        /* \"#utility.yul\":15817:15826   */\n      dup2\n        /* \"#utility.yul\":15811:15815   */\n      dup2\n        /* \"#utility.yul\":15807:15827   */\n      sub\n        /* \"#utility.yul\":15803:15804   */\n      0x00\n        /* \"#utility.yul\":15792:15801   */\n      dup4\n        /* \"#utility.yul\":15788:15805   */\n      add\n        /* \"#utility.yul\":15781:15828   */\n      mstore\n        /* \"#utility.yul\":15845:15993   */\n      tag_499\n        /* \"#utility.yul\":15988:15992   */\n      dup2\n        /* \"#utility.yul\":15979:15985   */\n      dup5\n        /* \"#utility.yul\":15845:15993   */\n      tag_409\n      jump\t// in\n    tag_499:\n        /* \"#utility.yul\":15837:15993   */\n      swap1\n      pop\n        /* \"#utility.yul\":15547:16000   */\n      swap3\n      swap2\n      pop\n      pop\n      jump\t// out\n        /* \"#utility.yul\":16006:16320   */\n    tag_38:\n        /* \"#utility.yul\":16145:16149   */\n      0x00\n        /* \"#utility.yul\":16183:16185   */\n      0x40\n        /* \"#utility.yul\":16172:16181   */\n      dup3\n        /* \"#utility.yul\":16168:16186   */\n      add\n        /* \"#utility.yul\":16160:16186   */\n      swap1\n      pop\n        /* \"#utility.yul\":16196:16313   */\n      tag_501\n        /* \"#utility.yul\":16310:16311   */\n      0x00\n        /* \"#utility.yul\":16299:16308   */\n      dup4\n        /* \"#utility.yul\":16295:16312   */\n      add\n        /* \"#utility.yul\":16286:16292   */\n      dup5\n        /* \"#utility.yul\":16196:16313   */\n      tag_423\n      jump\t// in\n    tag_501:\n        /* \"#utility.yul\":16006:16320   */\n      swap3\n      swap2\n      pop\n      pop\n      jump\t// out\n        /* \"#utility.yul\":16326:16745   */\n    tag_221:\n        /* \"#utility.yul\":16492:16496   */\n      0x00\n        /* \"#utility.yul\":16530:16532   */\n      0x20\n        /* \"#utility.yul\":16519:16528   */\n      dup3\n        /* \"#utility.yul\":16515:16533   */\n      add\n        /* \"#utility.yul\":16507:16533   */\n      swap1\n      pop\n        /* \"#utility.yul\":16579:16588   */\n      dup2\n        /* \"#utility.yul\":16573:16577   */\n      dup2\n        /* \"#utility.yul\":16569:16589   */\n      sub\n        /* \"#utility.yul\":16565:16566   */\n      0x00\n        /* \"#utility.yul\":16554:16563   */\n      dup4\n        /* \"#utility.yul\":16550:16567   */\n      add\n        /* \"#utility.yul\":16543:16590   */\n      mstore\n        /* \"#utility.yul\":16607:16738   */\n      tag_503\n        /* \"#utility.yul\":16733:16737   */\n      dup2\n        /* \"#utility.yul\":16607:16738   */\n      tag_460\n      jump\t// in\n    tag_503:\n        /* \"#utility.yul\":16599:16738   */\n      swap1\n      pop\n        /* \"#utility.yul\":16326:16745   */\n      swap2\n      swap1\n      pop\n      jump\t// out\n        /* \"#utility.yul\":16751:17170   */\n    tag_212:\n        /* \"#utility.yul\":16917:16921   */\n      0x00\n        /* \"#utility.yul\":16955:16957   */\n      0x20\n        /* \"#utility.yul\":16944:16953   */\n      dup3\n        /* \"#utility.yul\":16940:16958   */\n      add\n        /* \"#utility.yul\":16932:16958   */\n      swap1\n      pop\n        /* \"#utility.yul\":17004:17013   */\n      dup2\n        /* \"#utility.yul\":16998:17002   */\n      dup2\n        /* \"#utility.yul\":16994:17014   */\n      sub\n        /* \"#utility.yul\":16990:16991   */\n      0x00\n        /* \"#utility.yul\":16979:16988   */\n      dup4\n        /* \"#utility.yul\":16975:16992   */\n      add\n        /* \"#utility.yul\":16968:17015   */\n      mstore\n        /* \"#utility.yul\":17032:17163   */\n      tag_505\n        /* \"#utility.yul\":17158:17162   */\n      dup2\n        /* \"#utility.yul\":17032:17163   */\n      tag_465\n      jump\t// in\n    tag_505:\n        /* \"#utility.yul\":17024:17163   */\n      swap1\n      pop\n        /* \"#utility.yul\":16751:17170   */\n      swap2\n      swap1\n      pop\n      jump\t// out\n        /* \"#utility.yul\":17176:17595   */\n    tag_204:\n        /* \"#utility.yul\":17342:17346   */\n      0x00\n        /* \"#utility.yul\":17380:17382   */\n      0x20\n        /* \"#utility.yul\":17369:17378   */\n      dup3\n        /* \"#utility.yul\":17365:17383   */\n      add\n        /* \"#utility.yul\":17357:17383   */\n      swap1\n      pop\n        /* \"#utility.yul\":17429:17438   */\n      dup2\n        /* \"#utility.yul\":17423:17427   */\n      dup2\n        /* \"#utility.yul\":17419:17439   */\n      sub\n        /* \"#utility.yul\":17415:17416   */\n      0x00\n        /* \"#utility.yul\":17404:17413   */\n      dup4\n        /* \"#utility.yul\":17400:17417   */\n      add\n        /* \"#utility.yul\":17393:17440   */\n      mstore\n        /* \"#utility.yul\":17457:17588   */\n      tag_507\n        /* \"#utility.yul\":17583:17587   */\n      dup2\n        /* \"#utility.yul\":17457:17588   */\n      tag_470\n      jump\t// in\n    tag_507:\n        /* \"#utility.yul\":17449:17588   */\n      swap1\n      pop\n        /* \"#utility.yul\":17176:17595   */\n      swap2\n      swap1\n      pop\n      jump\t// out\n        /* \"#utility.yul\":17601:17823   */\n    tag_53:\n        /* \"#utility.yul\":17694:17698   */\n      0x00\n        /* \"#utility.yul\":17732:17734   */\n      0x20\n        /* \"#utility.yul\":17721:17730   */\n      dup3\n        /* \"#utility.yul\":17717:17735   */\n      add\n        /* \"#utility.yul\":17709:17735   */\n      swap1\n      pop\n        /* \"#utility.yul\":17745:17816   */\n      tag_509\n        /* \"#utility.yul\":17813:17814   */\n      0x00\n        /* \"#utility.yul\":17802:17811   */\n      dup4\n        /* \"#utility.yul\":17798:17815   */\n      add\n        /* \"#utility.yul\":17789:17795   */\n      dup5\n        /* \"#utility.yul\":17745:17816   */\n      tag_493\n      jump\t// in\n    tag_509:\n        /* \"#utility.yul\":17601:17823   */\n      swap3\n      swap2\n      pop\n      pop\n      jump\t// out\n        /* \"#utility.yul\":17829:18774   */\n    tag_83:\n        /* \"#utility.yul\":18096:18100   */\n      0x00\n        /* \"#utility.yul\":18134:18137   */\n      0xc0\n        /* \"#utility.yul\":18123:18132   */\n      dup3\n        /* \"#utility.yul\":18119:18138   */\n      add\n        /* \"#utility.yul\":18111:18138   */\n      swap1\n      pop\n        /* \"#utility.yul\":18148:18219   */\n      tag_511\n        /* \"#utility.yul\":18216:18217   */\n      0x00\n        /* \"#utility.yul\":18205:18214   */\n      dup4\n        /* \"#utility.yul\":18201:18218   */\n      add\n        /* \"#utility.yul\":18192:18198   */\n      dup10\n        /* \"#utility.yul\":18148:18219   */\n      tag_493\n      jump\t// in\n    tag_511:\n        /* \"#utility.yul\":18266:18275   */\n      dup2\n        /* \"#utility.yul\":18260:18264   */\n      dup2\n        /* \"#utility.yul\":18256:18276   */\n      sub\n        /* \"#utility.yul\":18251:18253   */\n      0x20\n        /* \"#utility.yul\":18240:18249   */\n      dup4\n        /* \"#utility.yul\":18236:18254   */\n      add\n        /* \"#utility.yul\":18229:18277   */\n      mstore\n        /* \"#utility.yul\":18294:18372   */\n      tag_512\n        /* \"#utility.yul\":18367:18371   */\n      dup2\n        /* \"#utility.yul\":18358:18364   */\n      dup9\n        /* \"#utility.yul\":18294:18372   */\n      tag_453\n      jump\t// in\n    tag_512:\n        /* \"#utility.yul\":18286:18372   */\n      swap1\n      pop\n        /* \"#utility.yul\":18419:18428   */\n      dup2\n        /* \"#utility.yul\":18413:18417   */\n      dup2\n        /* \"#utility.yul\":18409:18429   */\n      sub\n        /* \"#utility.yul\":18404:18406   */\n      0x40\n        /* \"#utility.yul\":18393:18402   */\n      dup4\n        /* \"#utility.yul\":18389:18407   */\n      add\n        /* \"#utility.yul\":18382:18430   */\n      mstore\n        /* \"#utility.yul\":18447:18525   */\n      tag_513\n        /* \"#utility.yul\":18520:18524   */\n      dup2\n        /* \"#utility.yul\":18511:18517   */\n      dup8\n        /* \"#utility.yul\":18447:18525   */\n      tag_453\n      jump\t// in\n    tag_513:\n        /* \"#utility.yul\":18439:18525   */\n      swap1\n      pop\n        /* \"#utility.yul\":18535:18601   */\n      tag_514\n        /* \"#utility.yul\":18597:18599   */\n      0x60\n        /* \"#utility.yul\":18586:18595   */\n      dup4\n        /* \"#utility.yul\":18582:18600   */\n      add\n        /* \"#utility.yul\":18573:18579   */\n      dup7\n        /* \"#utility.yul\":18535:18601   */\n      tag_440\n      jump\t// in\n    tag_514:\n        /* \"#utility.yul\":18611:18684   */\n      tag_515\n        /* \"#utility.yul\":18679:18682   */\n      0x80\n        /* \"#utility.yul\":18668:18677   */\n      dup4\n        /* \"#utility.yul\":18664:18683   */\n      add\n        /* \"#utility.yul\":18655:18661   */\n      dup6\n        /* \"#utility.yul\":18611:18684   */\n      tag_493\n      jump\t// in\n    tag_515:\n        /* \"#utility.yul\":18694:18767   */\n      tag_516\n        /* \"#utility.yul\":18762:18765   */\n      0xa0\n        /* \"#utility.yul\":18751:18760   */\n      dup4\n        /* \"#utility.yul\":18747:18766   */\n      add\n        /* \"#utility.yul\":18738:18744   */\n      dup5\n        /* \"#utility.yul\":18694:18767   */\n      tag_378\n      jump\t// in\n    tag_516:\n        /* \"#utility.yul\":17829:18774   */\n      swap8\n      swap7\n      pop\n      pop\n      pop\n      pop\n      pop\n      pop\n      pop\n      jump\t// out\n        /* \"#utility.yul\":18780:19555   */\n    tag_25:\n        /* \"#utility.yul\":19013:19017   */\n      0x00\n        /* \"#utility.yul\":19051:19054   */\n      0xc0\n        /* \"#utility.yul\":19040:19049   */\n      dup3\n        /* \"#utility.yul\":19036:19055   */\n      add\n        /* \"#utility.yul\":19028:19055   */\n      swap1\n      pop\n        /* \"#utility.yul\":19065:19136   */\n      tag_518\n        /* \"#utility.yul\":19133:19134   */\n      0x00\n        /* \"#utility.yul\":19122:19131   */\n      dup4\n        /* \"#utility.yul\":19118:19135   */\n      add\n        /* \"#utility.yul\":19109:19115   */\n      dup10\n        /* \"#utility.yul\":19065:19136   */\n      tag_493\n      jump\t// in\n    tag_518:\n        /* \"#utility.yul\":19146:19218   */\n      tag_519\n        /* \"#utility.yul\":19214:19216   */\n      0x20\n        /* \"#utility.yul\":19203:19212   */\n      dup4\n        /* \"#utility.yul\":19199:19217   */\n      add\n        /* \"#utility.yul\":19190:19196   */\n      dup9\n        /* \"#utility.yul\":19146:19218   */\n      tag_493\n      jump\t// in\n    tag_519:\n        /* \"#utility.yul\":19228:19300   */\n      tag_520\n        /* \"#utility.yul\":19296:19298   */\n      0x40\n        /* \"#utility.yul\":19285:19294   */\n      dup4\n        /* \"#utility.yul\":19281:19299   */\n      add\n        /* \"#utility.yul\":19272:19278   */\n      dup8\n        /* \"#utility.yul\":19228:19300   */\n      tag_493\n      jump\t// in\n    tag_520:\n        /* \"#utility.yul\":19310:19382   */\n      tag_521\n        /* \"#utility.yul\":19378:19380   */\n      0x60\n        /* \"#utility.yul\":19367:19376   */\n      dup4\n        /* \"#utility.yul\":19363:19381   */\n      add\n        /* \"#utility.yul\":19354:19360   */\n      dup7\n        /* \"#utility.yul\":19310:19382   */\n      tag_493\n      jump\t// in\n    tag_521:\n        /* \"#utility.yul\":19392:19465   */\n      tag_522\n        /* \"#utility.yul\":19460:19463   */\n      0x80\n        /* \"#utility.yul\":19449:19458   */\n      dup4\n        /* \"#utility.yul\":19445:19464   */\n      add\n        /* \"#utility.yul\":19436:19442   */\n      dup6\n        /* \"#utility.yul\":19392:19465   */\n      tag_493\n      jump\t// in\n    tag_522:\n        /* \"#utility.yul\":19475:19548   */\n      tag_523\n        /* \"#utility.yul\":19543:19546   */\n      0xa0\n        /* \"#utility.yul\":19532:19541   */\n      dup4\n        /* \"#utility.yul\":19528:19547   */\n      add\n        /* \"#utility.yul\":19519:19525   */\n      dup5\n        /* \"#utility.yul\":19475:19548   */\n      tag_378\n      jump\t// in\n    tag_523:\n        /* \"#utility.yul\":18780:19555   */\n      swap8\n      swap7\n      pop\n      pop\n      pop\n      pop\n      pop\n      pop\n      pop\n      jump\t// out\n        /* \"#utility.yul\":19642:19771   */\n    tag_388:\n        /* \"#utility.yul\":19706:19710   */\n      0x00\n        /* \"#utility.yul\":19729:19732   */\n      dup2\n        /* \"#utility.yul\":19721:19732   */\n      swap1\n      pop\n        /* \"#utility.yul\":19759:19763   */\n      0x20\n        /* \"#utility.yul\":19754:19757   */\n      dup3\n        /* \"#utility.yul\":19750:19764   */\n      add\n        /* \"#utility.yul\":19742:19764   */\n      swap1\n      pop\n        /* \"#utility.yul\":19642:19771   */\n      swap2\n      swap1\n      pop\n      jump\t// out\n        /* \"#utility.yul\":19777:19929   */\n    tag_402:\n        /* \"#utility.yul\":19864:19868   */\n      0x00\n        /* \"#utility.yul\":19887:19890   */\n      dup2\n        /* \"#utility.yul\":19879:19890   */\n      swap1\n      pop\n        /* \"#utility.yul\":19917:19921   */\n      0x20\n        /* \"#utility.yul\":19912:19915   */\n      dup3\n        /* \"#utility.yul\":19908:19922   */\n      add\n        /* \"#utility.yul\":19900:19922   */\n      swap1\n      pop\n        /* \"#utility.yul\":19777:19929   */\n      swap2\n      swap1\n      pop\n      jump\t// out\n        /* \"#utility.yul\":19935:20087   */\n    tag_416:\n        /* \"#utility.yul\":20022:20026   */\n      0x00\n        /* \"#utility.yul\":20045:20048   */\n      dup2\n        /* \"#utility.yul\":20037:20048   */\n      swap1\n      pop\n        /* \"#utility.yul\":20075:20079   */\n      0x20\n        /* \"#utility.yul\":20070:20073   */\n      dup3\n        /* \"#utility.yul\":20066:20080   */\n      add\n        /* \"#utility.yul\":20058:20080   */\n      swap1\n      pop\n        /* \"#utility.yul\":19935:20087   */\n      swap2\n      swap1\n      pop\n      jump\t// out\n        /* \"#utility.yul\":20093:20191   */\n    tag_430:\n        /* \"#utility.yul\":20158:20162   */\n      0x00\n        /* \"#utility.yul\":20181:20184   */\n      dup2\n        /* \"#utility.yul\":20173:20184   */\n      swap1\n      pop\n        /* \"#utility.yul\":20093:20191   */\n      swap2\n      swap1\n      pop\n      jump\t// out\n        /* \"#utility.yul\":20197:20308   */\n    tag_384:\n        /* \"#utility.yul\":20261:20267   */\n      0x00\n        /* \"#utility.yul\":20295:20300   */\n      dup2\n        /* \"#utility.yul\":20289:20301   */\n      mload\n        /* \"#utility.yul\":20279:20301   */\n      swap1\n      pop\n        /* \"#utility.yul\":20197:20308   */\n      swap2\n      swap1\n      pop\n      jump\t// out\n        /* \"#utility.yul\":20314:20448   */\n    tag_398:\n        /* \"#utility.yul\":20401:20407   */\n      0x00\n        /* \"#utility.yul\":20435:20440   */\n      dup2\n        /* \"#utility.yul\":20429:20441   */\n      mload\n        /* \"#utility.yul\":20419:20441   */\n      swap1\n      pop\n        /* \"#utility.yul\":20314:20448   */\n      swap2\n      swap1\n      pop\n      jump\t// out\n        /* \"#utility.yul\":20454:20588   */\n    tag_412:\n        /* \"#utility.yul\":20541:20547   */\n      0x00\n        /* \"#utility.yul\":20575:20580   */\n      dup2\n        /* \"#utility.yul\":20569:20581   */\n      mload\n        /* \"#utility.yul\":20559:20581   */\n      swap1\n      pop\n        /* \"#utility.yul\":20454:20588   */\n      swap2\n      swap1\n      pop\n      jump\t// out\n        /* \"#utility.yul\":20594:20698   */\n    tag_426:\n        /* \"#utility.yul\":20659:20665   */\n      0x00\n        /* \"#utility.yul\":20687:20691   */\n      0x02\n        /* \"#utility.yul\":20677:20691   */\n      swap1\n      pop\n        /* \"#utility.yul\":20594:20698   */\n      swap2\n      swap1\n      pop\n      jump\t// out\n        /* \"#utility.yul\":20704:20803   */\n    tag_446:\n        /* \"#utility.yul\":20756:20762   */\n      0x00\n        /* \"#utility.yul\":20790:20795   */\n      dup2\n        /* \"#utility.yul\":20784:20796   */\n      mload\n        /* \"#utility.yul\":20774:20796   */\n      swap1\n      pop\n        /* \"#utility.yul\":20704:20803   */\n      swap2\n      swap1\n      pop\n      jump\t// out\n        /* \"#utility.yul\":20809:20919   */\n    tag_394:\n        /* \"#utility.yul\":20876:20880   */\n      0x00\n        /* \"#utility.yul\":20908:20912   */\n      0x20\n        /* \"#utility.yul\":20903:20906   */\n      dup3\n        /* \"#utility.yul\":20899:20913   */\n      add\n        /* \"#utility.yul\":20891:20913   */\n      swap1\n      pop\n        /* \"#utility.yul\":20809:20919   */\n      swap2\n      swap1\n      pop\n      jump\t// out\n        /* \"#utility.yul\":20925:21058   */\n    tag_408:\n        /* \"#utility.yul\":21015:21019   */\n      0x00\n        /* \"#utility.yul\":21047:21051   */\n      0x20\n        /* \"#utility.yul\":21042:21045   */\n      dup3\n        /* \"#utility.yul\":21038:21052   */\n      add\n        /* \"#utility.yul\":21030:21052   */\n      swap1\n      pop\n        /* \"#utility.yul\":20925:21058   */\n      swap2\n      swap1\n      pop\n      jump\t// out\n        /* \"#utility.yul\":21064:21197   */\n    tag_422:\n        /* \"#utility.yul\":21154:21158   */\n      0x00\n        /* \"#utility.yul\":21186:21190   */\n      0x20\n        /* \"#utility.yul\":21181:21184   */\n      dup3\n        /* \"#utility.yul\":21177:21191   */\n      add\n        /* \"#utility.yul\":21169:21191   */\n      swap1\n      pop\n        /* \"#utility.yul\":21064:21197   */\n      swap2\n      swap1\n      pop\n      jump\t// out\n        /* \"#utility.yul\":21203:21314   */\n    tag_436:\n        /* \"#utility.yul\":21271:21275   */\n      0x00\n        /* \"#utility.yul\":21303:21307   */\n      0x20\n        /* \"#utility.yul\":21298:21301   */\n      dup3\n        /* \"#utility.yul\":21294:21308   */\n      add\n        /* \"#utility.yul\":21286:21308   */\n      swap1\n      pop\n        /* \"#utility.yul\":21203:21314   */\n      swap2\n      swap1\n      pop\n      jump\t// out\n        /* \"#utility.yul\":21320:21491   */\n    tag_386:\n        /* \"#utility.yul\":21406:21417   */\n      0x00\n        /* \"#utility.yul\":21440:21446   */\n      dup3\n        /* \"#utility.yul\":21435:21438   */\n      dup3\n        /* \"#utility.yul\":21428:21447   */\n      mstore\n        /* \"#utility.yul\":21480:21484   */\n      0x20\n        /* \"#utility.yul\":21475:21478   */\n      dup3\n        /* \"#utility.yul\":21471:21485   */\n      add\n        /* \"#utility.yul\":21456:21485   */\n      swap1\n      pop\n        /* \"#utility.yul\":21320:21491   */\n      swap3\n      swap2\n      pop\n      pop\n      jump\t// out\n        /* \"#utility.yul\":21497:21701   */\n    tag_400:\n        /* \"#utility.yul\":21616:21627   */\n      0x00\n        /* \"#utility.yul\":21650:21656   */\n      dup3\n        /* \"#utility.yul\":21645:21648   */\n      dup3\n        /* \"#utility.yul\":21638:21657   */\n      mstore\n        /* \"#utility.yul\":21690:21694   */\n      0x20\n        /* \"#utility.yul\":21685:21688   */\n      dup3\n        /* \"#utility.yul\":21681:21695   */\n      add\n        /* \"#utility.yul\":21666:21695   */\n      swap1\n      pop\n        /* \"#utility.yul\":21497:21701   */\n      swap3\n      swap2\n      pop\n      pop\n      jump\t// out\n        /* \"#utility.yul\":21707:21911   */\n    tag_414:\n        /* \"#utility.yul\":21826:21837   */\n      0x00\n        /* \"#utility.yul\":21860:21866   */\n      dup3\n        /* \"#utility.yul\":21855:21858   */\n      dup3\n        /* \"#utility.yul\":21848:21867   */\n      mstore\n        /* \"#utility.yul\":21900:21904   */\n      0x20\n        /* \"#utility.yul\":21895:21898   */\n      dup3\n        /* \"#utility.yul\":21891:21905   */\n      add\n        /* \"#utility.yul\":21876:21905   */\n      swap1\n      pop\n        /* \"#utility.yul\":21707:21911   */\n      swap3\n      swap2\n      pop\n      pop\n      jump\t// out\n        /* \"#utility.yul\":21917:22060   */\n    tag_428:\n        /* \"#utility.yul\":22014:22025   */\n      0x00\n        /* \"#utility.yul\":22051:22054   */\n      dup2\n        /* \"#utility.yul\":22036:22054   */\n      swap1\n      pop\n        /* \"#utility.yul\":21917:22060   */\n      swap3\n      swap2\n      pop\n      pop\n      jump\t// out\n        /* \"#utility.yul\":22066:22225   */\n    tag_448:\n        /* \"#utility.yul\":22140:22151   */\n      0x00\n        /* \"#utility.yul\":22174:22180   */\n      dup3\n        /* \"#utility.yul\":22169:22172   */\n      dup3\n        /* \"#utility.yul\":22162:22181   */\n      mstore\n        /* \"#utility.yul\":22214:22218   */\n      0x20\n        /* \"#utility.yul\":22209:22212   */\n      dup3\n        /* \"#utility.yul\":22205:22219   */\n      add\n        /* \"#utility.yul\":22190:22219   */\n      swap1\n      pop\n        /* \"#utility.yul\":22066:22225   */\n      swap3\n      swap2\n      pop\n      pop\n      jump\t// out\n        /* \"#utility.yul\":22231:22400   */\n    tag_457:\n        /* \"#utility.yul\":22315:22326   */\n      0x00\n        /* \"#utility.yul\":22349:22355   */\n      dup3\n        /* \"#utility.yul\":22344:22347   */\n      dup3\n        /* \"#utility.yul\":22337:22356   */\n      mstore\n        /* \"#utility.yul\":22389:22393   */\n      0x20\n        /* \"#utility.yul\":22384:22387   */\n      dup3\n        /* \"#utility.yul\":22380:22394   */\n      add\n        /* \"#utility.yul\":22365:22394   */\n      swap1\n      pop\n        /* \"#utility.yul\":22231:22400   */\n      swap3\n      swap2\n      pop\n      pop\n      jump\t// out\n        /* \"#utility.yul\":22406:22711   */\n    tag_110:\n        /* \"#utility.yul\":22446:22449   */\n      0x00\n        /* \"#utility.yul\":22465:22485   */\n      tag_546\n        /* \"#utility.yul\":22483:22484   */\n      dup3\n        /* \"#utility.yul\":22465:22485   */\n      tag_492\n      jump\t// in\n    tag_546:\n        /* \"#utility.yul\":22460:22485   */\n      swap2\n      pop\n        /* \"#utility.yul\":22499:22519   */\n      tag_547\n        /* \"#utility.yul\":22517:22518   */\n      dup4\n        /* \"#utility.yul\":22499:22519   */\n      tag_492\n      jump\t// in\n    tag_547:\n        /* \"#utility.yul\":22494:22519   */\n      swap3\n      pop\n        /* \"#utility.yul\":22653:22654   */\n      dup3\n        /* \"#utility.yul\":22585:22651   */\n      0xffffffffffffffffffffffffffffffffffffffffffffffffffffffffffffffff\n        /* \"#utility.yul\":22581:22655   */\n      sub\n        /* \"#utility.yul\":22578:22579   */\n      dup3\n        /* \"#utility.yul\":22575:22656   */\n      gt\n        /* \"#utility.yul\":22572:22679   */\n      iszero\n      tag_548\n      jumpi\n        /* \"#utility.yul\":22659:22677   */\n      tag_549\n      tag_550\n      jump\t// in\n    tag_549:\n        /* \"#utility.yul\":22572:22679   */\n    tag_548:\n        /* \"#utility.yul\":22703:22704   */\n      dup3\n        /* \"#utility.yul\":22700:22701   */\n      dup3\n        /* \"#utility.yul\":22696:22705   */\n      add\n        /* \"#utility.yul\":22689:22705   */\n      swap1\n      pop\n        /* \"#utility.yul\":22406:22711   */\n      swap3\n      swap2\n      pop\n      pop\n      jump\t// out\n        /* \"#utility.yul\":22717:23065   */\n    tag_217:\n        /* \"#utility.yul\":22757:22764   */\n      0x00\n        /* \"#utility.yul\":22780:22800   */\n      tag_552\n        /* \"#utility.yul\":22798:22799   */\n      dup3\n        /* \"#utility.yul\":22780:22800   */\n      tag_492\n      jump\t// in\n    tag_552:\n        /* \"#utility.yul\":22775:22800   */\n      swap2\n      pop\n        /* \"#utility.yul\":22814:22834   */\n      tag_553\n        /* \"#utility.yul\":22832:22833   */\n      dup4\n        /* \"#utility.yul\":22814:22834   */\n      tag_492\n      jump\t// in\n    tag_553:\n        /* \"#utility.yul\":22809:22834   */\n      swap3\n      pop\n        /* \"#utility.yul\":23002:23003   */\n      dup2\n        /* \"#utility.yul\":22934:23000   */\n      0xffffffffffffffffffffffffffffffffffffffffffffffffffffffffffffffff\n        /* \"#utility.yul\":22930:23004   */\n      div\n        /* \"#utility.yul\":22927:22928   */\n      dup4\n        /* \"#utility.yul\":22924:23005   */\n      gt\n        /* \"#utility.yul\":22919:22920   */\n      dup3\n        /* \"#utility.yul\":22912:22921   */\n      iszero\n        /* \"#utility.yul\":22905:22922   */\n      iszero\n        /* \"#utility.yul\":22901:23006   */\n      and\n        /* \"#utility.yul\":22898:23029   */\n      iszero\n      tag_554\n      jumpi\n        /* \"#utility.yul\":23009:23027   */\n      tag_555\n      tag_550\n      jump\t// in\n    tag_555:\n        /* \"#utility.yul\":22898:23029   */\n    tag_554:\n        /* \"#utility.yul\":23057:23058   */\n      dup3\n        /* \"#utility.yul\":23054:23055   */\n      dup3\n        /* \"#utility.yul\":23050:23059   */\n      mul\n        /* \"#utility.yul\":23039:23059   */\n      swap1\n      pop\n        /* \"#utility.yul\":22717:23065   */\n      swap3\n      swap2\n      pop\n      pop\n      jump\t// out\n        /* \"#utility.yul\":23071:23262   */\n    tag_215:\n        /* \"#utility.yul\":23111:23115   */\n      0x00\n        /* \"#utility.yul\":23131:23151   */\n      tag_557\n        /* \"#utility.yul\":23149:23150   */\n      dup3\n        /* \"#utility.yul\":23131:23151   */\n      tag_492\n      jump\t// in\n    tag_557:\n        /* \"#utility.yul\":23126:23151   */\n      swap2\n      pop\n        /* \"#utility.yul\":23165:23185   */\n      tag_558\n        /* \"#utility.yul\":23183:23184   */\n      dup4\n        /* \"#utility.yul\":23165:23185   */\n      tag_492\n      jump\t// in\n    tag_558:\n        /* \"#utility.yul\":23160:23185   */\n      swap3\n      pop\n        /* \"#utility.yul\":23204:23205   */\n      dup3\n        /* \"#utility.yul\":23201:23202   */\n      dup3\n        /* \"#utility.yul\":23198:23206   */\n      lt\n        /* \"#utility.yul\":23195:23229   */\n      iszero\n      tag_559\n      jumpi\n        /* \"#utility.yul\":23209:23227   */\n      tag_560\n      tag_550\n      jump\t// in\n    tag_560:\n        /* \"#utility.yul\":23195:23229   */\n    tag_559:\n        /* \"#utility.yul\":23254:23255   */\n      dup3\n        /* \"#utility.yul\":23251:23252   */\n      dup3\n        /* \"#utility.yul\":23247:23256   */\n      sub\n        /* \"#utility.yul\":23239:23256   */\n      swap1\n      pop\n        /* \"#utility.yul\":23071:23262   */\n      swap3\n      swap2\n      pop\n      pop\n      jump\t// out\n        /* \"#utility.yul\":23268:23364   */\n    tag_377:\n        /* \"#utility.yul\":23305:23312   */\n      0x00\n        /* \"#utility.yul\":23334:23358   */\n      tag_562\n        /* \"#utility.yul\":23352:23357   */\n      dup3\n        /* \"#utility.yul\":23334:23358   */\n      tag_563\n      jump\t// in\n    tag_562:\n        /* \"#utility.yul\":23323:23358   */\n      swap1\n      pop\n        /* \"#utility.yul\":23268:23364   */\n      swap2\n      swap1\n      pop\n      jump\t// out\n        /* \"#utility.yul\":23370:23460   */\n    tag_439:\n        /* \"#utility.yul\":23404:23411   */\n      0x00\n        /* \"#utility.yul\":23447:23452   */\n      dup2\n        /* \"#utility.yul\":23440:23453   */\n      iszero\n        /* \"#utility.yul\":23433:23454   */\n      iszero\n        /* \"#utility.yul\":23422:23454   */\n      swap1\n      pop\n        /* \"#utility.yul\":23370:23460   */\n      swap2\n      swap1\n      pop\n      jump\t// out\n        /* \"#utility.yul\":23466:23592   */\n    tag_563:\n        /* \"#utility.yul\":23503:23510   */\n      0x00\n        /* \"#utility.yul\":23543:23585   */\n      0xffffffffffffffffffffffffffffffffffffffff\n        /* \"#utility.yul\":23536:23541   */\n      dup3\n        /* \"#utility.yul\":23532:23586   */\n      and\n        /* \"#utility.yul\":23521:23586   */\n      swap1\n      pop\n        /* \"#utility.yul\":23466:23592   */\n      swap2\n      swap1\n      pop\n      jump\t// out\n        /* \"#utility.yul\":23598:23675   */\n    tag_492:\n        /* \"#utility.yul\":23635:23642   */\n      0x00\n        /* \"#utility.yul\":23664:23669   */\n      dup2\n        /* \"#utility.yul\":23653:23669   */\n      swap1\n      pop\n        /* \"#utility.yul\":23598:23675   */\n      swap2\n      swap1\n      pop\n      jump\t// out\n        /* \"#utility.yul\":23681:23988   */\n    tag_450:\n        /* \"#utility.yul\":23749:23750   */\n      0x00\n        /* \"#utility.yul\":23759:23872   */\n    tag_568:\n        /* \"#utility.yul\":23773:23779   */\n      dup4\n        /* \"#utility.yul\":23770:23771   */\n      dup2\n        /* \"#utility.yul\":23767:23780   */\n      lt\n        /* \"#utility.yul\":23759:23872   */\n      iszero\n      tag_570\n      jumpi\n        /* \"#utility.yul\":23858:23859   */\n      dup1\n        /* \"#utility.yul\":23853:23856   */\n      dup3\n        /* \"#utility.yul\":23849:23860   */\n      add\n        /* \"#utility.yul\":23843:23861   */\n      mload\n        /* \"#utility.yul\":23839:23840   */\n      dup2\n        /* \"#utility.yul\":23834:23837   */\n      dup5\n        /* \"#utility.yul\":23830:23841   */\n      add\n        /* \"#utility.yul\":23823:23862   */\n      mstore\n        /* \"#utility.yul\":23795:23797   */\n      0x20\n        /* \"#utility.yul\":23792:23793   */\n      dup2\n        /* \"#utility.yul\":23788:23798   */\n      add\n        /* \"#utility.yul\":23783:23798   */\n      swap1\n      pop\n        /* \"#utility.yul\":23759:23872   */\n      jump(tag_568)\n    tag_570:\n        /* \"#utility.yul\":23890:23896   */\n      dup4\n        /* \"#utility.yul\":23887:23888   */\n      dup2\n        /* \"#utility.yul\":23884:23897   */\n      gt\n        /* \"#utility.yul\":23881:23982   */\n      iszero\n      tag_571\n      jumpi\n        /* \"#utility.yul\":23970:23971   */\n      0x00\n        /* \"#utility.yul\":23961:23967   */\n      dup5\n        /* \"#utility.yul\":23956:23959   */\n      dup5\n        /* \"#utility.yul\":23952:23968   */\n      add\n        /* \"#utility.yul\":23945:23972   */\n      mstore\n        /* \"#utility.yul\":23881:23982   */\n    tag_571:\n        /* \"#utility.yul\":23730:23988   */\n      pop\n        /* \"#utility.yul\":23681:23988   */\n      pop\n      pop\n      pop\n      jump\t// out\n        /* \"#utility.yul\":23994:24314   */\n    tag_162:\n        /* \"#utility.yul\":24038:24044   */\n      0x00\n        /* \"#utility.yul\":24075:24076   */\n      0x02\n        /* \"#utility.yul\":24069:24073   */\n      dup3\n        /* \"#utility.yul\":24065:24077   */\n      div\n        /* \"#utility.yul\":24055:24077   */\n      swap1\n      pop\n        /* \"#utility.yul\":24122:24123   */\n      0x01\n        /* \"#utility.yul\":24116:24120   */\n      dup3\n        /* \"#utility.yul\":24112:24124   */\n      and\n        /* \"#utility.yul\":24143:24161   */\n      dup1\n        /* \"#utility.yul\":24133:24214   */\n      tag_573\n      jumpi\n        /* \"#utility.yul\":24199:24203   */\n      0x7f\n        /* \"#utility.yul\":24191:24197   */\n      dup3\n        /* \"#utility.yul\":24187:24204   */\n      and\n        /* \"#utility.yul\":24177:24204   */\n      swap2\n      pop\n        /* \"#utility.yul\":24133:24214   */\n    tag_573:\n        /* \"#utility.yul\":24261:24263   */\n      0x20\n        /* \"#utility.yul\":24253:24259   */\n      dup3\n        /* \"#utility.yul\":24250:24264   */\n      lt\n        /* \"#utility.yul\":24230:24248   */\n      dup2\n        /* \"#utility.yul\":24227:24265   */\n      eq\n        /* \"#utility.yul\":24224:24308   */\n      iszero\n      tag_574\n      jumpi\n        /* \"#utility.yul\":24280:24298   */\n      tag_575\n      tag_576\n      jump\t// in\n    tag_575:\n        /* \"#utility.yul\":24224:24308   */\n    tag_574:\n        /* \"#utility.yul\":24045:24314   */\n      pop\n        /* \"#utility.yul\":23994:24314   */\n      swap2\n      swap1\n      pop\n      jump\t// out\n        /* \"#utility.yul\":24320:24553   */\n    tag_131:\n        /* \"#utility.yul\":24359:24362   */\n      0x00\n        /* \"#utility.yul\":24382:24406   */\n      tag_578\n        /* \"#utility.yul\":24400:24405   */\n      dup3\n        /* \"#utility.yul\":24382:24406   */\n      tag_492\n      jump\t// in\n    tag_578:\n        /* \"#utility.yul\":24373:24406   */\n      swap2\n      pop\n        /* \"#utility.yul\":24428:24494   */\n      0xffffffffffffffffffffffffffffffffffffffffffffffffffffffffffffffff\n        /* \"#utility.yul\":24421:24426   */\n      dup3\n        /* \"#utility.yul\":24418:24495   */\n      eq\n        /* \"#utility.yul\":24415:24518   */\n      iszero\n      tag_579\n      jumpi\n        /* \"#utility.yul\":24498:24516   */\n      tag_580\n      tag_550\n      jump\t// in\n    tag_580:\n        /* \"#utility.yul\":24415:24518   */\n    tag_579:\n        /* \"#utility.yul\":24545:24546   */\n      0x01\n        /* \"#utility.yul\":24538:24543   */\n      dup3\n        /* \"#utility.yul\":24534:24547   */\n      add\n        /* \"#utility.yul\":24527:24547   */\n      swap1\n      pop\n        /* \"#utility.yul\":24320:24553   */\n      swap2\n      swap1\n      pop\n      jump\t// out\n        /* \"#utility.yul\":24559:24739   */\n    tag_550:\n        /* \"#utility.yul\":24607:24684   */\n      0x4e487b7100000000000000000000000000000000000000000000000000000000\n        /* \"#utility.yul\":24604:24605   */\n      0x00\n        /* \"#utility.yul\":24597:24685   */\n      mstore\n        /* \"#utility.yul\":24704:24708   */\n      0x11\n        /* \"#utility.yul\":24701:24702   */\n      0x04\n        /* \"#utility.yul\":24694:24709   */\n      mstore\n        /* \"#utility.yul\":24728:24732   */\n      0x24\n        /* \"#utility.yul\":24725:24726   */\n      0x00\n        /* \"#utility.yul\":24718:24733   */\n      revert\n        /* \"#utility.yul\":24745:24925   */\n    tag_576:\n        /* \"#utility.yul\":24793:24870   */\n      0x4e487b7100000000000000000000000000000000000000000000000000000000\n        /* \"#utility.yul\":24790:24791   */\n      0x00\n        /* \"#utility.yul\":24783:24871   */\n      mstore\n        /* \"#utility.yul\":24890:24894   */\n      0x22\n        /* \"#utility.yul\":24887:24888   */\n      0x04\n        /* \"#utility.yul\":24880:24895   */\n      mstore\n        /* \"#utility.yul\":24914:24918   */\n      0x24\n        /* \"#utility.yul\":24911:24912   */\n      0x00\n        /* \"#utility.yul\":24904:24919   */\n      revert\n        /* \"#utility.yul\":24931:25111   */\n    tag_105:\n        /* \"#utility.yul\":24979:25056   */\n      0x4e487b7100000000000000000000000000000000000000000000000000000000\n        /* \"#utility.yul\":24976:24977   */\n      0x00\n        /* \"#utility.yul\":24969:25057   */\n      mstore\n        /* \"#utility.yul\":25076:25080   */\n      0x32\n        /* \"#utility.yul\":25073:25074   */\n      0x04\n        /* \"#utility.yul\":25066:25081   */\n      mstore\n        /* \"#utility.yul\":25100:25104   */\n      0x24\n        /* \"#utility.yul\":25097:25098   */\n      0x00\n        /* \"#utility.yul\":25090:25105   */\n      revert\n        /* \"#utility.yul\":25117:25297   */\n    tag_185:\n        /* \"#utility.yul\":25165:25242   */\n      0x4e487b7100000000000000000000000000000000000000000000000000000000\n        /* \"#utility.yul\":25162:25163   */\n      0x00\n        /* \"#utility.yul\":25155:25243   */\n      mstore\n        /* \"#utility.yul\":25262:25266   */\n      0x41\n        /* \"#utility.yul\":25259:25260   */\n      0x04\n        /* \"#utility.yul\":25252:25267   */\n      mstore\n        /* \"#utility.yul\":25286:25290   */\n      0x24\n        /* \"#utility.yul\":25283:25284   */\n      0x00\n        /* \"#utility.yul\":25276:25291   */\n      revert\n        /* \"#utility.yul\":25303:25420   */\n    tag_306:\n        /* \"#utility.yul\":25412:25413   */\n      0x00\n        /* \"#utility.yul\":25409:25410   */\n      dup1\n        /* \"#utility.yul\":25402:25414   */\n      revert\n        /* \"#utility.yul\":25426:25543   */\n    tag_303:\n        /* \"#utility.yul\":25535:25536   */\n      0x00\n        /* \"#utility.yul\":25532:25533   */\n      dup1\n        /* \"#utility.yul\":25525:25537   */\n      revert\n        /* \"#utility.yul\":25549:25666   */\n    tag_309:\n        /* \"#utility.yul\":25658:25659   */\n      0x00\n        /* \"#utility.yul\":25655:25656   */\n      dup1\n        /* \"#utility.yul\":25648:25660   */\n      revert\n        /* \"#utility.yul\":25672:25789   */\n    tag_325:\n        /* \"#utility.yul\":25781:25782   */\n      0x00\n        /* \"#utility.yul\":25778:25779   */\n      dup1\n        /* \"#utility.yul\":25771:25783   */\n      revert\n        /* \"#utility.yul\":25795:25912   */\n    tag_317:\n        /* \"#utility.yul\":25904:25905   */\n      0x00\n        /* \"#utility.yul\":25901:25902   */\n      dup1\n        /* \"#utility.yul\":25894:25906   */\n      revert\n        /* \"#utility.yul\":25918:26020   */\n    tag_452:\n        /* \"#utility.yul\":25959:25965   */\n      0x00\n        /* \"#utility.yul\":26010:26012   */\n      0x1f\n        /* \"#utility.yul\":26006:26013   */\n      not\n        /* \"#utility.yul\":26001:26003   */\n      0x1f\n        /* \"#utility.yul\":25994:25999   */\n      dup4\n        /* \"#utility.yul\":25990:26004   */\n      add\n        /* \"#utility.yul\":25986:26014   */\n      and\n        /* \"#utility.yul\":25976:26014   */\n      swap1\n      pop\n        /* \"#utility.yul\":25918:26020   */\n      swap2\n      swap1\n      pop\n      jump\t// out\n        /* \"#utility.yul\":26026:26189   */\n    tag_464:\n        /* \"#utility.yul\":26166:26181   */\n      0x696e76616c696420707269636500000000000000000000000000000000000000\n        /* \"#utility.yul\":26162:26163   */\n      0x00\n        /* \"#utility.yul\":26154:26160   */\n      dup3\n        /* \"#utility.yul\":26150:26164   */\n      add\n        /* \"#utility.yul\":26143:26182   */\n      mstore\n        /* \"#utility.yul\":26026:26189   */\n      pop\n      jump\t// out\n        /* \"#utility.yul\":26195:26359   */\n    tag_469:\n        /* \"#utility.yul\":26335:26351   */\n      0x616c72656164792072656e746564000000000000000000000000000000000000\n        /* \"#utility.yul\":26331:26332   */\n      0x00\n        /* \"#utility.yul\":26323:26329   */\n      dup3\n        /* \"#utility.yul\":26319:26333   */\n      add\n        /* \"#utility.yul\":26312:26352   */\n      mstore\n        /* \"#utility.yul\":26195:26359   */\n      pop\n      jump\t// out\n        /* \"#utility.yul\":26365:26531   */\n    tag_474:\n        /* \"#utility.yul\":26505:26523   */\n      0x73686f756c652062652061637469766500000000000000000000000000000000\n        /* \"#utility.yul\":26501:26502   */\n      0x00\n        /* \"#utility.yul\":26493:26499   */\n      dup3\n        /* \"#utility.yul\":26489:26503   */\n      add\n        /* \"#utility.yul\":26482:26524   */\n      mstore\n        /* \"#utility.yul\":26365:26531   */\n      pop\n      jump\t// out\n        /* \"#utility.yul\":26537:26659   */\n    tag_294:\n        /* \"#utility.yul\":26610:26634   */\n      tag_595\n        /* \"#utility.yul\":26628:26633   */\n      dup2\n        /* \"#utility.yul\":26610:26634   */\n      tag_377\n      jump\t// in\n    tag_595:\n        /* \"#utility.yul\":26603:26608   */\n      dup2\n        /* \"#utility.yul\":26600:26635   */\n      eq\n        /* \"#utility.yul\":26590:26653   */\n      tag_596\n      jumpi\n        /* \"#utility.yul\":26649:26650   */\n      0x00\n        /* \"#utility.yul\":26646:26647   */\n      dup1\n        /* \"#utility.yul\":26639:26651   */\n      revert\n        /* \"#utility.yul\":26590:26653   */\n    tag_596:\n        /* \"#utility.yul\":26537:26659   */\n      pop\n      jump\t// out\n        /* \"#utility.yul\":26665:26781   */\n    tag_298:\n        /* \"#utility.yul\":26735:26756   */\n      tag_598\n        /* \"#utility.yul\":26750:26755   */\n      dup2\n        /* \"#utility.yul\":26735:26756   */\n      tag_439\n      jump\t// in\n    tag_598:\n        /* \"#utility.yul\":26728:26733   */\n      dup2\n        /* \"#utility.yul\":26725:26757   */\n      eq\n        /* \"#utility.yul\":26715:26775   */\n      tag_599\n      jumpi\n        /* \"#utility.yul\":26771:26772   */\n      0x00\n        /* \"#utility.yul\":26768:26769   */\n      dup1\n        /* \"#utility.yul\":26761:26773   */\n      revert\n        /* \"#utility.yul\":26715:26775   */\n    tag_599:\n        /* \"#utility.yul\":26665:26781   */\n      pop\n      jump\t// out\n        /* \"#utility.yul\":26787:26909   */\n    tag_313:\n        /* \"#utility.yul\":26860:26884   */\n      tag_601\n        /* \"#utility.yul\":26878:26883   */\n      dup2\n        /* \"#utility.yul\":26860:26884   */\n      tag_492\n      jump\t// in\n    tag_601:\n        /* \"#utility.yul\":26853:26858   */\n      dup2\n        /* \"#utility.yul\":26850:26885   */\n      eq\n        /* \"#utility.yul\":26840:26903   */\n      tag_602\n      jumpi\n        /* \"#utility.yul\":26899:26900   */\n      0x00\n        /* \"#utility.yul\":26896:26897   */\n      dup1\n        /* \"#utility.yul\":26889:26901   */\n      revert\n        /* \"#utility.yul\":26840:26903   */\n    tag_602:\n        /* \"#utility.yul\":26787:26909   */\n      pop\n      jump\t// out\n\n    auxdata: 0xa264697066735822122076b9c9032e75f302f99f9d3a41c5fb36f1a92972601952b31d596efb831567cc64736f6c63430008070033\n}\n",
				"bytecode": {
					"linkReferences": {},
					"object": "608060405260008055600060015534801561001957600080fd5b506128f3806100296000396000f3fe6080604052600436106100dd5760003560e01c80637b3191351161007f578063a165c0ba11610059578063a165c0ba146102ee578063d48c14df1461030a578063f794cf2d1461034c578063f954d0d914610377576100dd565b80637b3191351461025d57806385bfa356146102865780638c694034146102b1576100dd565b8063434ebe28116100bb578063434ebe28146101a357806366fbc1f1146101cc5780636decd419146101f5578063799a0f9914610220576100dd565b80630eac931a146100e25780631071bc811461012457806343064aa414610166575b600080fd5b3480156100ee57600080fd5b5061010960048036038101906101049190611c14565b6103a2565b60405161011b969594939291906123d7565b60405180910390f35b34801561013057600080fd5b5061014b60048036038101906101469190611d56565b61041b565b60405161015d969594939291906123d7565b60405180910390f35b34801561017257600080fd5b5061018d60048036038101906101889190611d96565b610494565b60405161019a91906122d2565b60405180910390f35b3480156101af57600080fd5b506101ca60048036038101906101c59190611d16565b6105ee565b005b3480156101d857600080fd5b506101f360048036038101906101ee9190611ce9565b610626565b005b34801561020157600080fd5b5061020a61094f565b604051610217919061234d565b60405180910390f35b34801561022c57600080fd5b5061024760048036038101906102429190611d96565b610955565b604051610254919061234d565b60405180910390f35b34801561026957600080fd5b50610284600480360381019061027f9190611c54565b610c1e565b005b34801561029257600080fd5b5061029b610e76565b6040516102a8919061228e565b60405180910390f35b3480156102bd57600080fd5b506102d860048036038101906102d39190611ce9565b610fa0565b6040516102e5919061228e565b60405180910390f35b61030860048036038101906103039190611de9565b61109a565b005b34801561031657600080fd5b50610331600480360381019061032c9190611ce9565b611269565b60405161034396959493929190612368565b60405180910390f35b34801561035857600080fd5b506103616113e2565b60405161036e91906122b0565b60405180910390f35b34801561038357600080fd5b5061038c61166f565b604051610399919061234d565b60405180910390f35b600360205281600052604060002081815481106103be57600080fd5b9060005260206000209060060201600091509150508060000154908060010154908060020154908060030154908060040154908060050160009054906101000a900473ffffffffffffffffffffffffffffffffffffffff16905086565b6004602052816000526040600020818154811061043757600080fd5b9060005260206000209060060201600091509150508060000154908060010154908060020154908060030154908060040154908060050160009054906101000a900473ffffffffffffffffffffffffffffffffffffffff16905086565b61049c61198a565b60006002600086815260200190815260200160002090506104bb61198a565b600085905060005b8582116105e057600115158460060183815481106104e4576104e3612775565b5b90600052602060002090602091828204019190069054906101000a900460ff161515148015610517575060001515811515145b1561054b57600182610529919061253d565b8360006002811061053d5761053c612775565b5b602002018181525050600190505b6000151584600601838154811061056557610564612775565b5b90600052602060002090602091828204019190069054906101000a900460ff161515148015610598575060011515811515145b156105cc576001826105aa919061253d565b836001600281106105be576105bd612775565b5b6020020181815250506105e0565b6001826105d9919061253d565b91506104c3565b829450505050509392505050565b6000600260008481526020019081526020016000209050818160030160006101000a81548160ff021916908315150217905550505050565b600060026000838152602001908152602001600020905060005b61016d81101561069e57600082600601828154811061066257610661612775565b5b90600052602060002090602091828204019190066101000a81548160ff0219169083151502179055508080610696906126ce565b915050610640565b506000600460008481526020019081526020016000209050606060005b828054905081101561076c578281815481106106da576106d9612775565b5b906000526020600020906006020160050160009054906101000a900473ffffffffffffffffffffffffffffffffffffffff1682828151811061071f5761071e612775565b5b602002602001019073ffffffffffffffffffffffffffffffffffffffff16908173ffffffffffffffffffffffffffffffffffffffff16815250508080610764906126ce565b9150506106bb565b5060046000858152602001908152602001600020600061078c91906119ac565b60005b81518110156109485760008282815181106107ad576107ac612775565b5b6020026020010151905060005b600360008373ffffffffffffffffffffffffffffffffffffffff1673ffffffffffffffffffffffffffffffffffffffff168152602001908152602001600020805490508110156109335786600360008473ffffffffffffffffffffffffffffffffffffffff1673ffffffffffffffffffffffffffffffffffffffff168152602001908152602001600020828154811061085657610855612775565b5b906000526020600020906006020160010154141561092057600360008373ffffffffffffffffffffffffffffffffffffffff1673ffffffffffffffffffffffffffffffffffffffff16815260200190815260200160002081815481106108bf576108be612775565b5b906000526020600020906006020160008082016000905560018201600090556002820160009055600382016000905560048201600090556005820160006101000a81549073ffffffffffffffffffffffffffffffffffffffff021916905550505b808061092b906126ce565b9150506107ba565b50508080610940906126ce565b91505061078f565b5050505050565b60015481565b6000808390506000600260008781526020019081526020016000206040518060e0016040529081600082015481526020016001820180546109959061269c565b80601f01602080910402602001604051908101604052809291908181526020018280546109c19061269c565b8015610a0e5780601f106109e357610100808354040283529160200191610a0e565b820191906000526020600020905b8154815290600101906020018083116109f157829003601f168201915b50505050508152602001600282018054610a279061269c565b80601f0160208091040260200160405190810160405280929190818152602001828054610a539061269c565b8015610aa05780601f10610a7557610100808354040283529160200191610aa0565b820191906000526020600020905b815481529060010190602001808311610a8357829003601f168201915b505050505081526020016003820160009054906101000a900460ff16151515158152602001600482015481526020016005820160009054906101000a900473ffffffffffffffffffffffffffffffffffffffff1673ffffffffffffffffffffffffffffffffffffffff1673ffffffffffffffffffffffffffffffffffffffff16815260200160068201805480602002602001604051908101604052809291908181526020018280548015610b9857602002820191906000526020600020906000905b82829054906101000a900460ff16151581526020019060010190602082600001049283019260010382029150808411610b625790505b505050505081525050905060005b84831015610bf657600115158260c001518481518110610bc957610bc8612775565b5b602002602001015115151415610be25760019050610bf6565b600183610bef919061253d565b9250610ba6565b600115158115151415610c0f5760019350505050610c17565b600093505050505b9392505050565b60006040518060e00160405280600054815260200187878080601f016020809104026020016040519081016040528093929190818152602001838380828437600081840152601f19601f82011690508083019250505050505050815260200185858080601f016020809104026020016040519081016040528093929190818152602001838380828437600081840152601f19601f8201169050808301925050505050505081526020016001151581526020018381526020013373ffffffffffffffffffffffffffffffffffffffff16815260200161016d67ffffffffffffffff811115610d0e57610d0d6127a4565b5b604051908082528060200260200182016040528015610d3c5781602001602082028036833780820191505090505b508152509050806002600080548152602001908152602001600020600082015181600001556020820151816001019080519060200190610d7d9291906119d0565b506040820151816002019080519060200190610d9a9291906119d0565b5060608201518160030160006101000a81548160ff0219169083151502179055506080820151816004015560a08201518160050160006101000a81548173ffffffffffffffffffffffffffffffffffffffff021916908373ffffffffffffffffffffffffffffffffffffffff16021790555060c0820151816006019080519060200190610e28929190611a56565b50905050600080815480929190610e3e906126ce565b919050557fe3dfa06732e0549f98a5f6d34268fbb7da76b458e78c8ea5b1d7029396cc216460405160405180910390a2505050505050565b60606000339050600360008273ffffffffffffffffffffffffffffffffffffffff1673ffffffffffffffffffffffffffffffffffffffff168152602001908152602001600020805480602002602001604051908101604052809291908181526020016000905b82821015610f9657838290600052602060002090600602016040518060c001604052908160008201548152602001600182015481526020016002820154815260200160038201548152602001600482015481526020016005820160009054906101000a900473ffffffffffffffffffffffffffffffffffffffff1673ffffffffffffffffffffffffffffffffffffffff1673ffffffffffffffffffffffffffffffffffffffff168152505081526020019060010190610edc565b5050505091505090565b606060046000838152602001908152602001600020805480602002602001604051908101604052809291908181526020016000905b8282101561108f57838290600052602060002090600602016040518060c001604052908160008201548152602001600182015481526020016002820154815260200160038201548152602001600482015481526020016005820160009054906101000a900473ffffffffffffffffffffffffffffffffffffffff1673ffffffffffffffffffffffffffffffffffffffff1673ffffffffffffffffffffffffffffffffffffffff168152505081526020019060010190610fd5565b505050509050919050565b6000600260008681526020019081526020016000209050600115158160030160009054906101000a900460ff16151514611109576040517f08c379a00000000000000000000000000000000000000000000000000000000081526004016111009061232d565b60405180910390fd5b6000839050600083905060005b818310156111b457600084600601848154811061113657611135612775565b5b90600052602060002090602091828204019190069054906101000a900460ff169050600015158115151461119f576040517f08c379a00000000000000000000000000000000000000000000000000000000081526004016111969061230d565b60405180910390fd5b6001846111ac919061253d565b935050611116565b85856111c091906125ed565b905066038d7ea4c680008460040154826111da9190612593565b6111e49190612593565b3414611225576040517f08c379a000000000000000000000000000000000000000000000000000000000815260040161121c906122ed565b60405180910390fd5b61123188888888611675565b61125f8460050160009054906101000a900473ffffffffffffffffffffffffffffffffffffffff163461193f565b5050505050505050565b60026020528060005260406000206000915090508060000154908060010180546112929061269c565b80601f01602080910402602001604051908101604052809291908181526020018280546112be9061269c565b801561130b5780601f106112e05761010080835404028352916020019161130b565b820191906000526020600020905b8154815290600101906020018083116112ee57829003601f168201915b5050505050908060020180546113209061269c565b80601f016020809104026020016040519081016040528092919081815260200182805461134c9061269c565b80156113995780601f1061136e57610100808354040283529160200191611399565b820191906000526020600020905b81548152906001019060200180831161137c57829003601f168201915b5050505050908060030160009054906101000a900460ff16908060040154908060050160009054906101000a900473ffffffffffffffffffffffffffffffffffffffff16905086565b60608060005b60005481101561166757600260008281526020019081526020016000206040518060e00160405290816000820154815260200160018201805461142a9061269c565b80601f01602080910402602001604051908101604052809291908181526020018280546114569061269c565b80156114a35780601f10611478576101008083540402835291602001916114a3565b820191906000526020600020905b81548152906001019060200180831161148657829003601f168201915b505050505081526020016002820180546114bc9061269c565b80601f01602080910402602001604051908101604052809291908181526020018280546114e89061269c565b80156115355780601f1061150a57610100808354040283529160200191611535565b820191906000526020600020905b81548152906001019060200180831161151857829003601f168201915b505050505081526020016003820160009054906101000a900460ff16151515158152602001600482015481526020016005820160009054906101000a900473ffffffffffffffffffffffffffffffffffffffff1673ffffffffffffffffffffffffffffffffffffffff1673ffffffffffffffffffffffffffffffffffffffff1681526020016006820180548060200260200160405190810160405280929190818152602001828054801561162d57602002820191906000526020600020906000905b82829054906101000a900460ff161515815260200190600101906020826000010492830192600103820291508084116115f75790505b50505050508152505082828151811061164957611648612775565b5b6020026020010181905250808061165f906126ce565b9150506113e8565b508091505090565b60005481565b60006040518060c0016040528060015481526020018681526020018581526020016001856116a3919061253d565b81526020016001846116b5919061253d565b81526020013373ffffffffffffffffffffffffffffffffffffffff1681525090506000600260008781526020019081526020016000209050600084905060008490505b8082101561175557600183600601838154811061171857611717612775565b5b90600052602060002090602091828204019190066101000a81548160ff02191690831515021790555060018261174e919061253d565b91506116f8565b600360003373ffffffffffffffffffffffffffffffffffffffff1673ffffffffffffffffffffffffffffffffffffffff168152602001908152602001600020849080600181540180825580915050600190039060005260206000209060060201600090919091909150600082015181600001556020820151816001015560408201518160020155606082015181600301556080820151816004015560a08201518160050160006101000a81548173ffffffffffffffffffffffffffffffffffffffff021916908373ffffffffffffffffffffffffffffffffffffffff160217905550505060046000898152602001908152602001600020849080600181540180825580915050600190039060005260206000209060060201600090919091909150600082015181600001556020820151816001015560408201518160020155606082015181600301556080820151816004015560a08201518160050160006101000a81548173ffffffffffffffffffffffffffffffffffffffff021916908373ffffffffffffffffffffffffffffffffffffffff160217905550505060016000815480929190611904906126ce565b91905055887f84bad6e347d9aff08a38e6eb90827c7999f70bfaf3b0acbe288f512801b9c13960405160405180910390a35050505050505050565b8173ffffffffffffffffffffffffffffffffffffffff166108fc829081150290604051600060405180830381858888f19350505050158015611985573d6000803e3d6000fd5b505050565b6040518060400160405280600290602082028036833780820191505090505090565b50805460008255600602906000526020600020908101906119cd9190611afc565b50565b8280546119dc9061269c565b90600052602060002090601f0160209004810192826119fe5760008555611a45565b82601f10611a1757805160ff1916838001178555611a45565b82800160010185558215611a45579182015b82811115611a44578251825591602001919060010190611a29565b5b509050611a529190611b62565b5090565b82805482825590600052602060002090601f01602090048101928215611aeb5791602002820160005b83821115611abc57835183826101000a81548160ff0219169083151502179055509260200192600101602081600001049283019260010302611a7f565b8015611ae95782816101000a81549060ff0219169055600101602081600001049283019260010302611abc565b505b509050611af89190611b62565b5090565b5b80821115611b5e5760008082016000905560018201600090556002820160009055600382016000905560048201600090556005820160006101000a81549073ffffffffffffffffffffffffffffffffffffffff021916905550600601611afd565b5090565b5b80821115611b7b576000816000905550600101611b63565b5090565b600081359050611b8e81612878565b92915050565b600081359050611ba38161288f565b92915050565b60008083601f840112611bbf57611bbe6127d8565b5b8235905067ffffffffffffffff811115611bdc57611bdb6127d3565b5b602083019150836001820283011115611bf857611bf76127dd565b5b9250929050565b600081359050611c0e816128a6565b92915050565b60008060408385031215611c2b57611c2a6127e7565b5b6000611c3985828601611b7f565b9250506020611c4a85828601611bff565b9150509250929050565b600080600080600060608688031215611c7057611c6f6127e7565b5b600086013567ffffffffffffffff811115611c8e57611c8d6127e2565b5b611c9a88828901611ba9565b9550955050602086013567ffffffffffffffff811115611cbd57611cbc6127e2565b5b611cc988828901611ba9565b93509350506040611cdc88828901611bff565b9150509295509295909350565b600060208284031215611cff57611cfe6127e7565b5b6000611d0d84828501611bff565b91505092915050565b60008060408385031215611d2d57611d2c6127e7565b5b6000611d3b85828601611bff565b9250506020611d4c85828601611b94565b9150509250929050565b60008060408385031215611d6d57611d6c6127e7565b5b6000611d7b85828601611bff565b9250506020611d8c85828601611bff565b9150509250929050565b600080600060608486031215611daf57611dae6127e7565b5b6000611dbd86828701611bff565b9350506020611dce86828701611bff565b9250506040611ddf86828701611bff565b9150509250925092565b60008060008060808587031215611e0357611e026127e7565b5b6000611e1187828801611bff565b9450506020611e2287828801611bff565b9350506040611e3387828801611bff565b9250506060611e4487828801611bff565b91505092959194509250565b6000611e5c8383612052565b60208301905092915050565b6000611e74838361214b565b60c08301905092915050565b6000611e8c83836121c6565b905092915050565b6000611ea08383612270565b60208301905092915050565b611eb581612621565b82525050565b611ec481612621565b82525050565b6000611ed582612472565b611edf81856124dd565b9350611eea83612438565b8060005b83811015611f1b578151611f028882611e50565b9750611f0d836124a9565b925050600181019050611eee565b5085935050505092915050565b6000611f338261247d565b611f3d81856124ee565b9350611f4883612448565b8060005b83811015611f79578151611f608882611e68565b9750611f6b836124b6565b925050600181019050611f4c565b5085935050505092915050565b6000611f9182612488565b611f9b81856124ff565b935083602082028501611fad85612458565b8060005b85811015611fe95784840389528151611fca8582611e80565b9450611fd5836124c3565b925060208a01995050600181019050611fb1565b50829750879550505050505092915050565b61200481612493565b61200e8184612510565b925061201982612468565b8060005b8381101561204a5781516120318782611e94565b965061203c836124d0565b92505060018101905061201d565b505050505050565b61205b81612633565b82525050565b61206a81612633565b82525050565b600061207b8261249e565b612085818561251b565b9350612095818560208601612669565b61209e816127ec565b840191505092915050565b60006120b48261249e565b6120be818561252c565b93506120ce818560208601612669565b6120d7816127ec565b840191505092915050565b60006120ef600d8361252c565b91506120fa826127fd565b602082019050919050565b6000612112600e8361252c565b915061211d82612826565b602082019050919050565b600061213560108361252c565b91506121408261284f565b602082019050919050565b60c0820160008201516121616000850182612270565b5060208201516121746020850182612270565b5060408201516121876040850182612270565b50606082015161219a6060850182612270565b5060808201516121ad6080850182612270565b5060a08201516121c060a0850182611eac565b50505050565b600060e0830160008301516121de6000860182612270565b50602083015184820360208601526121f68282612070565b915050604083015184820360408601526122108282612070565b91505060608301516122256060860182612052565b5060808301516122386080860182612270565b5060a083015161224b60a0860182611eac565b5060c083015184820360c08601526122638282611eca565b9150508091505092915050565b6122798161265f565b82525050565b6122888161265f565b82525050565b600060208201905081810360008301526122a88184611f28565b905092915050565b600060208201905081810360008301526122ca8184611f86565b905092915050565b60006040820190506122e76000830184611ffb565b92915050565b60006020820190508181036000830152612306816120e2565b9050919050565b6000602082019050818103600083015261232681612105565b9050919050565b6000602082019050818103600083015261234681612128565b9050919050565b6000602082019050612362600083018461227f565b92915050565b600060c08201905061237d600083018961227f565b818103602083015261238f81886120a9565b905081810360408301526123a381876120a9565b90506123b26060830186612061565b6123bf608083018561227f565b6123cc60a0830184611ebb565b979650505050505050565b600060c0820190506123ec600083018961227f565b6123f9602083018861227f565b612406604083018761227f565b612413606083018661227f565b612420608083018561227f565b61242d60a0830184611ebb565b979650505050505050565b6000819050602082019050919050565b6000819050602082019050919050565b6000819050602082019050919050565b6000819050919050565b600081519050919050565b600081519050919050565b600081519050919050565b600060029050919050565b600081519050919050565b6000602082019050919050565b6000602082019050919050565b6000602082019050919050565b6000602082019050919050565b600082825260208201905092915050565b600082825260208201905092915050565b600082825260208201905092915050565b600081905092915050565b600082825260208201905092915050565b600082825260208201905092915050565b60006125488261265f565b91506125538361265f565b9250827fffffffffffffffffffffffffffffffffffffffffffffffffffffffffffffffff0382111561258857612587612717565b5b828201905092915050565b600061259e8261265f565b91506125a98361265f565b9250817fffffffffffffffffffffffffffffffffffffffffffffffffffffffffffffffff04831182151516156125e2576125e1612717565b5b828202905092915050565b60006125f88261265f565b91506126038361265f565b92508282101561261657612615612717565b5b828203905092915050565b600061262c8261263f565b9050919050565b60008115159050919050565b600073ffffffffffffffffffffffffffffffffffffffff82169050919050565b6000819050919050565b60005b8381101561268757808201518184015260208101905061266c565b83811115612696576000848401525b50505050565b600060028204905060018216806126b457607f821691505b602082108114156126c8576126c7612746565b5b50919050565b60006126d98261265f565b91507fffffffffffffffffffffffffffffffffffffffffffffffffffffffffffffffff82141561270c5761270b612717565b5b600182019050919050565b7f4e487b7100000000000000000000000000000000000000000000000000000000600052601160045260246000fd5b7f4e487b7100000000000000000000000000000000000000000000000000000000600052602260045260246000fd5b7f4e487b7100000000000000000000000000000000000000000000000000000000600052603260045260246000fd5b7f4e487b7100000000000000000000000000000000000000000000000000000000600052604160045260246000fd5b600080fd5b600080fd5b600080fd5b600080fd5b600080fd5b6000601f19601f8301169050919050565b7f696e76616c696420707269636500000000000000000000000000000000000000600082015250565b7f616c72656164792072656e746564000000000000000000000000000000000000600082015250565b7f73686f756c652062652061637469766500000000000000000000000000000000600082015250565b61288181612621565b811461288c57600080fd5b50565b61289881612633565b81146128a357600080fd5b50565b6128af8161265f565b81146128ba57600080fd5b5056fea264697066735822122076b9c9032e75f302f99f9d3a41c5fb36f1a92972601952b31d596efb831567cc64736f6c63430008070033",
					"opcodes": "PUSH1 0x80 PUSH1 0x40 MSTORE PUSH1 0x0 DUP1 SSTORE PUSH1 0x0 PUSH1 0x1 SSTORE CALLVALUE DUP1 ISZERO PUSH2 0x19 JUMPI PUSH1 0x0 DUP1 REVERT JUMPDEST POP PUSH2 0x28F3 DUP1 PUSH2 0x29 PUSH1 0x0 CODECOPY PUSH1 0x0 RETURN INVALID PUSH1 0x80 PUSH1 0x40 MSTORE PUSH1 0x4 CALLDATASIZE LT PUSH2 0xDD JUMPI PUSH1 0x0 CALLDATALOAD PUSH1 0xE0 SHR DUP1 PUSH4 0x7B319135 GT PUSH2 0x7F JUMPI DUP1 PUSH4 0xA165C0BA GT PUSH2 0x59 JUMPI DUP1 PUSH4 0xA165C0BA EQ PUSH2 0x2EE JUMPI DUP1 PUSH4 0xD48C14DF EQ PUSH2 0x30A JUMPI DUP1 PUSH4 0xF794CF2D EQ PUSH2 0x34C JUMPI DUP1 PUSH4 0xF954D0D9 EQ PUSH2 0x377 JUMPI PUSH2 0xDD JUMP JUMPDEST DUP1 PUSH4 0x7B319135 EQ PUSH2 0x25D JUMPI DUP1 PUSH4 0x85BFA356 EQ PUSH2 0x286 JUMPI DUP1 PUSH4 0x8C694034 EQ PUSH2 0x2B1 JUMPI PUSH2 0xDD JUMP JUMPDEST DUP1 PUSH4 0x434EBE28 GT PUSH2 0xBB JUMPI DUP1 PUSH4 0x434EBE28 EQ PUSH2 0x1A3 JUMPI DUP1 PUSH4 0x66FBC1F1 EQ PUSH2 0x1CC JUMPI DUP1 PUSH4 0x6DECD419 EQ PUSH2 0x1F5 JUMPI DUP1 PUSH4 0x799A0F99 EQ PUSH2 0x220 JUMPI PUSH2 0xDD JUMP JUMPDEST DUP1 PUSH4 0xEAC931A EQ PUSH2 0xE2 JUMPI DUP1 PUSH4 0x1071BC81 EQ PUSH2 0x124 JUMPI DUP1 PUSH4 0x43064AA4 EQ PUSH2 0x166 JUMPI JUMPDEST PUSH1 0x0 DUP1 REVERT JUMPDEST CALLVALUE DUP1 ISZERO PUSH2 0xEE JUMPI PUSH1 0x0 DUP1 REVERT JUMPDEST POP PUSH2 0x109 PUSH1 0x4 DUP1 CALLDATASIZE SUB DUP2 ADD SWAP1 PUSH2 0x104 SWAP2 SWAP1 PUSH2 0x1C14 JUMP JUMPDEST PUSH2 0x3A2 JUMP JUMPDEST PUSH1 0x40 MLOAD PUSH2 0x11B SWAP7 SWAP6 SWAP5 SWAP4 SWAP3 SWAP2 SWAP1 PUSH2 0x23D7 JUMP JUMPDEST PUSH1 0x40 MLOAD DUP1 SWAP2 SUB SWAP1 RETURN JUMPDEST CALLVALUE DUP1 ISZERO PUSH2 0x130 JUMPI PUSH1 0x0 DUP1 REVERT JUMPDEST POP PUSH2 0x14B PUSH1 0x4 DUP1 CALLDATASIZE SUB DUP2 ADD SWAP1 PUSH2 0x146 SWAP2 SWAP1 PUSH2 0x1D56 JUMP JUMPDEST PUSH2 0x41B JUMP JUMPDEST PUSH1 0x40 MLOAD PUSH2 0x15D SWAP7 SWAP6 SWAP5 SWAP4 SWAP3 SWAP2 SWAP1 PUSH2 0x23D7 JUMP JUMPDEST PUSH1 0x40 MLOAD DUP1 SWAP2 SUB SWAP1 RETURN JUMPDEST CALLVALUE DUP1 ISZERO PUSH2 0x172 JUMPI PUSH1 0x0 DUP1 REVERT JUMPDEST POP PUSH2 0x18D PUSH1 0x4 DUP1 CALLDATASIZE SUB DUP2 ADD SWAP1 PUSH2 0x188 SWAP2 SWAP1 PUSH2 0x1D96 JUMP JUMPDEST PUSH2 0x494 JUMP JUMPDEST PUSH1 0x40 MLOAD PUSH2 0x19A SWAP2 SWAP1 PUSH2 0x22D2 JUMP JUMPDEST PUSH1 0x40 MLOAD DUP1 SWAP2 SUB SWAP1 RETURN JUMPDEST CALLVALUE DUP1 ISZERO PUSH2 0x1AF JUMPI PUSH1 0x0 DUP1 REVERT JUMPDEST POP PUSH2 0x1CA PUSH1 0x4 DUP1 CALLDATASIZE SUB DUP2 ADD SWAP1 PUSH2 0x1C5 SWAP2 SWAP1 PUSH2 0x1D16 JUMP JUMPDEST PUSH2 0x5EE JUMP JUMPDEST STOP JUMPDEST CALLVALUE DUP1 ISZERO PUSH2 0x1D8 JUMPI PUSH1 0x0 DUP1 REVERT JUMPDEST POP PUSH2 0x1F3 PUSH1 0x4 DUP1 CALLDATASIZE SUB DUP2 ADD SWAP1 PUSH2 0x1EE SWAP2 SWAP1 PUSH2 0x1CE9 JUMP JUMPDEST PUSH2 0x626 JUMP JUMPDEST STOP JUMPDEST CALLVALUE DUP1 ISZERO PUSH2 0x201 JUMPI PUSH1 0x0 DUP1 REVERT JUMPDEST POP PUSH2 0x20A PUSH2 0x94F JUMP JUMPDEST PUSH1 0x40 MLOAD PUSH2 0x217 SWAP2 SWAP1 PUSH2 0x234D JUMP JUMPDEST PUSH1 0x40 MLOAD DUP1 SWAP2 SUB SWAP1 RETURN JUMPDEST CALLVALUE DUP1 ISZERO PUSH2 0x22C JUMPI PUSH1 0x0 DUP1 REVERT JUMPDEST POP PUSH2 0x247 PUSH1 0x4 DUP1 CALLDATASIZE SUB DUP2 ADD SWAP1 PUSH2 0x242 SWAP2 SWAP1 PUSH2 0x1D96 JUMP JUMPDEST PUSH2 0x955 JUMP JUMPDEST PUSH1 0x40 MLOAD PUSH2 0x254 SWAP2 SWAP1 PUSH2 0x234D JUMP JUMPDEST PUSH1 0x40 MLOAD DUP1 SWAP2 SUB SWAP1 RETURN JUMPDEST CALLVALUE DUP1 ISZERO PUSH2 0x269 JUMPI PUSH1 0x0 DUP1 REVERT JUMPDEST POP PUSH2 0x284 PUSH1 0x4 DUP1 CALLDATASIZE SUB DUP2 ADD SWAP1 PUSH2 0x27F SWAP2 SWAP1 PUSH2 0x1C54 JUMP JUMPDEST PUSH2 0xC1E JUMP JUMPDEST STOP JUMPDEST CALLVALUE DUP1 ISZERO PUSH2 0x292 JUMPI PUSH1 0x0 DUP1 REVERT JUMPDEST POP PUSH2 0x29B PUSH2 0xE76 JUMP JUMPDEST PUSH1 0x40 MLOAD PUSH2 0x2A8 SWAP2 SWAP1 PUSH2 0x228E JUMP JUMPDEST PUSH1 0x40 MLOAD DUP1 SWAP2 SUB SWAP1 RETURN JUMPDEST CALLVALUE DUP1 ISZERO PUSH2 0x2BD JUMPI PUSH1 0x0 DUP1 REVERT JUMPDEST POP PUSH2 0x2D8 PUSH1 0x4 DUP1 CALLDATASIZE SUB DUP2 ADD SWAP1 PUSH2 0x2D3 SWAP2 SWAP1 PUSH2 0x1CE9 JUMP JUMPDEST PUSH2 0xFA0 JUMP JUMPDEST PUSH1 0x40 MLOAD PUSH2 0x2E5 SWAP2 SWAP1 PUSH2 0x228E JUMP JUMPDEST PUSH1 0x40 MLOAD DUP1 SWAP2 SUB SWAP1 RETURN JUMPDEST PUSH2 0x308 PUSH1 0x4 DUP1 CALLDATASIZE SUB DUP2 ADD SWAP1 PUSH2 0x303 SWAP2 SWAP1 PUSH2 0x1DE9 JUMP JUMPDEST PUSH2 0x109A JUMP JUMPDEST STOP JUMPDEST CALLVALUE DUP1 ISZERO PUSH2 0x316 JUMPI PUSH1 0x0 DUP1 REVERT JUMPDEST POP PUSH2 0x331 PUSH1 0x4 DUP1 CALLDATASIZE SUB DUP2 ADD SWAP1 PUSH2 0x32C SWAP2 SWAP1 PUSH2 0x1CE9 JUMP JUMPDEST PUSH2 0x1269 JUMP JUMPDEST PUSH1 0x40 MLOAD PUSH2 0x343 SWAP7 SWAP6 SWAP5 SWAP4 SWAP3 SWAP2 SWAP1 PUSH2 0x2368 JUMP JUMPDEST PUSH1 0x40 MLOAD DUP1 SWAP2 SUB SWAP1 RETURN JUMPDEST CALLVALUE DUP1 ISZERO PUSH2 0x358 JUMPI PUSH1 0x0 DUP1 REVERT JUMPDEST POP PUSH2 0x361 PUSH2 0x13E2 JUMP JUMPDEST PUSH1 0x40 MLOAD PUSH2 0x36E SWAP2 SWAP1 PUSH2 0x22B0 JUMP JUMPDEST PUSH1 0x40 MLOAD DUP1 SWAP2 SUB SWAP1 RETURN JUMPDEST CALLVALUE DUP1 ISZERO PUSH2 0x383 JUMPI PUSH1 0x0 DUP1 REVERT JUMPDEST POP PUSH2 0x38C PUSH2 0x166F JUMP JUMPDEST PUSH1 0x40 MLOAD PUSH2 0x399 SWAP2 SWAP1 PUSH2 0x234D JUMP JUMPDEST PUSH1 0x40 MLOAD DUP1 SWAP2 SUB SWAP1 RETURN JUMPDEST PUSH1 0x3 PUSH1 0x20 MSTORE DUP2 PUSH1 0x0 MSTORE PUSH1 0x40 PUSH1 0x0 KECCAK256 DUP2 DUP2 SLOAD DUP2 LT PUSH2 0x3BE JUMPI PUSH1 0x0 DUP1 REVERT JUMPDEST SWAP1 PUSH1 0x0 MSTORE PUSH1 0x20 PUSH1 0x0 KECCAK256 SWAP1 PUSH1 0x6 MUL ADD PUSH1 0x0 SWAP2 POP SWAP2 POP POP DUP1 PUSH1 0x0 ADD SLOAD SWAP1 DUP1 PUSH1 0x1 ADD SLOAD SWAP1 DUP1 PUSH1 0x2 ADD SLOAD SWAP1 DUP1 PUSH1 0x3 ADD SLOAD SWAP1 DUP1 PUSH1 0x4 ADD SLOAD SWAP1 DUP1 PUSH1 0x5 ADD PUSH1 0x0 SWAP1 SLOAD SWAP1 PUSH2 0x100 EXP SWAP1 DIV PUSH20 0xFFFFFFFFFFFFFFFFFFFFFFFFFFFFFFFFFFFFFFFF AND SWAP1 POP DUP7 JUMP JUMPDEST PUSH1 0x4 PUSH1 0x20 MSTORE DUP2 PUSH1 0x0 MSTORE PUSH1 0x40 PUSH1 0x0 KECCAK256 DUP2 DUP2 SLOAD DUP2 LT PUSH2 0x437 JUMPI PUSH1 0x0 DUP1 REVERT JUMPDEST SWAP1 PUSH1 0x0 MSTORE PUSH1 0x20 PUSH1 0x0 KECCAK256 SWAP1 PUSH1 0x6 MUL ADD PUSH1 0x0 SWAP2 POP SWAP2 POP POP DUP1 PUSH1 0x0 ADD SLOAD SWAP1 DUP1 PUSH1 0x1 ADD SLOAD SWAP1 DUP1 PUSH1 0x2 ADD SLOAD SWAP1 DUP1 PUSH1 0x3 ADD SLOAD SWAP1 DUP1 PUSH1 0x4 ADD SLOAD SWAP1 DUP1 PUSH1 0x5 ADD PUSH1 0x0 SWAP1 SLOAD SWAP1 PUSH2 0x100 EXP SWAP1 DIV PUSH20 0xFFFFFFFFFFFFFFFFFFFFFFFFFFFFFFFFFFFFFFFF AND SWAP1 POP DUP7 JUMP JUMPDEST PUSH2 0x49C PUSH2 0x198A JUMP JUMPDEST PUSH1 0x0 PUSH1 0x2 PUSH1 0x0 DUP7 DUP2 MSTORE PUSH1 0x20 ADD SWAP1 DUP2 MSTORE PUSH1 0x20 ADD PUSH1 0x0 KECCAK256 SWAP1 POP PUSH2 0x4BB PUSH2 0x198A JUMP JUMPDEST PUSH1 0x0 DUP6 SWAP1 POP PUSH1 0x0 JUMPDEST DUP6 DUP3 GT PUSH2 0x5E0 JUMPI PUSH1 0x1 ISZERO ISZERO DUP5 PUSH1 0x6 ADD DUP4 DUP2 SLOAD DUP2 LT PUSH2 0x4E4 JUMPI PUSH2 0x4E3 PUSH2 0x2775 JUMP JUMPDEST JUMPDEST SWAP1 PUSH1 0x0 MSTORE PUSH1 0x20 PUSH1 0x0 KECCAK256 SWAP1 PUSH1 0x20 SWAP2 DUP3 DUP3 DIV ADD SWAP2 SWAP1 MOD SWAP1 SLOAD SWAP1 PUSH2 0x100 EXP SWAP1 DIV PUSH1 0xFF AND ISZERO ISZERO EQ DUP1 ISZERO PUSH2 0x517 JUMPI POP PUSH1 0x0 ISZERO ISZERO DUP2 ISZERO ISZERO EQ JUMPDEST ISZERO PUSH2 0x54B JUMPI PUSH1 0x1 DUP3 PUSH2 0x529 SWAP2 SWAP1 PUSH2 0x253D JUMP JUMPDEST DUP4 PUSH1 0x0 PUSH1 0x2 DUP2 LT PUSH2 0x53D JUMPI PUSH2 0x53C PUSH2 0x2775 JUMP JUMPDEST JUMPDEST PUSH1 0x20 MUL ADD DUP2 DUP2 MSTORE POP POP PUSH1 0x1 SWAP1 POP JUMPDEST PUSH1 0x0 ISZERO ISZERO DUP5 PUSH1 0x6 ADD DUP4 DUP2 SLOAD DUP2 LT PUSH2 0x565 JUMPI PUSH2 0x564 PUSH2 0x2775 JUMP JUMPDEST JUMPDEST SWAP1 PUSH1 0x0 MSTORE PUSH1 0x20 PUSH1 0x0 KECCAK256 SWAP1 PUSH1 0x20 SWAP2 DUP3 DUP3 DIV ADD SWAP2 SWAP1 MOD SWAP1 SLOAD SWAP1 PUSH2 0x100 EXP SWAP1 DIV PUSH1 0xFF AND ISZERO ISZERO EQ DUP1 ISZERO PUSH2 0x598 JUMPI POP PUSH1 0x1 ISZERO ISZERO DUP2 ISZERO ISZERO EQ JUMPDEST ISZERO PUSH2 0x5CC JUMPI PUSH1 0x1 DUP3 PUSH2 0x5AA SWAP2 SWAP1 PUSH2 0x253D JUMP JUMPDEST DUP4 PUSH1 0x1 PUSH1 0x2 DUP2 LT PUSH2 0x5BE JUMPI PUSH2 0x5BD PUSH2 0x2775 JUMP JUMPDEST JUMPDEST PUSH1 0x20 MUL ADD DUP2 DUP2 MSTORE POP POP PUSH2 0x5E0 JUMP JUMPDEST PUSH1 0x1 DUP3 PUSH2 0x5D9 SWAP2 SWAP1 PUSH2 0x253D JUMP JUMPDEST SWAP2 POP PUSH2 0x4C3 JUMP JUMPDEST DUP3 SWAP5 POP POP POP POP POP SWAP4 SWAP3 POP POP POP JUMP JUMPDEST PUSH1 0x0 PUSH1 0x2 PUSH1 0x0 DUP5 DUP2 MSTORE PUSH1 0x20 ADD SWAP1 DUP2 MSTORE PUSH1 0x20 ADD PUSH1 0x0 KECCAK256 SWAP1 POP DUP2 DUP2 PUSH1 0x3 ADD PUSH1 0x0 PUSH2 0x100 EXP DUP2 SLOAD DUP2 PUSH1 0xFF MUL NOT AND SWAP1 DUP4 ISZERO ISZERO MUL OR SWAP1 SSTORE POP POP POP POP JUMP JUMPDEST PUSH1 0x0 PUSH1 0x2 PUSH1 0x0 DUP4 DUP2 MSTORE PUSH1 0x20 ADD SWAP1 DUP2 MSTORE PUSH1 0x20 ADD PUSH1 0x0 KECCAK256 SWAP1 POP PUSH1 0x0 JUMPDEST PUSH2 0x16D DUP2 LT ISZERO PUSH2 0x69E JUMPI PUSH1 0x0 DUP3 PUSH1 0x6 ADD DUP3 DUP2 SLOAD DUP2 LT PUSH2 0x662 JUMPI PUSH2 0x661 PUSH2 0x2775 JUMP JUMPDEST JUMPDEST SWAP1 PUSH1 0x0 MSTORE PUSH1 0x20 PUSH1 0x0 KECCAK256 SWAP1 PUSH1 0x20 SWAP2 DUP3 DUP3 DIV ADD SWAP2 SWAP1 MOD PUSH2 0x100 EXP DUP2 SLOAD DUP2 PUSH1 0xFF MUL NOT AND SWAP1 DUP4 ISZERO ISZERO MUL OR SWAP1 SSTORE POP DUP1 DUP1 PUSH2 0x696 SWAP1 PUSH2 0x26CE JUMP JUMPDEST SWAP2 POP POP PUSH2 0x640 JUMP JUMPDEST POP PUSH1 0x0 PUSH1 0x4 PUSH1 0x0 DUP5 DUP2 MSTORE PUSH1 0x20 ADD SWAP1 DUP2 MSTORE PUSH1 0x20 ADD PUSH1 0x0 KECCAK256 SWAP1 POP PUSH1 0x60 PUSH1 0x0 JUMPDEST DUP3 DUP1 SLOAD SWAP1 POP DUP2 LT ISZERO PUSH2 0x76C JUMPI DUP3 DUP2 DUP2 SLOAD DUP2 LT PUSH2 0x6DA JUMPI PUSH2 0x6D9 PUSH2 0x2775 JUMP JUMPDEST JUMPDEST SWAP1 PUSH1 0x0 MSTORE PUSH1 0x20 PUSH1 0x0 KECCAK256 SWAP1 PUSH1 0x6 MUL ADD PUSH1 0x5 ADD PUSH1 0x0 SWAP1 SLOAD SWAP1 PUSH2 0x100 EXP SWAP1 DIV PUSH20 0xFFFFFFFFFFFFFFFFFFFFFFFFFFFFFFFFFFFFFFFF AND DUP3 DUP3 DUP2 MLOAD DUP2 LT PUSH2 0x71F JUMPI PUSH2 0x71E PUSH2 0x2775 JUMP JUMPDEST JUMPDEST PUSH1 0x20 MUL PUSH1 0x20 ADD ADD SWAP1 PUSH20 0xFFFFFFFFFFFFFFFFFFFFFFFFFFFFFFFFFFFFFFFF AND SWAP1 DUP2 PUSH20 0xFFFFFFFFFFFFFFFFFFFFFFFFFFFFFFFFFFFFFFFF AND DUP2 MSTORE POP POP DUP1 DUP1 PUSH2 0x764 SWAP1 PUSH2 0x26CE JUMP JUMPDEST SWAP2 POP POP PUSH2 0x6BB JUMP JUMPDEST POP PUSH1 0x4 PUSH1 0x0 DUP6 DUP2 MSTORE PUSH1 0x20 ADD SWAP1 DUP2 MSTORE PUSH1 0x20 ADD PUSH1 0x0 KECCAK256 PUSH1 0x0 PUSH2 0x78C SWAP2 SWAP1 PUSH2 0x19AC JUMP JUMPDEST PUSH1 0x0 JUMPDEST DUP2 MLOAD DUP2 LT ISZERO PUSH2 0x948 JUMPI PUSH1 0x0 DUP3 DUP3 DUP2 MLOAD DUP2 LT PUSH2 0x7AD JUMPI PUSH2 0x7AC PUSH2 0x2775 JUMP JUMPDEST JUMPDEST PUSH1 0x20 MUL PUSH1 0x20 ADD ADD MLOAD SWAP1 POP PUSH1 0x0 JUMPDEST PUSH1 0x3 PUSH1 0x0 DUP4 PUSH20 0xFFFFFFFFFFFFFFFFFFFFFFFFFFFFFFFFFFFFFFFF AND PUSH20 0xFFFFFFFFFFFFFFFFFFFFFFFFFFFFFFFFFFFFFFFF AND DUP2 MSTORE PUSH1 0x20 ADD SWAP1 DUP2 MSTORE PUSH1 0x20 ADD PUSH1 0x0 KECCAK256 DUP1 SLOAD SWAP1 POP DUP2 LT ISZERO PUSH2 0x933 JUMPI DUP7 PUSH1 0x3 PUSH1 0x0 DUP5 PUSH20 0xFFFFFFFFFFFFFFFFFFFFFFFFFFFFFFFFFFFFFFFF AND PUSH20 0xFFFFFFFFFFFFFFFFFFFFFFFFFFFFFFFFFFFFFFFF AND DUP2 MSTORE PUSH1 0x20 ADD SWAP1 DUP2 MSTORE PUSH1 0x20 ADD PUSH1 0x0 KECCAK256 DUP3 DUP2 SLOAD DUP2 LT PUSH2 0x856 JUMPI PUSH2 0x855 PUSH2 0x2775 JUMP JUMPDEST JUMPDEST SWAP1 PUSH1 0x0 MSTORE PUSH1 0x20 PUSH1 0x0 KECCAK256 SWAP1 PUSH1 0x6 MUL ADD PUSH1 0x1 ADD SLOAD EQ ISZERO PUSH2 0x920 JUMPI PUSH1 0x3 PUSH1 0x0 DUP4 PUSH20 0xFFFFFFFFFFFFFFFFFFFFFFFFFFFFFFFFFFFFFFFF AND PUSH20 0xFFFFFFFFFFFFFFFFFFFFFFFFFFFFFFFFFFFFFFFF AND DUP2 MSTORE PUSH1 0x20 ADD SWAP1 DUP2 MSTORE PUSH1 0x20 ADD PUSH1 0x0 KECCAK256 DUP2 DUP2 SLOAD DUP2 LT PUSH2 0x8BF JUMPI PUSH2 0x8BE PUSH2 0x2775 JUMP JUMPDEST JUMPDEST SWAP1 PUSH1 0x0 MSTORE PUSH1 0x20 PUSH1 0x0 KECCAK256 SWAP1 PUSH1 0x6 MUL ADD PUSH1 0x0 DUP1 DUP3 ADD PUSH1 0x0 SWAP1 SSTORE PUSH1 0x1 DUP3 ADD PUSH1 0x0 SWAP1 SSTORE PUSH1 0x2 DUP3 ADD PUSH1 0x0 SWAP1 SSTORE PUSH1 0x3 DUP3 ADD PUSH1 0x0 SWAP1 SSTORE PUSH1 0x4 DUP3 ADD PUSH1 0x0 SWAP1 SSTORE PUSH1 0x5 DUP3 ADD PUSH1 0x0 PUSH2 0x100 EXP DUP2 SLOAD SWAP1 PUSH20 0xFFFFFFFFFFFFFFFFFFFFFFFFFFFFFFFFFFFFFFFF MUL NOT AND SWAP1 SSTORE POP POP JUMPDEST DUP1 DUP1 PUSH2 0x92B SWAP1 PUSH2 0x26CE JUMP JUMPDEST SWAP2 POP POP PUSH2 0x7BA JUMP JUMPDEST POP POP DUP1 DUP1 PUSH2 0x940 SWAP1 PUSH2 0x26CE JUMP JUMPDEST SWAP2 POP POP PUSH2 0x78F JUMP JUMPDEST POP POP POP POP POP JUMP JUMPDEST PUSH1 0x1 SLOAD DUP2 JUMP JUMPDEST PUSH1 0x0 DUP1 DUP4 SWAP1 POP PUSH1 0x0 PUSH1 0x2 PUSH1 0x0 DUP8 DUP2 MSTORE PUSH1 0x20 ADD SWAP1 DUP2 MSTORE PUSH1 0x20 ADD PUSH1 0x0 KECCAK256 PUSH1 0x40 MLOAD DUP1 PUSH1 0xE0 ADD PUSH1 0x40 MSTORE SWAP1 DUP2 PUSH1 0x0 DUP3 ADD SLOAD DUP2 MSTORE PUSH1 0x20 ADD PUSH1 0x1 DUP3 ADD DUP1 SLOAD PUSH2 0x995 SWAP1 PUSH2 0x269C JUMP JUMPDEST DUP1 PUSH1 0x1F ADD PUSH1 0x20 DUP1 SWAP2 DIV MUL PUSH1 0x20 ADD PUSH1 0x40 MLOAD SWAP1 DUP2 ADD PUSH1 0x40 MSTORE DUP1 SWAP3 SWAP2 SWAP1 DUP2 DUP2 MSTORE PUSH1 0x20 ADD DUP3 DUP1 SLOAD PUSH2 0x9C1 SWAP1 PUSH2 0x269C JUMP JUMPDEST DUP1 ISZERO PUSH2 0xA0E JUMPI DUP1 PUSH1 0x1F LT PUSH2 0x9E3 JUMPI PUSH2 0x100 DUP1 DUP4 SLOAD DIV MUL DUP4 MSTORE SWAP2 PUSH1 0x20 ADD SWAP2 PUSH2 0xA0E JUMP JUMPDEST DUP3 ADD SWAP2 SWAP1 PUSH1 0x0 MSTORE PUSH1 0x20 PUSH1 0x0 KECCAK256 SWAP1 JUMPDEST DUP2 SLOAD DUP2 MSTORE SWAP1 PUSH1 0x1 ADD SWAP1 PUSH1 0x20 ADD DUP1 DUP4 GT PUSH2 0x9F1 JUMPI DUP3 SWAP1 SUB PUSH1 0x1F AND DUP3 ADD SWAP2 JUMPDEST POP POP POP POP POP DUP2 MSTORE PUSH1 0x20 ADD PUSH1 0x2 DUP3 ADD DUP1 SLOAD PUSH2 0xA27 SWAP1 PUSH2 0x269C JUMP JUMPDEST DUP1 PUSH1 0x1F ADD PUSH1 0x20 DUP1 SWAP2 DIV MUL PUSH1 0x20 ADD PUSH1 0x40 MLOAD SWAP1 DUP2 ADD PUSH1 0x40 MSTORE DUP1 SWAP3 SWAP2 SWAP1 DUP2 DUP2 MSTORE PUSH1 0x20 ADD DUP3 DUP1 SLOAD PUSH2 0xA53 SWAP1 PUSH2 0x269C JUMP JUMPDEST DUP1 ISZERO PUSH2 0xAA0 JUMPI DUP1 PUSH1 0x1F LT PUSH2 0xA75 JUMPI PUSH2 0x100 DUP1 DUP4 SLOAD DIV MUL DUP4 MSTORE SWAP2 PUSH1 0x20 ADD SWAP2 PUSH2 0xAA0 JUMP JUMPDEST DUP3 ADD SWAP2 SWAP1 PUSH1 0x0 MSTORE PUSH1 0x20 PUSH1 0x0 KECCAK256 SWAP1 JUMPDEST DUP2 SLOAD DUP2 MSTORE SWAP1 PUSH1 0x1 ADD SWAP1 PUSH1 0x20 ADD DUP1 DUP4 GT PUSH2 0xA83 JUMPI DUP3 SWAP1 SUB PUSH1 0x1F AND DUP3 ADD SWAP2 JUMPDEST POP POP POP POP POP DUP2 MSTORE PUSH1 0x20 ADD PUSH1 0x3 DUP3 ADD PUSH1 0x0 SWAP1 SLOAD SWAP1 PUSH2 0x100 EXP SWAP1 DIV PUSH1 0xFF AND ISZERO ISZERO ISZERO ISZERO DUP2 MSTORE PUSH1 0x20 ADD PUSH1 0x4 DUP3 ADD SLOAD DUP2 MSTORE PUSH1 0x20 ADD PUSH1 0x5 DUP3 ADD PUSH1 0x0 SWAP1 SLOAD SWAP1 PUSH2 0x100 EXP SWAP1 DIV PUSH20 0xFFFFFFFFFFFFFFFFFFFFFFFFFFFFFFFFFFFFFFFF AND PUSH20 0xFFFFFFFFFFFFFFFFFFFFFFFFFFFFFFFFFFFFFFFF AND PUSH20 0xFFFFFFFFFFFFFFFFFFFFFFFFFFFFFFFFFFFFFFFF AND DUP2 MSTORE PUSH1 0x20 ADD PUSH1 0x6 DUP3 ADD DUP1 SLOAD DUP1 PUSH1 0x20 MUL PUSH1 0x20 ADD PUSH1 0x40 MLOAD SWAP1 DUP2 ADD PUSH1 0x40 MSTORE DUP1 SWAP3 SWAP2 SWAP1 DUP2 DUP2 MSTORE PUSH1 0x20 ADD DUP3 DUP1 SLOAD DUP1 ISZERO PUSH2 0xB98 JUMPI PUSH1 0x20 MUL DUP3 ADD SWAP2 SWAP1 PUSH1 0x0 MSTORE PUSH1 0x20 PUSH1 0x0 KECCAK256 SWAP1 PUSH1 0x0 SWAP1 JUMPDEST DUP3 DUP3 SWAP1 SLOAD SWAP1 PUSH2 0x100 EXP SWAP1 DIV PUSH1 0xFF AND ISZERO ISZERO DUP2 MSTORE PUSH1 0x20 ADD SWAP1 PUSH1 0x1 ADD SWAP1 PUSH1 0x20 DUP3 PUSH1 0x0 ADD DIV SWAP3 DUP4 ADD SWAP3 PUSH1 0x1 SUB DUP3 MUL SWAP2 POP DUP1 DUP5 GT PUSH2 0xB62 JUMPI SWAP1 POP JUMPDEST POP POP POP POP POP DUP2 MSTORE POP POP SWAP1 POP PUSH1 0x0 JUMPDEST DUP5 DUP4 LT ISZERO PUSH2 0xBF6 JUMPI PUSH1 0x1 ISZERO ISZERO DUP3 PUSH1 0xC0 ADD MLOAD DUP5 DUP2 MLOAD DUP2 LT PUSH2 0xBC9 JUMPI PUSH2 0xBC8 PUSH2 0x2775 JUMP JUMPDEST JUMPDEST PUSH1 0x20 MUL PUSH1 0x20 ADD ADD MLOAD ISZERO ISZERO EQ ISZERO PUSH2 0xBE2 JUMPI PUSH1 0x1 SWAP1 POP PUSH2 0xBF6 JUMP JUMPDEST PUSH1 0x1 DUP4 PUSH2 0xBEF SWAP2 SWAP1 PUSH2 0x253D JUMP JUMPDEST SWAP3 POP PUSH2 0xBA6 JUMP JUMPDEST PUSH1 0x1 ISZERO ISZERO DUP2 ISZERO ISZERO EQ ISZERO PUSH2 0xC0F JUMPI PUSH1 0x1 SWAP4 POP POP POP POP PUSH2 0xC17 JUMP JUMPDEST PUSH1 0x0 SWAP4 POP POP POP POP JUMPDEST SWAP4 SWAP3 POP POP POP JUMP JUMPDEST PUSH1 0x0 PUSH1 0x40 MLOAD DUP1 PUSH1 0xE0 ADD PUSH1 0x40 MSTORE DUP1 PUSH1 0x0 SLOAD DUP2 MSTORE PUSH1 0x20 ADD DUP8 DUP8 DUP1 DUP1 PUSH1 0x1F ADD PUSH1 0x20 DUP1 SWAP2 DIV MUL PUSH1 0x20 ADD PUSH1 0x40 MLOAD SWAP1 DUP2 ADD PUSH1 0x40 MSTORE DUP1 SWAP4 SWAP3 SWAP2 SWAP1 DUP2 DUP2 MSTORE PUSH1 0x20 ADD DUP4 DUP4 DUP1 DUP3 DUP5 CALLDATACOPY PUSH1 0x0 DUP2 DUP5 ADD MSTORE PUSH1 0x1F NOT PUSH1 0x1F DUP3 ADD AND SWAP1 POP DUP1 DUP4 ADD SWAP3 POP POP POP POP POP POP POP DUP2 MSTORE PUSH1 0x20 ADD DUP6 DUP6 DUP1 DUP1 PUSH1 0x1F ADD PUSH1 0x20 DUP1 SWAP2 DIV MUL PUSH1 0x20 ADD PUSH1 0x40 MLOAD SWAP1 DUP2 ADD PUSH1 0x40 MSTORE DUP1 SWAP4 SWAP3 SWAP2 SWAP1 DUP2 DUP2 MSTORE PUSH1 0x20 ADD DUP4 DUP4 DUP1 DUP3 DUP5 CALLDATACOPY PUSH1 0x0 DUP2 DUP5 ADD MSTORE PUSH1 0x1F NOT PUSH1 0x1F DUP3 ADD AND SWAP1 POP DUP1 DUP4 ADD SWAP3 POP POP POP POP POP POP POP DUP2 MSTORE PUSH1 0x20 ADD PUSH1 0x1 ISZERO ISZERO DUP2 MSTORE PUSH1 0x20 ADD DUP4 DUP2 MSTORE PUSH1 0x20 ADD CALLER PUSH20 0xFFFFFFFFFFFFFFFFFFFFFFFFFFFFFFFFFFFFFFFF AND DUP2 MSTORE PUSH1 0x20 ADD PUSH2 0x16D PUSH8 0xFFFFFFFFFFFFFFFF DUP2 GT ISZERO PUSH2 0xD0E JUMPI PUSH2 0xD0D PUSH2 0x27A4 JUMP JUMPDEST JUMPDEST PUSH1 0x40 MLOAD SWAP1 DUP1 DUP3 MSTORE DUP1 PUSH1 0x20 MUL PUSH1 0x20 ADD DUP3 ADD PUSH1 0x40 MSTORE DUP1 ISZERO PUSH2 0xD3C JUMPI DUP2 PUSH1 0x20 ADD PUSH1 0x20 DUP3 MUL DUP1 CALLDATASIZE DUP4 CALLDATACOPY DUP1 DUP3 ADD SWAP2 POP POP SWAP1 POP JUMPDEST POP DUP2 MSTORE POP SWAP1 POP DUP1 PUSH1 0x2 PUSH1 0x0 DUP1 SLOAD DUP2 MSTORE PUSH1 0x20 ADD SWAP1 DUP2 MSTORE PUSH1 0x20 ADD PUSH1 0x0 KECCAK256 PUSH1 0x0 DUP3 ADD MLOAD DUP2 PUSH1 0x0 ADD SSTORE PUSH1 0x20 DUP3 ADD MLOAD DUP2 PUSH1 0x1 ADD SWAP1 DUP1 MLOAD SWAP1 PUSH1 0x20 ADD SWAP1 PUSH2 0xD7D SWAP3 SWAP2 SWAP1 PUSH2 0x19D0 JUMP JUMPDEST POP PUSH1 0x40 DUP3 ADD MLOAD DUP2 PUSH1 0x2 ADD SWAP1 DUP1 MLOAD SWAP1 PUSH1 0x20 ADD SWAP1 PUSH2 0xD9A SWAP3 SWAP2 SWAP1 PUSH2 0x19D0 JUMP JUMPDEST POP PUSH1 0x60 DUP3 ADD MLOAD DUP2 PUSH1 0x3 ADD PUSH1 0x0 PUSH2 0x100 EXP DUP2 SLOAD DUP2 PUSH1 0xFF MUL NOT AND SWAP1 DUP4 ISZERO ISZERO MUL OR SWAP1 SSTORE POP PUSH1 0x80 DUP3 ADD MLOAD DUP2 PUSH1 0x4 ADD SSTORE PUSH1 0xA0 DUP3 ADD MLOAD DUP2 PUSH1 0x5 ADD PUSH1 0x0 PUSH2 0x100 EXP DUP2 SLOAD DUP2 PUSH20 0xFFFFFFFFFFFFFFFFFFFFFFFFFFFFFFFFFFFFFFFF MUL NOT AND SWAP1 DUP4 PUSH20 0xFFFFFFFFFFFFFFFFFFFFFFFFFFFFFFFFFFFFFFFF AND MUL OR SWAP1 SSTORE POP PUSH1 0xC0 DUP3 ADD MLOAD DUP2 PUSH1 0x6 ADD SWAP1 DUP1 MLOAD SWAP1 PUSH1 0x20 ADD SWAP1 PUSH2 0xE28 SWAP3 SWAP2 SWAP1 PUSH2 0x1A56 JUMP JUMPDEST POP SWAP1 POP POP PUSH1 0x0 DUP1 DUP2 SLOAD DUP1 SWAP3 SWAP2 SWAP1 PUSH2 0xE3E SWAP1 PUSH2 0x26CE JUMP JUMPDEST SWAP2 SWAP1 POP SSTORE PUSH32 0xE3DFA06732E0549F98A5F6D34268FBB7DA76B458E78C8EA5B1D7029396CC2164 PUSH1 0x40 MLOAD PUSH1 0x40 MLOAD DUP1 SWAP2 SUB SWAP1 LOG2 POP POP POP POP POP POP JUMP JUMPDEST PUSH1 0x60 PUSH1 0x0 CALLER SWAP1 POP PUSH1 0x3 PUSH1 0x0 DUP3 PUSH20 0xFFFFFFFFFFFFFFFFFFFFFFFFFFFFFFFFFFFFFFFF AND PUSH20 0xFFFFFFFFFFFFFFFFFFFFFFFFFFFFFFFFFFFFFFFF AND DUP2 MSTORE PUSH1 0x20 ADD SWAP1 DUP2 MSTORE PUSH1 0x20 ADD PUSH1 0x0 KECCAK256 DUP1 SLOAD DUP1 PUSH1 0x20 MUL PUSH1 0x20 ADD PUSH1 0x40 MLOAD SWAP1 DUP2 ADD PUSH1 0x40 MSTORE DUP1 SWAP3 SWAP2 SWAP1 DUP2 DUP2 MSTORE PUSH1 0x20 ADD PUSH1 0x0 SWAP1 JUMPDEST DUP3 DUP3 LT ISZERO PUSH2 0xF96 JUMPI DUP4 DUP3 SWAP1 PUSH1 0x0 MSTORE PUSH1 0x20 PUSH1 0x0 KECCAK256 SWAP1 PUSH1 0x6 MUL ADD PUSH1 0x40 MLOAD DUP1 PUSH1 0xC0 ADD PUSH1 0x40 MSTORE SWAP1 DUP2 PUSH1 0x0 DUP3 ADD SLOAD DUP2 MSTORE PUSH1 0x20 ADD PUSH1 0x1 DUP3 ADD SLOAD DUP2 MSTORE PUSH1 0x20 ADD PUSH1 0x2 DUP3 ADD SLOAD DUP2 MSTORE PUSH1 0x20 ADD PUSH1 0x3 DUP3 ADD SLOAD DUP2 MSTORE PUSH1 0x20 ADD PUSH1 0x4 DUP3 ADD SLOAD DUP2 MSTORE PUSH1 0x20 ADD PUSH1 0x5 DUP3 ADD PUSH1 0x0 SWAP1 SLOAD SWAP1 PUSH2 0x100 EXP SWAP1 DIV PUSH20 0xFFFFFFFFFFFFFFFFFFFFFFFFFFFFFFFFFFFFFFFF AND PUSH20 0xFFFFFFFFFFFFFFFFFFFFFFFFFFFFFFFFFFFFFFFF AND PUSH20 0xFFFFFFFFFFFFFFFFFFFFFFFFFFFFFFFFFFFFFFFF AND DUP2 MSTORE POP POP DUP2 MSTORE PUSH1 0x20 ADD SWAP1 PUSH1 0x1 ADD SWAP1 PUSH2 0xEDC JUMP JUMPDEST POP POP POP POP SWAP2 POP POP SWAP1 JUMP JUMPDEST PUSH1 0x60 PUSH1 0x4 PUSH1 0x0 DUP4 DUP2 MSTORE PUSH1 0x20 ADD SWAP1 DUP2 MSTORE PUSH1 0x20 ADD PUSH1 0x0 KECCAK256 DUP1 SLOAD DUP1 PUSH1 0x20 MUL PUSH1 0x20 ADD PUSH1 0x40 MLOAD SWAP1 DUP2 ADD PUSH1 0x40 MSTORE DUP1 SWAP3 SWAP2 SWAP1 DUP2 DUP2 MSTORE PUSH1 0x20 ADD PUSH1 0x0 SWAP1 JUMPDEST DUP3 DUP3 LT ISZERO PUSH2 0x108F JUMPI DUP4 DUP3 SWAP1 PUSH1 0x0 MSTORE PUSH1 0x20 PUSH1 0x0 KECCAK256 SWAP1 PUSH1 0x6 MUL ADD PUSH1 0x40 MLOAD DUP1 PUSH1 0xC0 ADD PUSH1 0x40 MSTORE SWAP1 DUP2 PUSH1 0x0 DUP3 ADD SLOAD DUP2 MSTORE PUSH1 0x20 ADD PUSH1 0x1 DUP3 ADD SLOAD DUP2 MSTORE PUSH1 0x20 ADD PUSH1 0x2 DUP3 ADD SLOAD DUP2 MSTORE PUSH1 0x20 ADD PUSH1 0x3 DUP3 ADD SLOAD DUP2 MSTORE PUSH1 0x20 ADD PUSH1 0x4 DUP3 ADD SLOAD DUP2 MSTORE PUSH1 0x20 ADD PUSH1 0x5 DUP3 ADD PUSH1 0x0 SWAP1 SLOAD SWAP1 PUSH2 0x100 EXP SWAP1 DIV PUSH20 0xFFFFFFFFFFFFFFFFFFFFFFFFFFFFFFFFFFFFFFFF AND PUSH20 0xFFFFFFFFFFFFFFFFFFFFFFFFFFFFFFFFFFFFFFFF AND PUSH20 0xFFFFFFFFFFFFFFFFFFFFFFFFFFFFFFFFFFFFFFFF AND DUP2 MSTORE POP POP DUP2 MSTORE PUSH1 0x20 ADD SWAP1 PUSH1 0x1 ADD SWAP1 PUSH2 0xFD5 JUMP JUMPDEST POP POP POP POP SWAP1 POP SWAP2 SWAP1 POP JUMP JUMPDEST PUSH1 0x0 PUSH1 0x2 PUSH1 0x0 DUP7 DUP2 MSTORE PUSH1 0x20 ADD SWAP1 DUP2 MSTORE PUSH1 0x20 ADD PUSH1 0x0 KECCAK256 SWAP1 POP PUSH1 0x1 ISZERO ISZERO DUP2 PUSH1 0x3 ADD PUSH1 0x0 SWAP1 SLOAD SWAP1 PUSH2 0x100 EXP SWAP1 DIV PUSH1 0xFF AND ISZERO ISZERO EQ PUSH2 0x1109 JUMPI PUSH1 0x40 MLOAD PUSH32 0x8C379A000000000000000000000000000000000000000000000000000000000 DUP2 MSTORE PUSH1 0x4 ADD PUSH2 0x1100 SWAP1 PUSH2 0x232D JUMP JUMPDEST PUSH1 0x40 MLOAD DUP1 SWAP2 SUB SWAP1 REVERT JUMPDEST PUSH1 0x0 DUP4 SWAP1 POP PUSH1 0x0 DUP4 SWAP1 POP PUSH1 0x0 JUMPDEST DUP2 DUP4 LT ISZERO PUSH2 0x11B4 JUMPI PUSH1 0x0 DUP5 PUSH1 0x6 ADD DUP5 DUP2 SLOAD DUP2 LT PUSH2 0x1136 JUMPI PUSH2 0x1135 PUSH2 0x2775 JUMP JUMPDEST JUMPDEST SWAP1 PUSH1 0x0 MSTORE PUSH1 0x20 PUSH1 0x0 KECCAK256 SWAP1 PUSH1 0x20 SWAP2 DUP3 DUP3 DIV ADD SWAP2 SWAP1 MOD SWAP1 SLOAD SWAP1 PUSH2 0x100 EXP SWAP1 DIV PUSH1 0xFF AND SWAP1 POP PUSH1 0x0 ISZERO ISZERO DUP2 ISZERO ISZERO EQ PUSH2 0x119F JUMPI PUSH1 0x40 MLOAD PUSH32 0x8C379A000000000000000000000000000000000000000000000000000000000 DUP2 MSTORE PUSH1 0x4 ADD PUSH2 0x1196 SWAP1 PUSH2 0x230D JUMP JUMPDEST PUSH1 0x40 MLOAD DUP1 SWAP2 SUB SWAP1 REVERT JUMPDEST PUSH1 0x1 DUP5 PUSH2 0x11AC SWAP2 SWAP1 PUSH2 0x253D JUMP JUMPDEST SWAP4 POP POP PUSH2 0x1116 JUMP JUMPDEST DUP6 DUP6 PUSH2 0x11C0 SWAP2 SWAP1 PUSH2 0x25ED JUMP JUMPDEST SWAP1 POP PUSH7 0x38D7EA4C68000 DUP5 PUSH1 0x4 ADD SLOAD DUP3 PUSH2 0x11DA SWAP2 SWAP1 PUSH2 0x2593 JUMP JUMPDEST PUSH2 0x11E4 SWAP2 SWAP1 PUSH2 0x2593 JUMP JUMPDEST CALLVALUE EQ PUSH2 0x1225 JUMPI PUSH1 0x40 MLOAD PUSH32 0x8C379A000000000000000000000000000000000000000000000000000000000 DUP2 MSTORE PUSH1 0x4 ADD PUSH2 0x121C SWAP1 PUSH2 0x22ED JUMP JUMPDEST PUSH1 0x40 MLOAD DUP1 SWAP2 SUB SWAP1 REVERT JUMPDEST PUSH2 0x1231 DUP9 DUP9 DUP9 DUP9 PUSH2 0x1675 JUMP JUMPDEST PUSH2 0x125F DUP5 PUSH1 0x5 ADD PUSH1 0x0 SWAP1 SLOAD SWAP1 PUSH2 0x100 EXP SWAP1 DIV PUSH20 0xFFFFFFFFFFFFFFFFFFFFFFFFFFFFFFFFFFFFFFFF AND CALLVALUE PUSH2 0x193F JUMP JUMPDEST POP POP POP POP POP POP POP POP JUMP JUMPDEST PUSH1 0x2 PUSH1 0x20 MSTORE DUP1 PUSH1 0x0 MSTORE PUSH1 0x40 PUSH1 0x0 KECCAK256 PUSH1 0x0 SWAP2 POP SWAP1 POP DUP1 PUSH1 0x0 ADD SLOAD SWAP1 DUP1 PUSH1 0x1 ADD DUP1 SLOAD PUSH2 0x1292 SWAP1 PUSH2 0x269C JUMP JUMPDEST DUP1 PUSH1 0x1F ADD PUSH1 0x20 DUP1 SWAP2 DIV MUL PUSH1 0x20 ADD PUSH1 0x40 MLOAD SWAP1 DUP2 ADD PUSH1 0x40 MSTORE DUP1 SWAP3 SWAP2 SWAP1 DUP2 DUP2 MSTORE PUSH1 0x20 ADD DUP3 DUP1 SLOAD PUSH2 0x12BE SWAP1 PUSH2 0x269C JUMP JUMPDEST DUP1 ISZERO PUSH2 0x130B JUMPI DUP1 PUSH1 0x1F LT PUSH2 0x12E0 JUMPI PUSH2 0x100 DUP1 DUP4 SLOAD DIV MUL DUP4 MSTORE SWAP2 PUSH1 0x20 ADD SWAP2 PUSH2 0x130B JUMP JUMPDEST DUP3 ADD SWAP2 SWAP1 PUSH1 0x0 MSTORE PUSH1 0x20 PUSH1 0x0 KECCAK256 SWAP1 JUMPDEST DUP2 SLOAD DUP2 MSTORE SWAP1 PUSH1 0x1 ADD SWAP1 PUSH1 0x20 ADD DUP1 DUP4 GT PUSH2 0x12EE JUMPI DUP3 SWAP1 SUB PUSH1 0x1F AND DUP3 ADD SWAP2 JUMPDEST POP POP POP POP POP SWAP1 DUP1 PUSH1 0x2 ADD DUP1 SLOAD PUSH2 0x1320 SWAP1 PUSH2 0x269C JUMP JUMPDEST DUP1 PUSH1 0x1F ADD PUSH1 0x20 DUP1 SWAP2 DIV MUL PUSH1 0x20 ADD PUSH1 0x40 MLOAD SWAP1 DUP2 ADD PUSH1 0x40 MSTORE DUP1 SWAP3 SWAP2 SWAP1 DUP2 DUP2 MSTORE PUSH1 0x20 ADD DUP3 DUP1 SLOAD PUSH2 0x134C SWAP1 PUSH2 0x269C JUMP JUMPDEST DUP1 ISZERO PUSH2 0x1399 JUMPI DUP1 PUSH1 0x1F LT PUSH2 0x136E JUMPI PUSH2 0x100 DUP1 DUP4 SLOAD DIV MUL DUP4 MSTORE SWAP2 PUSH1 0x20 ADD SWAP2 PUSH2 0x1399 JUMP JUMPDEST DUP3 ADD SWAP2 SWAP1 PUSH1 0x0 MSTORE PUSH1 0x20 PUSH1 0x0 KECCAK256 SWAP1 JUMPDEST DUP2 SLOAD DUP2 MSTORE SWAP1 PUSH1 0x1 ADD SWAP1 PUSH1 0x20 ADD DUP1 DUP4 GT PUSH2 0x137C JUMPI DUP3 SWAP1 SUB PUSH1 0x1F AND DUP3 ADD SWAP2 JUMPDEST POP POP POP POP POP SWAP1 DUP1 PUSH1 0x3 ADD PUSH1 0x0 SWAP1 SLOAD SWAP1 PUSH2 0x100 EXP SWAP1 DIV PUSH1 0xFF AND SWAP1 DUP1 PUSH1 0x4 ADD SLOAD SWAP1 DUP1 PUSH1 0x5 ADD PUSH1 0x0 SWAP1 SLOAD SWAP1 PUSH2 0x100 EXP SWAP1 DIV PUSH20 0xFFFFFFFFFFFFFFFFFFFFFFFFFFFFFFFFFFFFFFFF AND SWAP1 POP DUP7 JUMP JUMPDEST PUSH1 0x60 DUP1 PUSH1 0x0 JUMPDEST PUSH1 0x0 SLOAD DUP2 LT ISZERO PUSH2 0x1667 JUMPI PUSH1 0x2 PUSH1 0x0 DUP3 DUP2 MSTORE PUSH1 0x20 ADD SWAP1 DUP2 MSTORE PUSH1 0x20 ADD PUSH1 0x0 KECCAK256 PUSH1 0x40 MLOAD DUP1 PUSH1 0xE0 ADD PUSH1 0x40 MSTORE SWAP1 DUP2 PUSH1 0x0 DUP3 ADD SLOAD DUP2 MSTORE PUSH1 0x20 ADD PUSH1 0x1 DUP3 ADD DUP1 SLOAD PUSH2 0x142A SWAP1 PUSH2 0x269C JUMP JUMPDEST DUP1 PUSH1 0x1F ADD PUSH1 0x20 DUP1 SWAP2 DIV MUL PUSH1 0x20 ADD PUSH1 0x40 MLOAD SWAP1 DUP2 ADD PUSH1 0x40 MSTORE DUP1 SWAP3 SWAP2 SWAP1 DUP2 DUP2 MSTORE PUSH1 0x20 ADD DUP3 DUP1 SLOAD PUSH2 0x1456 SWAP1 PUSH2 0x269C JUMP JUMPDEST DUP1 ISZERO PUSH2 0x14A3 JUMPI DUP1 PUSH1 0x1F LT PUSH2 0x1478 JUMPI PUSH2 0x100 DUP1 DUP4 SLOAD DIV MUL DUP4 MSTORE SWAP2 PUSH1 0x20 ADD SWAP2 PUSH2 0x14A3 JUMP JUMPDEST DUP3 ADD SWAP2 SWAP1 PUSH1 0x0 MSTORE PUSH1 0x20 PUSH1 0x0 KECCAK256 SWAP1 JUMPDEST DUP2 SLOAD DUP2 MSTORE SWAP1 PUSH1 0x1 ADD SWAP1 PUSH1 0x20 ADD DUP1 DUP4 GT PUSH2 0x1486 JUMPI DUP3 SWAP1 SUB PUSH1 0x1F AND DUP3 ADD SWAP2 JUMPDEST POP POP POP POP POP DUP2 MSTORE PUSH1 0x20 ADD PUSH1 0x2 DUP3 ADD DUP1 SLOAD PUSH2 0x14BC SWAP1 PUSH2 0x269C JUMP JUMPDEST DUP1 PUSH1 0x1F ADD PUSH1 0x20 DUP1 SWAP2 DIV MUL PUSH1 0x20 ADD PUSH1 0x40 MLOAD SWAP1 DUP2 ADD PUSH1 0x40 MSTORE DUP1 SWAP3 SWAP2 SWAP1 DUP2 DUP2 MSTORE PUSH1 0x20 ADD DUP3 DUP1 SLOAD PUSH2 0x14E8 SWAP1 PUSH2 0x269C JUMP JUMPDEST DUP1 ISZERO PUSH2 0x1535 JUMPI DUP1 PUSH1 0x1F LT PUSH2 0x150A JUMPI PUSH2 0x100 DUP1 DUP4 SLOAD DIV MUL DUP4 MSTORE SWAP2 PUSH1 0x20 ADD SWAP2 PUSH2 0x1535 JUMP JUMPDEST DUP3 ADD SWAP2 SWAP1 PUSH1 0x0 MSTORE PUSH1 0x20 PUSH1 0x0 KECCAK256 SWAP1 JUMPDEST DUP2 SLOAD DUP2 MSTORE SWAP1 PUSH1 0x1 ADD SWAP1 PUSH1 0x20 ADD DUP1 DUP4 GT PUSH2 0x1518 JUMPI DUP3 SWAP1 SUB PUSH1 0x1F AND DUP3 ADD SWAP2 JUMPDEST POP POP POP POP POP DUP2 MSTORE PUSH1 0x20 ADD PUSH1 0x3 DUP3 ADD PUSH1 0x0 SWAP1 SLOAD SWAP1 PUSH2 0x100 EXP SWAP1 DIV PUSH1 0xFF AND ISZERO ISZERO ISZERO ISZERO DUP2 MSTORE PUSH1 0x20 ADD PUSH1 0x4 DUP3 ADD SLOAD DUP2 MSTORE PUSH1 0x20 ADD PUSH1 0x5 DUP3 ADD PUSH1 0x0 SWAP1 SLOAD SWAP1 PUSH2 0x100 EXP SWAP1 DIV PUSH20 0xFFFFFFFFFFFFFFFFFFFFFFFFFFFFFFFFFFFFFFFF AND PUSH20 0xFFFFFFFFFFFFFFFFFFFFFFFFFFFFFFFFFFFFFFFF AND PUSH20 0xFFFFFFFFFFFFFFFFFFFFFFFFFFFFFFFFFFFFFFFF AND DUP2 MSTORE PUSH1 0x20 ADD PUSH1 0x6 DUP3 ADD DUP1 SLOAD DUP1 PUSH1 0x20 MUL PUSH1 0x20 ADD PUSH1 0x40 MLOAD SWAP1 DUP2 ADD PUSH1 0x40 MSTORE DUP1 SWAP3 SWAP2 SWAP1 DUP2 DUP2 MSTORE PUSH1 0x20 ADD DUP3 DUP1 SLOAD DUP1 ISZERO PUSH2 0x162D JUMPI PUSH1 0x20 MUL DUP3 ADD SWAP2 SWAP1 PUSH1 0x0 MSTORE PUSH1 0x20 PUSH1 0x0 KECCAK256 SWAP1 PUSH1 0x0 SWAP1 JUMPDEST DUP3 DUP3 SWAP1 SLOAD SWAP1 PUSH2 0x100 EXP SWAP1 DIV PUSH1 0xFF AND ISZERO ISZERO DUP2 MSTORE PUSH1 0x20 ADD SWAP1 PUSH1 0x1 ADD SWAP1 PUSH1 0x20 DUP3 PUSH1 0x0 ADD DIV SWAP3 DUP4 ADD SWAP3 PUSH1 0x1 SUB DUP3 MUL SWAP2 POP DUP1 DUP5 GT PUSH2 0x15F7 JUMPI SWAP1 POP JUMPDEST POP POP POP POP POP DUP2 MSTORE POP POP DUP3 DUP3 DUP2 MLOAD DUP2 LT PUSH2 0x1649 JUMPI PUSH2 0x1648 PUSH2 0x2775 JUMP JUMPDEST JUMPDEST PUSH1 0x20 MUL PUSH1 0x20 ADD ADD DUP2 SWAP1 MSTORE POP DUP1 DUP1 PUSH2 0x165F SWAP1 PUSH2 0x26CE JUMP JUMPDEST SWAP2 POP POP PUSH2 0x13E8 JUMP JUMPDEST POP DUP1 SWAP2 POP POP SWAP1 JUMP JUMPDEST PUSH1 0x0 SLOAD DUP2 JUMP JUMPDEST PUSH1 0x0 PUSH1 0x40 MLOAD DUP1 PUSH1 0xC0 ADD PUSH1 0x40 MSTORE DUP1 PUSH1 0x1 SLOAD DUP2 MSTORE PUSH1 0x20 ADD DUP7 DUP2 MSTORE PUSH1 0x20 ADD DUP6 DUP2 MSTORE PUSH1 0x20 ADD PUSH1 0x1 DUP6 PUSH2 0x16A3 SWAP2 SWAP1 PUSH2 0x253D JUMP JUMPDEST DUP2 MSTORE PUSH1 0x20 ADD PUSH1 0x1 DUP5 PUSH2 0x16B5 SWAP2 SWAP1 PUSH2 0x253D JUMP JUMPDEST DUP2 MSTORE PUSH1 0x20 ADD CALLER PUSH20 0xFFFFFFFFFFFFFFFFFFFFFFFFFFFFFFFFFFFFFFFF AND DUP2 MSTORE POP SWAP1 POP PUSH1 0x0 PUSH1 0x2 PUSH1 0x0 DUP8 DUP2 MSTORE PUSH1 0x20 ADD SWAP1 DUP2 MSTORE PUSH1 0x20 ADD PUSH1 0x0 KECCAK256 SWAP1 POP PUSH1 0x0 DUP5 SWAP1 POP PUSH1 0x0 DUP5 SWAP1 POP JUMPDEST DUP1 DUP3 LT ISZERO PUSH2 0x1755 JUMPI PUSH1 0x1 DUP4 PUSH1 0x6 ADD DUP4 DUP2 SLOAD DUP2 LT PUSH2 0x1718 JUMPI PUSH2 0x1717 PUSH2 0x2775 JUMP JUMPDEST JUMPDEST SWAP1 PUSH1 0x0 MSTORE PUSH1 0x20 PUSH1 0x0 KECCAK256 SWAP1 PUSH1 0x20 SWAP2 DUP3 DUP3 DIV ADD SWAP2 SWAP1 MOD PUSH2 0x100 EXP DUP2 SLOAD DUP2 PUSH1 0xFF MUL NOT AND SWAP1 DUP4 ISZERO ISZERO MUL OR SWAP1 SSTORE POP PUSH1 0x1 DUP3 PUSH2 0x174E SWAP2 SWAP1 PUSH2 0x253D JUMP JUMPDEST SWAP2 POP PUSH2 0x16F8 JUMP JUMPDEST PUSH1 0x3 PUSH1 0x0 CALLER PUSH20 0xFFFFFFFFFFFFFFFFFFFFFFFFFFFFFFFFFFFFFFFF AND PUSH20 0xFFFFFFFFFFFFFFFFFFFFFFFFFFFFFFFFFFFFFFFF AND DUP2 MSTORE PUSH1 0x20 ADD SWAP1 DUP2 MSTORE PUSH1 0x20 ADD PUSH1 0x0 KECCAK256 DUP5 SWAP1 DUP1 PUSH1 0x1 DUP2 SLOAD ADD DUP1 DUP3 SSTORE DUP1 SWAP2 POP POP PUSH1 0x1 SWAP1 SUB SWAP1 PUSH1 0x0 MSTORE PUSH1 0x20 PUSH1 0x0 KECCAK256 SWAP1 PUSH1 0x6 MUL ADD PUSH1 0x0 SWAP1 SWAP2 SWAP1 SWAP2 SWAP1 SWAP2 POP PUSH1 0x0 DUP3 ADD MLOAD DUP2 PUSH1 0x0 ADD SSTORE PUSH1 0x20 DUP3 ADD MLOAD DUP2 PUSH1 0x1 ADD SSTORE PUSH1 0x40 DUP3 ADD MLOAD DUP2 PUSH1 0x2 ADD SSTORE PUSH1 0x60 DUP3 ADD MLOAD DUP2 PUSH1 0x3 ADD SSTORE PUSH1 0x80 DUP3 ADD MLOAD DUP2 PUSH1 0x4 ADD SSTORE PUSH1 0xA0 DUP3 ADD MLOAD DUP2 PUSH1 0x5 ADD PUSH1 0x0 PUSH2 0x100 EXP DUP2 SLOAD DUP2 PUSH20 0xFFFFFFFFFFFFFFFFFFFFFFFFFFFFFFFFFFFFFFFF MUL NOT AND SWAP1 DUP4 PUSH20 0xFFFFFFFFFFFFFFFFFFFFFFFFFFFFFFFFFFFFFFFF AND MUL OR SWAP1 SSTORE POP POP POP PUSH1 0x4 PUSH1 0x0 DUP10 DUP2 MSTORE PUSH1 0x20 ADD SWAP1 DUP2 MSTORE PUSH1 0x20 ADD PUSH1 0x0 KECCAK256 DUP5 SWAP1 DUP1 PUSH1 0x1 DUP2 SLOAD ADD DUP1 DUP3 SSTORE DUP1 SWAP2 POP POP PUSH1 0x1 SWAP1 SUB SWAP1 PUSH1 0x0 MSTORE PUSH1 0x20 PUSH1 0x0 KECCAK256 SWAP1 PUSH1 0x6 MUL ADD PUSH1 0x0 SWAP1 SWAP2 SWAP1 SWAP2 SWAP1 SWAP2 POP PUSH1 0x0 DUP3 ADD MLOAD DUP2 PUSH1 0x0 ADD SSTORE PUSH1 0x20 DUP3 ADD MLOAD DUP2 PUSH1 0x1 ADD SSTORE PUSH1 0x40 DUP3 ADD MLOAD DUP2 PUSH1 0x2 ADD SSTORE PUSH1 0x60 DUP3 ADD MLOAD DUP2 PUSH1 0x3 ADD SSTORE PUSH1 0x80 DUP3 ADD MLOAD DUP2 PUSH1 0x4 ADD SSTORE PUSH1 0xA0 DUP3 ADD MLOAD DUP2 PUSH1 0x5 ADD PUSH1 0x0 PUSH2 0x100 EXP DUP2 SLOAD DUP2 PUSH20 0xFFFFFFFFFFFFFFFFFFFFFFFFFFFFFFFFFFFFFFFF MUL NOT AND SWAP1 DUP4 PUSH20 0xFFFFFFFFFFFFFFFFFFFFFFFFFFFFFFFFFFFFFFFF AND MUL OR SWAP1 SSTORE POP POP POP PUSH1 0x1 PUSH1 0x0 DUP2 SLOAD DUP1 SWAP3 SWAP2 SWAP1 PUSH2 0x1904 SWAP1 PUSH2 0x26CE JUMP JUMPDEST SWAP2 SWAP1 POP SSTORE DUP9 PUSH32 0x84BAD6E347D9AFF08A38E6EB90827C7999F70BFAF3B0ACBE288F512801B9C139 PUSH1 0x40 MLOAD PUSH1 0x40 MLOAD DUP1 SWAP2 SUB SWAP1 LOG3 POP POP POP POP POP POP POP POP JUMP JUMPDEST DUP2 PUSH20 0xFFFFFFFFFFFFFFFFFFFFFFFFFFFFFFFFFFFFFFFF AND PUSH2 0x8FC DUP3 SWAP1 DUP2 ISZERO MUL SWAP1 PUSH1 0x40 MLOAD PUSH1 0x0 PUSH1 0x40 MLOAD DUP1 DUP4 SUB DUP2 DUP6 DUP9 DUP9 CALL SWAP4 POP POP POP POP ISZERO DUP1 ISZERO PUSH2 0x1985 JUMPI RETURNDATASIZE PUSH1 0x0 DUP1 RETURNDATACOPY RETURNDATASIZE PUSH1 0x0 REVERT JUMPDEST POP POP POP JUMP JUMPDEST PUSH1 0x40 MLOAD DUP1 PUSH1 0x40 ADD PUSH1 0x40 MSTORE DUP1 PUSH1 0x2 SWAP1 PUSH1 0x20 DUP3 MUL DUP1 CALLDATASIZE DUP4 CALLDATACOPY DUP1 DUP3 ADD SWAP2 POP POP SWAP1 POP POP SWAP1 JUMP JUMPDEST POP DUP1 SLOAD PUSH1 0x0 DUP3 SSTORE PUSH1 0x6 MUL SWAP1 PUSH1 0x0 MSTORE PUSH1 0x20 PUSH1 0x0 KECCAK256 SWAP1 DUP2 ADD SWAP1 PUSH2 0x19CD SWAP2 SWAP1 PUSH2 0x1AFC JUMP JUMPDEST POP JUMP JUMPDEST DUP3 DUP1 SLOAD PUSH2 0x19DC SWAP1 PUSH2 0x269C JUMP JUMPDEST SWAP1 PUSH1 0x0 MSTORE PUSH1 0x20 PUSH1 0x0 KECCAK256 SWAP1 PUSH1 0x1F ADD PUSH1 0x20 SWAP1 DIV DUP2 ADD SWAP3 DUP3 PUSH2 0x19FE JUMPI PUSH1 0x0 DUP6 SSTORE PUSH2 0x1A45 JUMP JUMPDEST DUP3 PUSH1 0x1F LT PUSH2 0x1A17 JUMPI DUP1 MLOAD PUSH1 0xFF NOT AND DUP4 DUP1 ADD OR DUP6 SSTORE PUSH2 0x1A45 JUMP JUMPDEST DUP3 DUP1 ADD PUSH1 0x1 ADD DUP6 SSTORE DUP3 ISZERO PUSH2 0x1A45 JUMPI SWAP2 DUP3 ADD JUMPDEST DUP3 DUP2 GT ISZERO PUSH2 0x1A44 JUMPI DUP3 MLOAD DUP3 SSTORE SWAP2 PUSH1 0x20 ADD SWAP2 SWAP1 PUSH1 0x1 ADD SWAP1 PUSH2 0x1A29 JUMP JUMPDEST JUMPDEST POP SWAP1 POP PUSH2 0x1A52 SWAP2 SWAP1 PUSH2 0x1B62 JUMP JUMPDEST POP SWAP1 JUMP JUMPDEST DUP3 DUP1 SLOAD DUP3 DUP3 SSTORE SWAP1 PUSH1 0x0 MSTORE PUSH1 0x20 PUSH1 0x0 KECCAK256 SWAP1 PUSH1 0x1F ADD PUSH1 0x20 SWAP1 DIV DUP2 ADD SWAP3 DUP3 ISZERO PUSH2 0x1AEB JUMPI SWAP2 PUSH1 0x20 MUL DUP3 ADD PUSH1 0x0 JUMPDEST DUP4 DUP3 GT ISZERO PUSH2 0x1ABC JUMPI DUP4 MLOAD DUP4 DUP3 PUSH2 0x100 EXP DUP2 SLOAD DUP2 PUSH1 0xFF MUL NOT AND SWAP1 DUP4 ISZERO ISZERO MUL OR SWAP1 SSTORE POP SWAP3 PUSH1 0x20 ADD SWAP3 PUSH1 0x1 ADD PUSH1 0x20 DUP2 PUSH1 0x0 ADD DIV SWAP3 DUP4 ADD SWAP3 PUSH1 0x1 SUB MUL PUSH2 0x1A7F JUMP JUMPDEST DUP1 ISZERO PUSH2 0x1AE9 JUMPI DUP3 DUP2 PUSH2 0x100 EXP DUP2 SLOAD SWAP1 PUSH1 0xFF MUL NOT AND SWAP1 SSTORE PUSH1 0x1 ADD PUSH1 0x20 DUP2 PUSH1 0x0 ADD DIV SWAP3 DUP4 ADD SWAP3 PUSH1 0x1 SUB MUL PUSH2 0x1ABC JUMP JUMPDEST POP JUMPDEST POP SWAP1 POP PUSH2 0x1AF8 SWAP2 SWAP1 PUSH2 0x1B62 JUMP JUMPDEST POP SWAP1 JUMP JUMPDEST JUMPDEST DUP1 DUP3 GT ISZERO PUSH2 0x1B5E JUMPI PUSH1 0x0 DUP1 DUP3 ADD PUSH1 0x0 SWAP1 SSTORE PUSH1 0x1 DUP3 ADD PUSH1 0x0 SWAP1 SSTORE PUSH1 0x2 DUP3 ADD PUSH1 0x0 SWAP1 SSTORE PUSH1 0x3 DUP3 ADD PUSH1 0x0 SWAP1 SSTORE PUSH1 0x4 DUP3 ADD PUSH1 0x0 SWAP1 SSTORE PUSH1 0x5 DUP3 ADD PUSH1 0x0 PUSH2 0x100 EXP DUP2 SLOAD SWAP1 PUSH20 0xFFFFFFFFFFFFFFFFFFFFFFFFFFFFFFFFFFFFFFFF MUL NOT AND SWAP1 SSTORE POP PUSH1 0x6 ADD PUSH2 0x1AFD JUMP JUMPDEST POP SWAP1 JUMP JUMPDEST JUMPDEST DUP1 DUP3 GT ISZERO PUSH2 0x1B7B JUMPI PUSH1 0x0 DUP2 PUSH1 0x0 SWAP1 SSTORE POP PUSH1 0x1 ADD PUSH2 0x1B63 JUMP JUMPDEST POP SWAP1 JUMP JUMPDEST PUSH1 0x0 DUP2 CALLDATALOAD SWAP1 POP PUSH2 0x1B8E DUP2 PUSH2 0x2878 JUMP JUMPDEST SWAP3 SWAP2 POP POP JUMP JUMPDEST PUSH1 0x0 DUP2 CALLDATALOAD SWAP1 POP PUSH2 0x1BA3 DUP2 PUSH2 0x288F JUMP JUMPDEST SWAP3 SWAP2 POP POP JUMP JUMPDEST PUSH1 0x0 DUP1 DUP4 PUSH1 0x1F DUP5 ADD SLT PUSH2 0x1BBF JUMPI PUSH2 0x1BBE PUSH2 0x27D8 JUMP JUMPDEST JUMPDEST DUP3 CALLDATALOAD SWAP1 POP PUSH8 0xFFFFFFFFFFFFFFFF DUP2 GT ISZERO PUSH2 0x1BDC JUMPI PUSH2 0x1BDB PUSH2 0x27D3 JUMP JUMPDEST JUMPDEST PUSH1 0x20 DUP4 ADD SWAP2 POP DUP4 PUSH1 0x1 DUP3 MUL DUP4 ADD GT ISZERO PUSH2 0x1BF8 JUMPI PUSH2 0x1BF7 PUSH2 0x27DD JUMP JUMPDEST JUMPDEST SWAP3 POP SWAP3 SWAP1 POP JUMP JUMPDEST PUSH1 0x0 DUP2 CALLDATALOAD SWAP1 POP PUSH2 0x1C0E DUP2 PUSH2 0x28A6 JUMP JUMPDEST SWAP3 SWAP2 POP POP JUMP JUMPDEST PUSH1 0x0 DUP1 PUSH1 0x40 DUP4 DUP6 SUB SLT ISZERO PUSH2 0x1C2B JUMPI PUSH2 0x1C2A PUSH2 0x27E7 JUMP JUMPDEST JUMPDEST PUSH1 0x0 PUSH2 0x1C39 DUP6 DUP3 DUP7 ADD PUSH2 0x1B7F JUMP JUMPDEST SWAP3 POP POP PUSH1 0x20 PUSH2 0x1C4A DUP6 DUP3 DUP7 ADD PUSH2 0x1BFF JUMP JUMPDEST SWAP2 POP POP SWAP3 POP SWAP3 SWAP1 POP JUMP JUMPDEST PUSH1 0x0 DUP1 PUSH1 0x0 DUP1 PUSH1 0x0 PUSH1 0x60 DUP7 DUP9 SUB SLT ISZERO PUSH2 0x1C70 JUMPI PUSH2 0x1C6F PUSH2 0x27E7 JUMP JUMPDEST JUMPDEST PUSH1 0x0 DUP7 ADD CALLDATALOAD PUSH8 0xFFFFFFFFFFFFFFFF DUP2 GT ISZERO PUSH2 0x1C8E JUMPI PUSH2 0x1C8D PUSH2 0x27E2 JUMP JUMPDEST JUMPDEST PUSH2 0x1C9A DUP9 DUP3 DUP10 ADD PUSH2 0x1BA9 JUMP JUMPDEST SWAP6 POP SWAP6 POP POP PUSH1 0x20 DUP7 ADD CALLDATALOAD PUSH8 0xFFFFFFFFFFFFFFFF DUP2 GT ISZERO PUSH2 0x1CBD JUMPI PUSH2 0x1CBC PUSH2 0x27E2 JUMP JUMPDEST JUMPDEST PUSH2 0x1CC9 DUP9 DUP3 DUP10 ADD PUSH2 0x1BA9 JUMP JUMPDEST SWAP4 POP SWAP4 POP POP PUSH1 0x40 PUSH2 0x1CDC DUP9 DUP3 DUP10 ADD PUSH2 0x1BFF JUMP JUMPDEST SWAP2 POP POP SWAP3 SWAP6 POP SWAP3 SWAP6 SWAP1 SWAP4 POP JUMP JUMPDEST PUSH1 0x0 PUSH1 0x20 DUP3 DUP5 SUB SLT ISZERO PUSH2 0x1CFF JUMPI PUSH2 0x1CFE PUSH2 0x27E7 JUMP JUMPDEST JUMPDEST PUSH1 0x0 PUSH2 0x1D0D DUP5 DUP3 DUP6 ADD PUSH2 0x1BFF JUMP JUMPDEST SWAP2 POP POP SWAP3 SWAP2 POP POP JUMP JUMPDEST PUSH1 0x0 DUP1 PUSH1 0x40 DUP4 DUP6 SUB SLT ISZERO PUSH2 0x1D2D JUMPI PUSH2 0x1D2C PUSH2 0x27E7 JUMP JUMPDEST JUMPDEST PUSH1 0x0 PUSH2 0x1D3B DUP6 DUP3 DUP7 ADD PUSH2 0x1BFF JUMP JUMPDEST SWAP3 POP POP PUSH1 0x20 PUSH2 0x1D4C DUP6 DUP3 DUP7 ADD PUSH2 0x1B94 JUMP JUMPDEST SWAP2 POP POP SWAP3 POP SWAP3 SWAP1 POP JUMP JUMPDEST PUSH1 0x0 DUP1 PUSH1 0x40 DUP4 DUP6 SUB SLT ISZERO PUSH2 0x1D6D JUMPI PUSH2 0x1D6C PUSH2 0x27E7 JUMP JUMPDEST JUMPDEST PUSH1 0x0 PUSH2 0x1D7B DUP6 DUP3 DUP7 ADD PUSH2 0x1BFF JUMP JUMPDEST SWAP3 POP POP PUSH1 0x20 PUSH2 0x1D8C DUP6 DUP3 DUP7 ADD PUSH2 0x1BFF JUMP JUMPDEST SWAP2 POP POP SWAP3 POP SWAP3 SWAP1 POP JUMP JUMPDEST PUSH1 0x0 DUP1 PUSH1 0x0 PUSH1 0x60 DUP5 DUP7 SUB SLT ISZERO PUSH2 0x1DAF JUMPI PUSH2 0x1DAE PUSH2 0x27E7 JUMP JUMPDEST JUMPDEST PUSH1 0x0 PUSH2 0x1DBD DUP7 DUP3 DUP8 ADD PUSH2 0x1BFF JUMP JUMPDEST SWAP4 POP POP PUSH1 0x20 PUSH2 0x1DCE DUP7 DUP3 DUP8 ADD PUSH2 0x1BFF JUMP JUMPDEST SWAP3 POP POP PUSH1 0x40 PUSH2 0x1DDF DUP7 DUP3 DUP8 ADD PUSH2 0x1BFF JUMP JUMPDEST SWAP2 POP POP SWAP3 POP SWAP3 POP SWAP3 JUMP JUMPDEST PUSH1 0x0 DUP1 PUSH1 0x0 DUP1 PUSH1 0x80 DUP6 DUP8 SUB SLT ISZERO PUSH2 0x1E03 JUMPI PUSH2 0x1E02 PUSH2 0x27E7 JUMP JUMPDEST JUMPDEST PUSH1 0x0 PUSH2 0x1E11 DUP8 DUP3 DUP9 ADD PUSH2 0x1BFF JUMP JUMPDEST SWAP5 POP POP PUSH1 0x20 PUSH2 0x1E22 DUP8 DUP3 DUP9 ADD PUSH2 0x1BFF JUMP JUMPDEST SWAP4 POP POP PUSH1 0x40 PUSH2 0x1E33 DUP8 DUP3 DUP9 ADD PUSH2 0x1BFF JUMP JUMPDEST SWAP3 POP POP PUSH1 0x60 PUSH2 0x1E44 DUP8 DUP3 DUP9 ADD PUSH2 0x1BFF JUMP JUMPDEST SWAP2 POP POP SWAP3 SWAP6 SWAP2 SWAP5 POP SWAP3 POP JUMP JUMPDEST PUSH1 0x0 PUSH2 0x1E5C DUP4 DUP4 PUSH2 0x2052 JUMP JUMPDEST PUSH1 0x20 DUP4 ADD SWAP1 POP SWAP3 SWAP2 POP POP JUMP JUMPDEST PUSH1 0x0 PUSH2 0x1E74 DUP4 DUP4 PUSH2 0x214B JUMP JUMPDEST PUSH1 0xC0 DUP4 ADD SWAP1 POP SWAP3 SWAP2 POP POP JUMP JUMPDEST PUSH1 0x0 PUSH2 0x1E8C DUP4 DUP4 PUSH2 0x21C6 JUMP JUMPDEST SWAP1 POP SWAP3 SWAP2 POP POP JUMP JUMPDEST PUSH1 0x0 PUSH2 0x1EA0 DUP4 DUP4 PUSH2 0x2270 JUMP JUMPDEST PUSH1 0x20 DUP4 ADD SWAP1 POP SWAP3 SWAP2 POP POP JUMP JUMPDEST PUSH2 0x1EB5 DUP2 PUSH2 0x2621 JUMP JUMPDEST DUP3 MSTORE POP POP JUMP JUMPDEST PUSH2 0x1EC4 DUP2 PUSH2 0x2621 JUMP JUMPDEST DUP3 MSTORE POP POP JUMP JUMPDEST PUSH1 0x0 PUSH2 0x1ED5 DUP3 PUSH2 0x2472 JUMP JUMPDEST PUSH2 0x1EDF DUP2 DUP6 PUSH2 0x24DD JUMP JUMPDEST SWAP4 POP PUSH2 0x1EEA DUP4 PUSH2 0x2438 JUMP JUMPDEST DUP1 PUSH1 0x0 JUMPDEST DUP4 DUP2 LT ISZERO PUSH2 0x1F1B JUMPI DUP2 MLOAD PUSH2 0x1F02 DUP9 DUP3 PUSH2 0x1E50 JUMP JUMPDEST SWAP8 POP PUSH2 0x1F0D DUP4 PUSH2 0x24A9 JUMP JUMPDEST SWAP3 POP POP PUSH1 0x1 DUP2 ADD SWAP1 POP PUSH2 0x1EEE JUMP JUMPDEST POP DUP6 SWAP4 POP POP POP POP SWAP3 SWAP2 POP POP JUMP JUMPDEST PUSH1 0x0 PUSH2 0x1F33 DUP3 PUSH2 0x247D JUMP JUMPDEST PUSH2 0x1F3D DUP2 DUP6 PUSH2 0x24EE JUMP JUMPDEST SWAP4 POP PUSH2 0x1F48 DUP4 PUSH2 0x2448 JUMP JUMPDEST DUP1 PUSH1 0x0 JUMPDEST DUP4 DUP2 LT ISZERO PUSH2 0x1F79 JUMPI DUP2 MLOAD PUSH2 0x1F60 DUP9 DUP3 PUSH2 0x1E68 JUMP JUMPDEST SWAP8 POP PUSH2 0x1F6B DUP4 PUSH2 0x24B6 JUMP JUMPDEST SWAP3 POP POP PUSH1 0x1 DUP2 ADD SWAP1 POP PUSH2 0x1F4C JUMP JUMPDEST POP DUP6 SWAP4 POP POP POP POP SWAP3 SWAP2 POP POP JUMP JUMPDEST PUSH1 0x0 PUSH2 0x1F91 DUP3 PUSH2 0x2488 JUMP JUMPDEST PUSH2 0x1F9B DUP2 DUP6 PUSH2 0x24FF JUMP JUMPDEST SWAP4 POP DUP4 PUSH1 0x20 DUP3 MUL DUP6 ADD PUSH2 0x1FAD DUP6 PUSH2 0x2458 JUMP JUMPDEST DUP1 PUSH1 0x0 JUMPDEST DUP6 DUP2 LT ISZERO PUSH2 0x1FE9 JUMPI DUP5 DUP5 SUB DUP10 MSTORE DUP2 MLOAD PUSH2 0x1FCA DUP6 DUP3 PUSH2 0x1E80 JUMP JUMPDEST SWAP5 POP PUSH2 0x1FD5 DUP4 PUSH2 0x24C3 JUMP JUMPDEST SWAP3 POP PUSH1 0x20 DUP11 ADD SWAP10 POP POP PUSH1 0x1 DUP2 ADD SWAP1 POP PUSH2 0x1FB1 JUMP JUMPDEST POP DUP3 SWAP8 POP DUP8 SWAP6 POP POP POP POP POP POP SWAP3 SWAP2 POP POP JUMP JUMPDEST PUSH2 0x2004 DUP2 PUSH2 0x2493 JUMP JUMPDEST PUSH2 0x200E DUP2 DUP5 PUSH2 0x2510 JUMP JUMPDEST SWAP3 POP PUSH2 0x2019 DUP3 PUSH2 0x2468 JUMP JUMPDEST DUP1 PUSH1 0x0 JUMPDEST DUP4 DUP2 LT ISZERO PUSH2 0x204A JUMPI DUP2 MLOAD PUSH2 0x2031 DUP8 DUP3 PUSH2 0x1E94 JUMP JUMPDEST SWAP7 POP PUSH2 0x203C DUP4 PUSH2 0x24D0 JUMP JUMPDEST SWAP3 POP POP PUSH1 0x1 DUP2 ADD SWAP1 POP PUSH2 0x201D JUMP JUMPDEST POP POP POP POP POP POP JUMP JUMPDEST PUSH2 0x205B DUP2 PUSH2 0x2633 JUMP JUMPDEST DUP3 MSTORE POP POP JUMP JUMPDEST PUSH2 0x206A DUP2 PUSH2 0x2633 JUMP JUMPDEST DUP3 MSTORE POP POP JUMP JUMPDEST PUSH1 0x0 PUSH2 0x207B DUP3 PUSH2 0x249E JUMP JUMPDEST PUSH2 0x2085 DUP2 DUP6 PUSH2 0x251B JUMP JUMPDEST SWAP4 POP PUSH2 0x2095 DUP2 DUP6 PUSH1 0x20 DUP7 ADD PUSH2 0x2669 JUMP JUMPDEST PUSH2 0x209E DUP2 PUSH2 0x27EC JUMP JUMPDEST DUP5 ADD SWAP2 POP POP SWAP3 SWAP2 POP POP JUMP JUMPDEST PUSH1 0x0 PUSH2 0x20B4 DUP3 PUSH2 0x249E JUMP JUMPDEST PUSH2 0x20BE DUP2 DUP6 PUSH2 0x252C JUMP JUMPDEST SWAP4 POP PUSH2 0x20CE DUP2 DUP6 PUSH1 0x20 DUP7 ADD PUSH2 0x2669 JUMP JUMPDEST PUSH2 0x20D7 DUP2 PUSH2 0x27EC JUMP JUMPDEST DUP5 ADD SWAP2 POP POP SWAP3 SWAP2 POP POP JUMP JUMPDEST PUSH1 0x0 PUSH2 0x20EF PUSH1 0xD DUP4 PUSH2 0x252C JUMP JUMPDEST SWAP2 POP PUSH2 0x20FA DUP3 PUSH2 0x27FD JUMP JUMPDEST PUSH1 0x20 DUP3 ADD SWAP1 POP SWAP2 SWAP1 POP JUMP JUMPDEST PUSH1 0x0 PUSH2 0x2112 PUSH1 0xE DUP4 PUSH2 0x252C JUMP JUMPDEST SWAP2 POP PUSH2 0x211D DUP3 PUSH2 0x2826 JUMP JUMPDEST PUSH1 0x20 DUP3 ADD SWAP1 POP SWAP2 SWAP1 POP JUMP JUMPDEST PUSH1 0x0 PUSH2 0x2135 PUSH1 0x10 DUP4 PUSH2 0x252C JUMP JUMPDEST SWAP2 POP PUSH2 0x2140 DUP3 PUSH2 0x284F JUMP JUMPDEST PUSH1 0x20 DUP3 ADD SWAP1 POP SWAP2 SWAP1 POP JUMP JUMPDEST PUSH1 0xC0 DUP3 ADD PUSH1 0x0 DUP3 ADD MLOAD PUSH2 0x2161 PUSH1 0x0 DUP6 ADD DUP3 PUSH2 0x2270 JUMP JUMPDEST POP PUSH1 0x20 DUP3 ADD MLOAD PUSH2 0x2174 PUSH1 0x20 DUP6 ADD DUP3 PUSH2 0x2270 JUMP JUMPDEST POP PUSH1 0x40 DUP3 ADD MLOAD PUSH2 0x2187 PUSH1 0x40 DUP6 ADD DUP3 PUSH2 0x2270 JUMP JUMPDEST POP PUSH1 0x60 DUP3 ADD MLOAD PUSH2 0x219A PUSH1 0x60 DUP6 ADD DUP3 PUSH2 0x2270 JUMP JUMPDEST POP PUSH1 0x80 DUP3 ADD MLOAD PUSH2 0x21AD PUSH1 0x80 DUP6 ADD DUP3 PUSH2 0x2270 JUMP JUMPDEST POP PUSH1 0xA0 DUP3 ADD MLOAD PUSH2 0x21C0 PUSH1 0xA0 DUP6 ADD DUP3 PUSH2 0x1EAC JUMP JUMPDEST POP POP POP POP JUMP JUMPDEST PUSH1 0x0 PUSH1 0xE0 DUP4 ADD PUSH1 0x0 DUP4 ADD MLOAD PUSH2 0x21DE PUSH1 0x0 DUP7 ADD DUP3 PUSH2 0x2270 JUMP JUMPDEST POP PUSH1 0x20 DUP4 ADD MLOAD DUP5 DUP3 SUB PUSH1 0x20 DUP7 ADD MSTORE PUSH2 0x21F6 DUP3 DUP3 PUSH2 0x2070 JUMP JUMPDEST SWAP2 POP POP PUSH1 0x40 DUP4 ADD MLOAD DUP5 DUP3 SUB PUSH1 0x40 DUP7 ADD MSTORE PUSH2 0x2210 DUP3 DUP3 PUSH2 0x2070 JUMP JUMPDEST SWAP2 POP POP PUSH1 0x60 DUP4 ADD MLOAD PUSH2 0x2225 PUSH1 0x60 DUP7 ADD DUP3 PUSH2 0x2052 JUMP JUMPDEST POP PUSH1 0x80 DUP4 ADD MLOAD PUSH2 0x2238 PUSH1 0x80 DUP7 ADD DUP3 PUSH2 0x2270 JUMP JUMPDEST POP PUSH1 0xA0 DUP4 ADD MLOAD PUSH2 0x224B PUSH1 0xA0 DUP7 ADD DUP3 PUSH2 0x1EAC JUMP JUMPDEST POP PUSH1 0xC0 DUP4 ADD MLOAD DUP5 DUP3 SUB PUSH1 0xC0 DUP7 ADD MSTORE PUSH2 0x2263 DUP3 DUP3 PUSH2 0x1ECA JUMP JUMPDEST SWAP2 POP POP DUP1 SWAP2 POP POP SWAP3 SWAP2 POP POP JUMP JUMPDEST PUSH2 0x2279 DUP2 PUSH2 0x265F JUMP JUMPDEST DUP3 MSTORE POP POP JUMP JUMPDEST PUSH2 0x2288 DUP2 PUSH2 0x265F JUMP JUMPDEST DUP3 MSTORE POP POP JUMP JUMPDEST PUSH1 0x0 PUSH1 0x20 DUP3 ADD SWAP1 POP DUP2 DUP2 SUB PUSH1 0x0 DUP4 ADD MSTORE PUSH2 0x22A8 DUP2 DUP5 PUSH2 0x1F28 JUMP JUMPDEST SWAP1 POP SWAP3 SWAP2 POP POP JUMP JUMPDEST PUSH1 0x0 PUSH1 0x20 DUP3 ADD SWAP1 POP DUP2 DUP2 SUB PUSH1 0x0 DUP4 ADD MSTORE PUSH2 0x22CA DUP2 DUP5 PUSH2 0x1F86 JUMP JUMPDEST SWAP1 POP SWAP3 SWAP2 POP POP JUMP JUMPDEST PUSH1 0x0 PUSH1 0x40 DUP3 ADD SWAP1 POP PUSH2 0x22E7 PUSH1 0x0 DUP4 ADD DUP5 PUSH2 0x1FFB JUMP JUMPDEST SWAP3 SWAP2 POP POP JUMP JUMPDEST PUSH1 0x0 PUSH1 0x20 DUP3 ADD SWAP1 POP DUP2 DUP2 SUB PUSH1 0x0 DUP4 ADD MSTORE PUSH2 0x2306 DUP2 PUSH2 0x20E2 JUMP JUMPDEST SWAP1 POP SWAP2 SWAP1 POP JUMP JUMPDEST PUSH1 0x0 PUSH1 0x20 DUP3 ADD SWAP1 POP DUP2 DUP2 SUB PUSH1 0x0 DUP4 ADD MSTORE PUSH2 0x2326 DUP2 PUSH2 0x2105 JUMP JUMPDEST SWAP1 POP SWAP2 SWAP1 POP JUMP JUMPDEST PUSH1 0x0 PUSH1 0x20 DUP3 ADD SWAP1 POP DUP2 DUP2 SUB PUSH1 0x0 DUP4 ADD MSTORE PUSH2 0x2346 DUP2 PUSH2 0x2128 JUMP JUMPDEST SWAP1 POP SWAP2 SWAP1 POP JUMP JUMPDEST PUSH1 0x0 PUSH1 0x20 DUP3 ADD SWAP1 POP PUSH2 0x2362 PUSH1 0x0 DUP4 ADD DUP5 PUSH2 0x227F JUMP JUMPDEST SWAP3 SWAP2 POP POP JUMP JUMPDEST PUSH1 0x0 PUSH1 0xC0 DUP3 ADD SWAP1 POP PUSH2 0x237D PUSH1 0x0 DUP4 ADD DUP10 PUSH2 0x227F JUMP JUMPDEST DUP2 DUP2 SUB PUSH1 0x20 DUP4 ADD MSTORE PUSH2 0x238F DUP2 DUP9 PUSH2 0x20A9 JUMP JUMPDEST SWAP1 POP DUP2 DUP2 SUB PUSH1 0x40 DUP4 ADD MSTORE PUSH2 0x23A3 DUP2 DUP8 PUSH2 0x20A9 JUMP JUMPDEST SWAP1 POP PUSH2 0x23B2 PUSH1 0x60 DUP4 ADD DUP7 PUSH2 0x2061 JUMP JUMPDEST PUSH2 0x23BF PUSH1 0x80 DUP4 ADD DUP6 PUSH2 0x227F JUMP JUMPDEST PUSH2 0x23CC PUSH1 0xA0 DUP4 ADD DUP5 PUSH2 0x1EBB JUMP JUMPDEST SWAP8 SWAP7 POP POP POP POP POP POP POP JUMP JUMPDEST PUSH1 0x0 PUSH1 0xC0 DUP3 ADD SWAP1 POP PUSH2 0x23EC PUSH1 0x0 DUP4 ADD DUP10 PUSH2 0x227F JUMP JUMPDEST PUSH2 0x23F9 PUSH1 0x20 DUP4 ADD DUP9 PUSH2 0x227F JUMP JUMPDEST PUSH2 0x2406 PUSH1 0x40 DUP4 ADD DUP8 PUSH2 0x227F JUMP JUMPDEST PUSH2 0x2413 PUSH1 0x60 DUP4 ADD DUP7 PUSH2 0x227F JUMP JUMPDEST PUSH2 0x2420 PUSH1 0x80 DUP4 ADD DUP6 PUSH2 0x227F JUMP JUMPDEST PUSH2 0x242D PUSH1 0xA0 DUP4 ADD DUP5 PUSH2 0x1EBB JUMP JUMPDEST SWAP8 SWAP7 POP POP POP POP POP POP POP JUMP JUMPDEST PUSH1 0x0 DUP2 SWAP1 POP PUSH1 0x20 DUP3 ADD SWAP1 POP SWAP2 SWAP1 POP JUMP JUMPDEST PUSH1 0x0 DUP2 SWAP1 POP PUSH1 0x20 DUP3 ADD SWAP1 POP SWAP2 SWAP1 POP JUMP JUMPDEST PUSH1 0x0 DUP2 SWAP1 POP PUSH1 0x20 DUP3 ADD SWAP1 POP SWAP2 SWAP1 POP JUMP JUMPDEST PUSH1 0x0 DUP2 SWAP1 POP SWAP2 SWAP1 POP JUMP JUMPDEST PUSH1 0x0 DUP2 MLOAD SWAP1 POP SWAP2 SWAP1 POP JUMP JUMPDEST PUSH1 0x0 DUP2 MLOAD SWAP1 POP SWAP2 SWAP1 POP JUMP JUMPDEST PUSH1 0x0 DUP2 MLOAD SWAP1 POP SWAP2 SWAP1 POP JUMP JUMPDEST PUSH1 0x0 PUSH1 0x2 SWAP1 POP SWAP2 SWAP1 POP JUMP JUMPDEST PUSH1 0x0 DUP2 MLOAD SWAP1 POP SWAP2 SWAP1 POP JUMP JUMPDEST PUSH1 0x0 PUSH1 0x20 DUP3 ADD SWAP1 POP SWAP2 SWAP1 POP JUMP JUMPDEST PUSH1 0x0 PUSH1 0x20 DUP3 ADD SWAP1 POP SWAP2 SWAP1 POP JUMP JUMPDEST PUSH1 0x0 PUSH1 0x20 DUP3 ADD SWAP1 POP SWAP2 SWAP1 POP JUMP JUMPDEST PUSH1 0x0 PUSH1 0x20 DUP3 ADD SWAP1 POP SWAP2 SWAP1 POP JUMP JUMPDEST PUSH1 0x0 DUP3 DUP3 MSTORE PUSH1 0x20 DUP3 ADD SWAP1 POP SWAP3 SWAP2 POP POP JUMP JUMPDEST PUSH1 0x0 DUP3 DUP3 MSTORE PUSH1 0x20 DUP3 ADD SWAP1 POP SWAP3 SWAP2 POP POP JUMP JUMPDEST PUSH1 0x0 DUP3 DUP3 MSTORE PUSH1 0x20 DUP3 ADD SWAP1 POP SWAP3 SWAP2 POP POP JUMP JUMPDEST PUSH1 0x0 DUP2 SWAP1 POP SWAP3 SWAP2 POP POP JUMP JUMPDEST PUSH1 0x0 DUP3 DUP3 MSTORE PUSH1 0x20 DUP3 ADD SWAP1 POP SWAP3 SWAP2 POP POP JUMP JUMPDEST PUSH1 0x0 DUP3 DUP3 MSTORE PUSH1 0x20 DUP3 ADD SWAP1 POP SWAP3 SWAP2 POP POP JUMP JUMPDEST PUSH1 0x0 PUSH2 0x2548 DUP3 PUSH2 0x265F JUMP JUMPDEST SWAP2 POP PUSH2 0x2553 DUP4 PUSH2 0x265F JUMP JUMPDEST SWAP3 POP DUP3 PUSH32 0xFFFFFFFFFFFFFFFFFFFFFFFFFFFFFFFFFFFFFFFFFFFFFFFFFFFFFFFFFFFFFFFF SUB DUP3 GT ISZERO PUSH2 0x2588 JUMPI PUSH2 0x2587 PUSH2 0x2717 JUMP JUMPDEST JUMPDEST DUP3 DUP3 ADD SWAP1 POP SWAP3 SWAP2 POP POP JUMP JUMPDEST PUSH1 0x0 PUSH2 0x259E DUP3 PUSH2 0x265F JUMP JUMPDEST SWAP2 POP PUSH2 0x25A9 DUP4 PUSH2 0x265F JUMP JUMPDEST SWAP3 POP DUP2 PUSH32 0xFFFFFFFFFFFFFFFFFFFFFFFFFFFFFFFFFFFFFFFFFFFFFFFFFFFFFFFFFFFFFFFF DIV DUP4 GT DUP3 ISZERO ISZERO AND ISZERO PUSH2 0x25E2 JUMPI PUSH2 0x25E1 PUSH2 0x2717 JUMP JUMPDEST JUMPDEST DUP3 DUP3 MUL SWAP1 POP SWAP3 SWAP2 POP POP JUMP JUMPDEST PUSH1 0x0 PUSH2 0x25F8 DUP3 PUSH2 0x265F JUMP JUMPDEST SWAP2 POP PUSH2 0x2603 DUP4 PUSH2 0x265F JUMP JUMPDEST SWAP3 POP DUP3 DUP3 LT ISZERO PUSH2 0x2616 JUMPI PUSH2 0x2615 PUSH2 0x2717 JUMP JUMPDEST JUMPDEST DUP3 DUP3 SUB SWAP1 POP SWAP3 SWAP2 POP POP JUMP JUMPDEST PUSH1 0x0 PUSH2 0x262C DUP3 PUSH2 0x263F JUMP JUMPDEST SWAP1 POP SWAP2 SWAP1 POP JUMP JUMPDEST PUSH1 0x0 DUP2 ISZERO ISZERO SWAP1 POP SWAP2 SWAP1 POP JUMP JUMPDEST PUSH1 0x0 PUSH20 0xFFFFFFFFFFFFFFFFFFFFFFFFFFFFFFFFFFFFFFFF DUP3 AND SWAP1 POP SWAP2 SWAP1 POP JUMP JUMPDEST PUSH1 0x0 DUP2 SWAP1 POP SWAP2 SWAP1 POP JUMP JUMPDEST PUSH1 0x0 JUMPDEST DUP4 DUP2 LT ISZERO PUSH2 0x2687 JUMPI DUP1 DUP3 ADD MLOAD DUP2 DUP5 ADD MSTORE PUSH1 0x20 DUP2 ADD SWAP1 POP PUSH2 0x266C JUMP JUMPDEST DUP4 DUP2 GT ISZERO PUSH2 0x2696 JUMPI PUSH1 0x0 DUP5 DUP5 ADD MSTORE JUMPDEST POP POP POP POP JUMP JUMPDEST PUSH1 0x0 PUSH1 0x2 DUP3 DIV SWAP1 POP PUSH1 0x1 DUP3 AND DUP1 PUSH2 0x26B4 JUMPI PUSH1 0x7F DUP3 AND SWAP2 POP JUMPDEST PUSH1 0x20 DUP3 LT DUP2 EQ ISZERO PUSH2 0x26C8 JUMPI PUSH2 0x26C7 PUSH2 0x2746 JUMP JUMPDEST JUMPDEST POP SWAP2 SWAP1 POP JUMP JUMPDEST PUSH1 0x0 PUSH2 0x26D9 DUP3 PUSH2 0x265F JUMP JUMPDEST SWAP2 POP PUSH32 0xFFFFFFFFFFFFFFFFFFFFFFFFFFFFFFFFFFFFFFFFFFFFFFFFFFFFFFFFFFFFFFFF DUP3 EQ ISZERO PUSH2 0x270C JUMPI PUSH2 0x270B PUSH2 0x2717 JUMP JUMPDEST JUMPDEST PUSH1 0x1 DUP3 ADD SWAP1 POP SWAP2 SWAP1 POP JUMP JUMPDEST PUSH32 0x4E487B7100000000000000000000000000000000000000000000000000000000 PUSH1 0x0 MSTORE PUSH1 0x11 PUSH1 0x4 MSTORE PUSH1 0x24 PUSH1 0x0 REVERT JUMPDEST PUSH32 0x4E487B7100000000000000000000000000000000000000000000000000000000 PUSH1 0x0 MSTORE PUSH1 0x22 PUSH1 0x4 MSTORE PUSH1 0x24 PUSH1 0x0 REVERT JUMPDEST PUSH32 0x4E487B7100000000000000000000000000000000000000000000000000000000 PUSH1 0x0 MSTORE PUSH1 0x32 PUSH1 0x4 MSTORE PUSH1 0x24 PUSH1 0x0 REVERT JUMPDEST PUSH32 0x4E487B7100000000000000000000000000000000000000000000000000000000 PUSH1 0x0 MSTORE PUSH1 0x41 PUSH1 0x4 MSTORE PUSH1 0x24 PUSH1 0x0 REVERT JUMPDEST PUSH1 0x0 DUP1 REVERT JUMPDEST PUSH1 0x0 DUP1 REVERT JUMPDEST PUSH1 0x0 DUP1 REVERT JUMPDEST PUSH1 0x0 DUP1 REVERT JUMPDEST PUSH1 0x0 DUP1 REVERT JUMPDEST PUSH1 0x0 PUSH1 0x1F NOT PUSH1 0x1F DUP4 ADD AND SWAP1 POP SWAP2 SWAP1 POP JUMP JUMPDEST PUSH32 0x696E76616C696420707269636500000000000000000000000000000000000000 PUSH1 0x0 DUP3 ADD MSTORE POP JUMP JUMPDEST PUSH32 0x616C72656164792072656E746564000000000000000000000000000000000000 PUSH1 0x0 DUP3 ADD MSTORE POP JUMP JUMPDEST PUSH32 0x73686F756C652062652061637469766500000000000000000000000000000000 PUSH1 0x0 DUP3 ADD MSTORE POP JUMP JUMPDEST PUSH2 0x2881 DUP2 PUSH2 0x2621 JUMP JUMPDEST DUP2 EQ PUSH2 0x288C JUMPI PUSH1 0x0 DUP1 REVERT JUMPDEST POP JUMP JUMPDEST PUSH2 0x2898 DUP2 PUSH2 0x2633 JUMP JUMPDEST DUP2 EQ PUSH2 0x28A3 JUMPI PUSH1 0x0 DUP1 REVERT JUMPDEST POP JUMP JUMPDEST PUSH2 0x28AF DUP2 PUSH2 0x265F JUMP JUMPDEST DUP2 EQ PUSH2 0x28BA JUMPI PUSH1 0x0 DUP1 REVERT JUMPDEST POP JUMP INVALID LOG2 PUSH5 0x6970667358 0x22 SLT KECCAK256 PUSH23 0xB9C9032E75F302F99F9D3A41C5FB36F1A92972601952B3 SAR MSIZE PUSH15 0xFB831567CC64736F6C634300080700 CALLER "
				},
				"gasEstimates": {
					"creation": {
						"codeDepositCost": "2096600",
						"executionCost": "12241",
						"totalCost": "2108841"
					},
					"external": {
						"changeRoomState(uint256,bool)": "24972",
						"checkRented(uint256,uint256,uint256)": "infinite",
						"getAllRooms()": "infinite",
						"getMyRents()": "infinite",
						"getRoomRentHistory(uint256)": "infinite",
						"initializeRoom(uint256)": "infinite",
						"recommendDate(uint256,uint256,uint256)": "infinite",
						"rentId()": "2496",
						"rentRoom(uint256,uint256,uint256,uint256)": "infinite",
						"renter2rent(address,uint256)": "infinite",
						"roomId()": "2517",
						"roomId2rent(uint256,uint256)": "infinite",
						"roomId2room(uint256)": "infinite",
						"shareRoom(string,string,uint256)": "infinite"
					},
					"internal": {
						"_createRent(uint256,uint256,uint256,uint256)": "infinite",
						"_sendFunds(address,uint256)": "infinite"
					}
				},
				"methodIdentifiers": {
					"changeRoomState(uint256,bool)": "434ebe28",
					"checkRented(uint256,uint256,uint256)": "799a0f99",
					"getAllRooms()": "f794cf2d",
					"getMyRents()": "85bfa356",
					"getRoomRentHistory(uint256)": "8c694034",
					"initializeRoom(uint256)": "66fbc1f1",
					"recommendDate(uint256,uint256,uint256)": "43064aa4",
					"rentId()": "6decd419",
					"rentRoom(uint256,uint256,uint256,uint256)": "a165c0ba",
					"renter2rent(address,uint256)": "0eac931a",
					"roomId()": "f954d0d9",
					"roomId2rent(uint256,uint256)": "1071bc81",
					"roomId2room(uint256)": "d48c14df",
					"shareRoom(string,string,uint256)": "7b319135"
				}
			},
			"storageLayout": {
				"storage": [
					{
						"astId": 4,
						"contract": "RoomShare.sol:RoomShare",
						"label": "roomId",
						"offset": 0,
						"slot": "0",
						"type": "t_uint256"
					},
					{
						"astId": 23,
						"contract": "RoomShare.sol:RoomShare",
						"label": "rentId",
						"offset": 0,
						"slot": "1",
						"type": "t_uint256"
					},
					{
						"astId": 59,
						"contract": "RoomShare.sol:RoomShare",
						"label": "roomId2room",
						"offset": 0,
						"slot": "2",
						"type": "t_mapping(t_uint256,t_struct(Room)20_storage)"
					},
					{
						"astId": 65,
						"contract": "RoomShare.sol:RoomShare",
						"label": "renter2rent",
						"offset": 0,
						"slot": "3",
						"type": "t_mapping(t_address,t_array(t_struct(Rent)36_storage)dyn_storage)"
					},
					{
						"astId": 71,
						"contract": "RoomShare.sol:RoomShare",
						"label": "roomId2rent",
						"offset": 0,
						"slot": "4",
						"type": "t_mapping(t_uint256,t_array(t_struct(Rent)36_storage)dyn_storage)"
					}
				],
				"types": {
					"t_address": {
						"encoding": "inplace",
						"label": "address",
						"numberOfBytes": "20"
					},
					"t_array(t_bool)dyn_storage": {
						"base": "t_bool",
						"encoding": "dynamic_array",
						"label": "bool[]",
						"numberOfBytes": "32"
					},
					"t_array(t_struct(Rent)36_storage)dyn_storage": {
						"base": "t_struct(Rent)36_storage",
						"encoding": "dynamic_array",
						"label": "struct RoomShare.Rent[]",
						"numberOfBytes": "32"
					},
					"t_bool": {
						"encoding": "inplace",
						"label": "bool",
						"numberOfBytes": "1"
					},
					"t_mapping(t_address,t_array(t_struct(Rent)36_storage)dyn_storage)": {
						"encoding": "mapping",
						"key": "t_address",
						"label": "mapping(address => struct RoomShare.Rent[])",
						"numberOfBytes": "32",
						"value": "t_array(t_struct(Rent)36_storage)dyn_storage"
					},
					"t_mapping(t_uint256,t_array(t_struct(Rent)36_storage)dyn_storage)": {
						"encoding": "mapping",
						"key": "t_uint256",
						"label": "mapping(uint256 => struct RoomShare.Rent[])",
						"numberOfBytes": "32",
						"value": "t_array(t_struct(Rent)36_storage)dyn_storage"
					},
					"t_mapping(t_uint256,t_struct(Room)20_storage)": {
						"encoding": "mapping",
						"key": "t_uint256",
						"label": "mapping(uint256 => struct RoomShare.Room)",
						"numberOfBytes": "32",
						"value": "t_struct(Room)20_storage"
					},
					"t_string_storage": {
						"encoding": "bytes",
						"label": "string",
						"numberOfBytes": "32"
					},
					"t_struct(Rent)36_storage": {
						"encoding": "inplace",
						"label": "struct RoomShare.Rent",
						"members": [
							{
								"astId": 25,
								"contract": "RoomShare.sol:RoomShare",
								"label": "id",
								"offset": 0,
								"slot": "0",
								"type": "t_uint256"
							},
							{
								"astId": 27,
								"contract": "RoomShare.sol:RoomShare",
								"label": "rId",
								"offset": 0,
								"slot": "1",
								"type": "t_uint256"
							},
							{
								"astId": 29,
								"contract": "RoomShare.sol:RoomShare",
								"label": "yearOfRent",
								"offset": 0,
								"slot": "2",
								"type": "t_uint256"
							},
							{
								"astId": 31,
								"contract": "RoomShare.sol:RoomShare",
								"label": "checkInDate",
								"offset": 0,
								"slot": "3",
								"type": "t_uint256"
							},
							{
								"astId": 33,
								"contract": "RoomShare.sol:RoomShare",
								"label": "checkOutDate",
								"offset": 0,
								"slot": "4",
								"type": "t_uint256"
							},
							{
								"astId": 35,
								"contract": "RoomShare.sol:RoomShare",
								"label": "renter",
								"offset": 0,
								"slot": "5",
								"type": "t_address"
							}
						],
						"numberOfBytes": "192"
					},
					"t_struct(Room)20_storage": {
						"encoding": "inplace",
						"label": "struct RoomShare.Room",
						"members": [
							{
								"astId": 6,
								"contract": "RoomShare.sol:RoomShare",
								"label": "id",
								"offset": 0,
								"slot": "0",
								"type": "t_uint256"
							},
							{
								"astId": 8,
								"contract": "RoomShare.sol:RoomShare",
								"label": "name",
								"offset": 0,
								"slot": "1",
								"type": "t_string_storage"
							},
							{
								"astId": 10,
								"contract": "RoomShare.sol:RoomShare",
								"label": "location",
								"offset": 0,
								"slot": "2",
								"type": "t_string_storage"
							},
							{
								"astId": 12,
								"contract": "RoomShare.sol:RoomShare",
								"label": "isActive",
								"offset": 0,
								"slot": "3",
								"type": "t_bool"
							},
							{
								"astId": 14,
								"contract": "RoomShare.sol:RoomShare",
								"label": "price",
								"offset": 0,
								"slot": "4",
								"type": "t_uint256"
							},
							{
								"astId": 16,
								"contract": "RoomShare.sol:RoomShare",
								"label": "owner",
								"offset": 0,
								"slot": "5",
								"type": "t_address"
							},
							{
								"astId": 19,
								"contract": "RoomShare.sol:RoomShare",
								"label": "isRented",
								"offset": 0,
								"slot": "6",
								"type": "t_array(t_bool)dyn_storage"
							}
						],
						"numberOfBytes": "224"
					},
					"t_uint256": {
						"encoding": "inplace",
						"label": "uint256",
						"numberOfBytes": "32"
					}
				}
			},
			"userdoc": {
				"kind": "user",
				"methods": {},
				"version": 1
			}
		}
	}
}